:100000000C9460000C947D000C947D000C947D0099
:100010000C947D000C947D000C947D000C947D006C
:100020000C947D000C947D000C947D000C947D005C
:100030000C94A6060C947D000C947D000C947D001D
:100040000C947D000C947D000C947D000C947D003C
:100050000C947D000C947D000C947D000C947D002C
:100060000C947D000C947D000C947D000C947D001C
:100070000C947D000C947D000C947D000C947D000C
:100080000C947D000C947D000C947D000C947D00FC
:100090000C947D000C947D000C947D000C947D00EC
:1000A0000C947D000C947D000C947D00A815A8157F
:1000B000A8156C15D215E015A815A8156C15D21544
:1000C00011241FBECFEFDAE0DEBFCDBF11E0A0E00C
:1000D000B1E0E6EAFEE202C005900D92A433B1075A
:1000E000D9F721E0A4E3B1E001C01D92A33DB2071E
:1000F000E1F70E94F4020C9451170C94000087B1B0
:10010000806C87B9579A269A89E08093C20083EA67
:100110008093C00087E08093C10081E08093C3009A
:100120008FEF8093D10080E88093900083E18093EB
:1001300091008FEF90E09093970080939600089540
:1001400080914201909143018093D20080913E01C1
:1001500090913F018093D00080914401909145019E
:100160008093CF008091400190914101909399003C
:1001700080939800089510924301109242011092CA
:100180003F0110923E0110924501109244011092DD
:100190004101109240010C94A0002BB181309105D7
:1001A000A9F04CF4892BF9F470E07093430160934B
:1001B00042018BB118C08230910579F0039799F410
:1001C00070E070934101609340010CC070E0709347
:1001D0003F0160933E0185B106C070E07093450118
:1001E0006093440181B34634510531F043355105E4
:1001F00029F04234510521F40C94A0000C94BB006A
:10020000089580914201909143012BB199279093D9
:100210004301809342018BB10E94BB0080913E015B
:1002200090913F012BB1992790933F0180933E011C
:1002300085B10E94BB0080914401909145012BB192
:100240009927909345018093440181B30E94BB009C
:1002500080914001909141012BB1992790934101E8
:100260008093400181B30C94BB0080914201909136
:1002700043012BB1992790934301809342018BB1A5
:100280000E94A00080913E0190913F012BB19927DF
:1002900090933F0180933E0185B10E94A000809120
:1002A0004401909145012BB199279093450180938A
:1002B000440181B30E94A0008091400190914101CE
:1002C0002BB19927909341018093400181B30C9405
:1002D000A00080914201909143012BB19927909306
:1002E0004301809342018BB10E94A00080913E01A6
:1002F00090913F012BB1992790933F0180933E014C
:1003000085B10E94A00080914401909145012BB1DC
:100310009927909345018093440181B30E94A000E6
:1003200080914001909141012BB199279093410117
:100330008093400181B30C94A00080914201909180
:1003400043012BB1992790934301809342018BB1D4
:100350000E94A00080913E0190913F012BB199270E
:1003600090933F0180933E0185B10E94A00080914F
:100370004401909145012BB19927909345018093B9
:10038000440181B30E94A0008091400190914101FD
:100390002BB19927909341018093400181B30C9434
:1003A000A00080914201909143012BB19927909335
:1003B0004301809342018BB10E94A00080913E01D5
:1003C00090913F012BB1992790933F0180933E017B
:1003D00085B10E94A00080914401909145012BB10C
:1003E0009927909345018093440181B30E94A00016
:1003F00080914001909141012BB199279093410147
:100400008093400181B30C94A0008C3469F034F4E3
:10041000823441F0863451F40C943501823531F444
:100420000C949D010C9469010C94D1010C94010170
:100430008AB180658AB984B1806384B980B3806FE2
:1004400080BB08958FE790E0909343018093420131
:1004500090933F0180933E01909345018093440126
:1004600090934101809340010C94A0000E947F0072
:100470000E9418020E9422020E9435018FE190E042
:100480000E94E70E0E9401018FE190E00E94E70EBA
:100490000E9422020E9469018FE190E00E94E70E13
:1004A0000E9401018FE190E00E94E70EE3CF0895E2
:1004B000089508950895E0917401F0917501808187
:1004C000811103C08FEF9FEF0CC0E0917401F09198
:1004D00075010580F681E02D0680F781E02D82818F
:1004E000938190934C0180934B01089580915F011B
:1004F000882349F10E946F0DC09160010E94420E55
:10050000CC23A1F30FB6F8940F92E0916501F0911E
:100510006601C681D781CE0102960E941F05809197
:10052000550181508093550180915F0181508093E6
:100530005F010F900FBE8F89988D0E949A04CE01A3
:100540000E949A04D3CF80918801823010F00E94DB
:10055000F0050E94C002CACF009721F480914601A5
:10056000909147010FB6F8940F92FC0127A1223019
:1005700019F417A281E001C080E00F900FBE08952A
:1005800083EF80937E008FE380937D0080B7877F29
:1005900080BF80B7806880BF83B7817F83BF0FB67D
:1005A000F8940F9283B7816083BF0F900FBE889538
:1005B00013BE08953F9A479A2FEF80E792E02150AB
:1005C00080409040E1F700C00000379AF5CF3F9A95
:1005D000479A2FEF87EA91E6215080409040E1F75B
:1005E00000C00000379AF5CFEF92FF920F93E12CF5
:1005F000F12C05E020E030E040E850E069E171E0F6
:1006000086E392E00E94CD0A0E94390D80E090E0DE
:100610000F91FF90EF900895CF93DF938BE090E0E0
:100620000E947B04EC01009731F0FC0111921192C1
:10063000CF010E94B404CE01DF91CF910895AF9213
:10064000BF92CF92DF92EF92FF920F931F93CF93BF
:10065000DF937C01EB01B42EA22E0E946F0DF701F7
:10066000C080D180CE018C219D21A11003C0892B97
:1006700029F43CC08C179D0709F038C0BB2041F01D
:10068000CE01809590958C219D21F70191838083E7
:1006900000E010E00E94420E012B09F43DC08111E0
:1006A00002C00E94F0050E945A1191FD1CC00FB6B5
:1006B000F8940F92F701808191819E0128233923BC
:1006C000A11003C0232B21F40CC02C173D0749F4C3
:1006D000BB2039F0C095D095C823D923F701D18329
:1006E000C0830F900FBE6C01DD2416C001151105EB
:1006F00089F2B11003C060E070E002C060E071E018
:10070000A11074606C2B7D2BA801C70102960E947A
:10071000B70FC12CD12CBECFC601DF91CF911F9155
:100720000F91FF90EF90DF90CF90BF90AF90089522
:10073000FC010FB6F8940F928081918160957095BD
:1007400068237923718360830F900FBE0895FC01A5
:10075000808191810895CF92DF92EF92FF920F9363
:100760001F93CF93DF93EC018B017C0185E0E80EB2
:10077000F11C0E946F0DEF81F88588819981802B93
:10078000912B9983888300E010E068817981EE15D0
:10079000FF05E1F0D280C38020813181C901992712
:1007A000AC014623572332FD03C0452B21F40BC077
:1007B0004817590741F430FF02C0082B192B72600B
:1007C000CF010E942E10ED2DFC2DDFCF009510954E
:1007D00006231723198308830E94420E888199817A
:1007E000DF91CF911F910F91FF90EF90DF90CF900D
:1007F0000895AF92BF92CF92DF92EF92FF920F9344
:100800001F93CF93DF93EC015B018A0169010E9482
:100810006F0DE880F980B501CE010E94AB03EA2894
:10082000FB28C701802391238017910761F48881F9
:100830009981980120953095822393239983888309
:10084000C12CD12C0FC0C114D10451F0A601B801A4
:100850007560CE0102960E94B70FE12CF12C02C008
:10086000E880F9800E94420ECD28E9F0811102C093
:100870000E94F0050E945A1191FD13C00FB6F89422
:100880000F928881998198012823392320173107F5
:1008900031F40095109508231923198308830F90CC
:1008A0000FBE7C01FF24C701DF91CF911F910F91F3
:1008B000FF90EF90DF90CF90BF90AF900895CF93CF
:1008C000DF93EC010E946F0D8A81882339F060E08C
:1008D00072E08F8198850E942E10F6CFCE010E9483
:1008E0009A04DF91CF910C94420EBA010C94AB03A1
:1008F000BA010C9498030F931F93CF93DF9300D00A
:10090000CDB7DEB789839A830E946F0D89819A8162
:100910000E941A168C010E94420E0115110511F455
:100920000E94DA02C8010F900F90DF91CF911F91C2
:100930000F910895CF93DF9300D0CDB7DEB7009726
:1009400071F089839A830E946F0D89819A810E9438
:10095000B2160F900F90DF91CF910C94420E0F9032
:100960000F90DF91CF910895FC01039692838183CC
:100970002FEF3FEF3483238396838583908787838C
:1009800010820895FC01118610860895CF93DF939D
:100990009C01FB01DC011196CD91DC911297D38370
:1009A000C2838C819D81958384838C819D81DC01B0
:1009B00013967C936E9312977D836C833187208787
:1009C000F90180818F5F8083DF91CF9108950F932C
:1009D0001F93CF93DF938C01FB01208131812F3F47
:1009E0008FEF380721F4E801AF81B8850EC0D80138
:1009F000139612968D919C911397EC014881598121
:100A00002417350710F0DC01F4CF12968D919C91DC
:100A1000139793838283EC01FD83EC83B583A483D6
:100A20001396FC93EE93129711870087F80180814B
:100A30008F5F8083DF91CF911F910F910895CF93A6
:100A4000DF93FC01A085B18582819381248135816A
:100A5000EC013D832C83C481D5819B838A831196CD
:100A60008D919C9112978E179F0721F41296DC931B
:100A7000CE931197118610868C9181508C93DF91C3
:100A8000CF91089531E1FC013083319722E2208338
:100A90003197A3E3A08331976083319770833197B7
:100AA0001082319760E8608331971082319762E05D
:100AB0006083319763E06083319764E060833197AE
:100AC00065E06083319766E06083319767E060831B
:100AD000319768E06083319769E06083319760E126
:100AE000608331973083319732E13083319733E13E
:100AF0003083319734E13083319735E1308331975A
:100B000036E13083319737E13083319738E13083F4
:100B1000319739E13083319730E23083319731E2D8
:100B2000308331972083319723E2208331974083AC
:100B300031975083319726E22083319727E2208333
:100B4000319728E22083319729E22083319720E3EF
:100B50002083319721E3208386970895A89520EC80
:100B600088E190E00FB6F894A895809360000FBEDE
:100B700020936000A0914601B0914701CD91CDBF77
:100B8000DD91DEBFFF91EF91DF91CF91BF91AF91EA
:100B90009F918F917F916F915F914F913F912F9195
:100BA0001F910F91FF90EF90DF90CF90BF90AF908B
:100BB0009F908F907F906F905F904F903F902F907D
:100BC0001F900F900FBE0F90089581E0089588E167
:100BD0000FB6F89480936000109260000FBE0895E5
:100BE0000F920FB6F8940F921F9211242F923F92FA
:100BF0004F925F926F927F928F929F92AF92BF922D
:100C0000CF92DF92EF92FF920F931F932F933F9318
:100C10004F935F936F937F938F939F93AF93BF9304
:100C2000CF93DF93EF93FF93A0914601B0914701DB
:100C30000DB60D920EB60D920E94030FA0914601C3
:100C4000B0914701CD91CDBFDD91DEBFFF91EF9116
:100C5000DF91CF91BF91AF919F918F917F916F91D4
:100C60005F914F913F912F911F910F91FF90EF90C6
:100C7000DF90CF90BF90AF909F908F907F906F90BC
:100C80005F904F903F902F901F900F900FBE0F904E
:100C900008950F920FB6F8940F921F9211242F927D
:100CA0003F924F925F926F927F928F929F92AF92FC
:100CB000BF92CF92DF92EF92FF920F931F932F93E9
:100CC0003F934F935F936F937F938F939F93AF93D4
:100CD000BF93CF93DF93EF93FF93A0914601B09121
:100CE00047010DB60D920EB60D9213BE0E948F0DE8
:100CF00081110E94030FA0914601B0914701CD914F
:100D0000CDBFDD91DEBFFF91EF91DF91CF91BF911C
:100D1000AF919F918F917F916F915F914F913F9193
:100D20002F911F910F91FF90EF90DF90CF90BF9088
:100D3000AF909F908F907F906F905F904F903F907B
:100D40002F901F900F900FBE0F9008950E9449069C
:100D500018950FB6F8940F92FC01928D0F900FBE6C
:100D600081E0911180E008950F931F93CF93DF935B
:100D7000EC01042F1A8D4C8D41110BC08881998193
:100D8000892BE9F58A819B810E9421111B821A829D
:100D900037C050E0011115C08C819D810E94411720
:100DA0002C8D8C819D81820F911D9D838C832A8146
:100DB0003B818217930718F1888199819D838C83E9
:100DC0001EC08E819F810E9441172C8D30E031958D
:100DD000219531098E819F81820F931F9F838E837E
:100DE000688179818617970730F48A819B81820F09
:100DF000931F9F838E83023011F41111115080E0F4
:100E00001F5F1A8FDF91CF911F910F910895FC0101
:100E1000CB01448D4423A1F050E026813781240F7B
:100E2000351F37832683628173812617370720F0A9
:100E30002081318137832683668177810C94411725
:100E40000895FF920F931F93CF93DF93EC010FB69A
:100E5000F8940F92FE8C8C010F5E1F4F1F145CF4F0
:100E60008989882341F0C8010E94EE0F81110E94F8
:100E70009F10FA94F3CF8FEF8E8F0F900FBE0FB6A7
:100E8000F8940F92FD8C8E01085F1F4F1F145CF4C5
:100E90008885882341F0C8010E94EE0F81110E94CD
:100EA0009F10FA94F3CF8FEF8D8F0F900FBEDF91CD
:100EB000CF911F910F91FF900895CF93DF93EC0195
:100EC0000FB6F8940F92288139818B8D7C8D879F86
:100ED000C0011124A901480F591F5B834A831A8E50
:100EE0003D832C83871B9109820F931F9F838E83E1
:100EF0008FEF8D8F8E8F61110CC08885882389F0CC
:100F0000CE0108960E94EE0F882359F00E94F0054A
:100F100008C0CE0108960E94B404CE0141960E94FA
:100F2000B4040F900FBE81E0DF91CF910895EF924E
:100F3000FF921F93CF93DF931F92CDB7DEB7182F89
:100F4000662321F0869FC001112402C080E090E05A
:100F50004F9669830E947B047C016981009799F018
:100F6000611104C0FC019183808306C09C01215E55
:100F70003F4FFC0131832083F701138F648F61E0C1
:100F8000C7010E945D07C7010F90DF91CF911F91AC
:100F9000FF90EF900895CF93C62F42E060E00E944B
:100FA0009707009711F0FC01C28FCF910895BF926F
:100FB000CF92DF92EF92FF920F931F93CF93DF9325
:100FC00000D000D01F92CDB7DEB78C016B015D83DE
:100FD0004C83B22E20E07C0188E0E80EF11C0FB6B5
:100FE000F8940F92F801928D838D981718F0F2E023
:100FF000BF1214C04B2DB601C8010E94B406F801FF
:101000009189992321F0C80141960E94EE0F811128
:101010000E94F0050F900FBE81E050C08C819D8131
:10102000892B19F40F900FBE48C0211104C0CE01C6
:1010300001960E9462100F900FBE0E946F0D0FB6B6
:10104000F8940F92F801858D8F3F09F4158EF80101
:10105000868D8F3F09F4168E0F900FBEBE016C5F18
:101060007F4FCE0101960E946D10811121C00FB6F5
:10107000F8940F92F801928D838D0F900FBE981304
:1010800011C06C817D81C7010E94A60FC8010E941A
:1010900021070E94420E882311F021E0A0CF0E9478
:1010A000F005FBCFC8010E9421070E94420EF5CF38
:1010B000C8010E9421070E94420E80E00F900F900D
:1010C0000F900F900F90DF91CF911F910F91FF9094
:1010D000EF90DF90CF90BF900895CF93DF93482F8C
:1010E00060E081E00E949707EC01009761F01B82AD
:1010F0001A82198218821E8220E040E050E060E0EF
:1011000070E00E94D707CE01DF91CF9108950F9331
:101110001F93CF93DF93EC010A811B810E94B910CA
:101120000817190771F48E8181508E8381110BC0CD
:1011300020E040E050E060E070E0CE010E94D70780
:1011400002C080E001C081E0DF91CF911F910F913B
:101150000895FF920F931F93CF93DF93EC018A01C1
:101160009A8D8B8D981710F02230E1F4FE8C422F6F
:10117000CE010E94B4068FEFF81210C0898988232F
:1011800079F0CE0141960E94EE0F882349F00115B7
:10119000110531F081E0F801808305C0F394FE8EE3
:1011A00081E001C080E0DF91CF911F910F91FF900E
:1011B0000895CF93DF93FC01EB01928D838D9817F7
:1011C000B8F4868D9F5F928F8F3F71F48189882359
:1011D00069F0CF0141960E94EE0F882339F02097E5
:1011E00029F081E0888305C08F5F868F81E001C090
:1011F00080E0DF91CF910895AF92BF92CF92DF92BE
:10120000EF92FF920F931F93CF93DF9300D000D004
:101210001F92CDB7DEB78C016B015D834C83A22E8C
:1012200020E07C0181E1E80EF11C0FB6F8940F92EA
:10123000F801B28CBB2071F1E680F780B601C801DD
:101240000E940707A11019C0BA94F801B28E8081DC
:101250009181892B29F40E947111F8019383828373
:10126000F8018085882391F0C80108960E94EE0F4E
:10127000882361F00E94F00509C0F801F782E68238
:101280008189882319F0C8014196F0CF0F900FBED5
:1012900081E05FC08C819D81892B19F40F900FBE76
:1012A00057C0211104C0CE0101960E9462100F9018
:1012B0000FBE0E946F0D0FB6F8940F92F801858D46
:1012C0008F3F09F4158EF801868D8F3F09F4168E35
:1012D0000F900FBEBE016C5F7F4FCE0101960E9442
:1012E0006D1081112BC0C8010E94A906882301F14D
:1012F000F80180819181892B51F40FB6F8940F92F7
:10130000F801828193810E94CC100F900FBE6C81F6
:101310007D81C7010E94A60FC8010E9421070E947B
:10132000420E882311F021E080CF0E94F005FBCF10
:10133000C8010E9421070E94420EF5CFC8010E94F9
:1013400021070E94420EC8010E94A906882359F372
:1013500080E00F900F900F900F900F90DF91CF9142
:101360001F910F91FF90EF90DF90CF90BF90AF90C3
:101370000895EF92FF920F931F93CF93DF93EC01A9
:101380008B01EA80FB800E94B910E816F90629F467
:101390008E818F5F8E8381E00CC020E0A80160E029
:1013A00070E0CE010E94FC08882319F09E819F5FA7
:1013B0009E83DF91CF911F910F91FF90EF90089541
:1013C000EF92FF920F931F93CF93DF93EC018A016B
:1013D000EA8CEE20E1F0FD8C0E940707EA94EA8E89
:1013E0008FEFF81210C08885882379F0CE01089617
:1013F0000E94EE0F882349F00115110531F081E0BC
:10140000F801808305C0F394FD8E81E001C080E087
:10141000DF91CF911F910F91FF90EF9008950F935F
:101420001F93CF93DF93EC018A8D882349F00E81BF
:101430001F81CE010E9407071F830E8381E001C038
:1014400080E0DF91CF911F910F9108950FB6F8942E
:101450000F92FC01828D0F900FBE08950FB6F89485
:101460000F92FC01228D838D821B0F900FBE089579
:10147000FC01828D08950C949A04FC01928D81E008
:10148000911180E00895FC01228D81E0938D291354
:1014900080E00895CF93DF93EC010FB6F8940F929C
:1014A0008D8D8F3F09F41D8E8E8D8F3F09F41E8E1A
:1014B0000F900FBE8A8D811104C0CE0141960E940B
:1014C000CF0FCE01DF91CF910C942107EF92FF92C5
:1014D0000F931F93CF93DF931F92CDB7DEB77C019D
:1014E0000091530110915401809146019091470160
:1014F000029669830E941F0569818FEFE816F8063E
:1015000099F4662389F060914601709147016E5FFE
:101510007F4F86E591E00F90DF91CF911F910F9162
:10152000FF90EF900C94C604E00EF11EE09146018E
:10153000F0914701F382E282609146017091470188
:10154000E016F10678F480917201909173016E5F5C
:101550007F4F0F90DF91CF911F910F91FF90EF90F0
:101560000C94E70480917401909175016E5F7F4F38
:101570000E94E70480914B0190914C01E816F90616
:1015800020F4F0924C01E0924B010F90DF91CF914B
:101590001F910F91FF90EF9008955F926F927F924D
:1015A0008F929F92AF92BF92CF92DF92EF92FF9273
:1015B0000F931F93CF93DF934C01562E172F5A0191
:1015C0003901CA010E947B046C01009709F4DCC058
:1015D00088E290E00E947B04EC010097A1F0D88E95
:1015E000CF8AA50165EA70E0C6010E944A1721E092
:1015F000A21AB108CF88D88CCA0CDB1CE52DF12FBC
:1016000080E090E008C0C6010E949A04BDC0019627
:101610008830910561F0BF0141919E01280F391F6B
:10162000D90159964C93DB012C912111F0CF18A2CE
:10163000043008F003E00E8B09A31AA25E01B2E0A9
:10164000AB0EB11CC5010E94C204CE010C960E94D3
:10165000C204D987C88784E090E0801B91099D87E8
:101660008C87DB8BCA8B1BA21CA21DA21EA21FA2F1
:10167000A301B401C6010E94420599838883E11445
:10168000F10419F0F701D183C0830FB6F8940F92DB
:10169000809155018F5F8093550180914601909113
:1016A0004701892BD1F5D0934701C0934601809122
:1016B0005501813009F041C088E891E00E94B404EE
:1016C00081E991E00E94B4048AE991E00E94B404A7
:1016D00083EA91E00E94B4048FE791E00E94B40491
:1016E00086E791E00E94B40489E691E00E94B40488
:1016F00080E691E00E94B40486E591E00E94B40483
:101700008FE791E0909375018093740186E791E0F3
:10171000909373018093720110C0809151018111E7
:101720000CC0E0914601F091470196898E89891796
:1017300020F0D0934701C093460180914D018F5F07
:1017400080934D018E8990915201981710F48093E7
:101750005201F9E08F9FC0011124B50188579E4FB7
:101760000E94C6040F900FBE80915101882351F052
:10177000E0914601F091470196898E89981710F4FF
:101780000E94F00581E001C08FEFDF91CF911F91A2
:101790000F91FF90EF90DF90CF90BF90AF909F9010
:1017A0008F907F906F905F9008950F931F93CF93CA
:1017B000DF93EC010FB6F8940F92009721F4C091DB
:1017C0004601D09147018E010E5F1F4FC8010E9454
:1017D0001F058C899D89892B21F0CE010C960E94D2
:1017E0001F0580914D018F5F80934D0180914601CF
:1017F00090914701C817D90759F4B80180E691E0E4
:101800000E94C60480915F018F5F80935F010EC0CC
:10181000809155018150809355018F89988D0E9448
:101820009A04CE010E949A040E945B020F900FBEA0
:1018300080915101882349F08091460190914701A0
:10184000C817D90711F40E94F005DF91CF911F91BD
:101850000F9108950FB6F8940F92009721F480919C
:10186000460190914701FC0186890F900FBE0895B3
:10187000009721F48091460190914701FC018689EF
:101880000895FF920F931F93CF93DF93EC01643081
:1018900008F063E00FB6F8940F92209721F4C091FE
:1018A0004601D091470129A1261709F44CC0809127
:1018B000460190914701261768F4C817D90779F0B7
:1018C000E0914601F0914701FF24F394868968175F
:1018D00038F405C0FF24F394C817D90709F0F12C98
:1018E0008E89281301C06E8B69A32C853D8537FD39
:1018F00006C024E030E0261B31093D872C8729E013
:10190000829FC001112488579E4F2A853B85281746
:101910003907B1F48E010E5F1F4FC8010E941F05E9
:101920008E8990915201981710F48093520129E00A
:10193000829FC0011124B80188579E4F0E94C6049F
:10194000F1100E94F0050F900FBEDF91CF911F9113
:101950000F91FF9008950F931F93CF93DF93EC01A6
:10196000009709F439C08091460190914701C8174A
:10197000D90791F10FB6F8940F928A859B85865509
:10198000914041F58C899D8921E08936920711F1BA
:10199000892B01F58E010E5F1F4FC8010E941F05A4
:1019A0008E8990915201981710F48093520129E08A
:1019B000829FC0011124B80188579E4F0E94C6041F
:1019C000E0914601F09147019E898689981710F0B1
:1019D0000E94F0050F900FBEDF91CF911F910F91E4
:1019E0000895FF920F931F93CF93DF93EC018A85A5
:1019F0009B8586559140A9F58C899D8931E0893672
:101A0000930779F1892B69F580914801811122C0F2
:101A1000E0914601F0914701FF24F3949E89868965
:101A2000981708F4F12C8E010E5F1F4FC8010E9419
:101A30001F052E8980915201821710F420935201C4
:101A400039E0239FC0011124B80188579E4F0E949E
:101A5000C60408C0BE01645F7F4F89E691E00E9422
:101A6000C604F12C8F2DDF91CF911F910F91FF9024
:101A70000895EF92FF920F9389E4E82E81E0F82E0B
:101A800000E020E030E040EC50E066E271E086E704
:101A900092E00E94CD0A8130B9F40E94FF13813098
:101AA00099F4F8948FEF9FEF90934C0180934B0142
:101AB00081E08093510110925401109253010F91D3
:101AC000FF90EF900C94AE050F91FF90EF9008956A
:101AD000F894109251010E94E7057894089580913E
:101AE00048018F5F8093480108950FB6F8940F92D4
:101AF00080915301909154010F900FBE08958091F1
:101B000053019091540108958091550108950097D3
:101B100021F4809146019091470149960895CF9212
:101B2000DF92EF92FF920F931F93CF93DF938091F9
:101B30004801811191C0C0915301D0915401219667
:101B4000D0935401C09353012097B9F4809174014C
:101B5000909175012091720130917301309375015C
:101B600020937401909373018093720180914E01D0
:101B70008F5F80934E010E945B0280914B01909198
:101B80004C01D12CC817D90708F455C099E0C92ECB
:101B9000E0917401F09175018081811107C08FEF90
:101BA0009FEF90934C0180934B0145C0E0917401ED
:101BB000F09175010580F681E02D06811781D8012D
:101BC00012962D913C911397C217D30728F43093A6
:101BD0004C0120934B012FC07801B2E0EB0EF11CB9
:101BE000C7010E941F05F80124893589232B21F0A4
:101BF000C8010C960E941F05D80156962C91809121
:101C00005201821710F420935201C29EC001112488
:101C1000B70188579E4F0E94C604E0914601F0919B
:101C20004701D80156969C918689981708F4B0CF41
:101C3000DD24D394ADCFE0914601F0914701E689D0
:101C4000B9E0EB9FF0011124E857FE4F808182300C
:101C500048F0DD24D39406C0809150018F5F8093BB
:101C60005001D12C80914F01882311F0DD24D394B1
:101C70008D2DDF91CF911F910F91FF90EF90DF900D
:101C8000CF900895EF92FF920F931F93CF93DF931E
:101C90000FB6F8940F9280914801815080934801CB
:101CA00080914801882311F080E052C08091550155
:101CB0008823D1F3C0E0D0E029E0F22EEE24E394B3
:101CC00080916901882351F1E0916E01F0916F01DB
:101CD000C681D781CE010C960E941F058E010E5F32
:101CE0001F4FC8010E941F058E89909152019817BD
:101CF00010F480935201F89EC0011124B801885756
:101D00009E4F0E94C604E0914601F09147019E89D2
:101D100086899817A8F2E0924F01D2CFCD2B11F00F
:101D20000E945B02C0915001CC2351F0D1E00E948F
:101D30008F0D8111D0934F01C150C9F710925001FE
:101D400080914F01882309F4AFCF0E94F00581E014
:101D50000F900FBEDF91CF911F910F91FF90EF90E9
:101D600008950F931F93CF93DF93EC018B010E9493
:101D70006F0D4091530150915401E881F9819F0109
:101D8000200F311F4E175F0728F42E173F0748F426
:101D900081E004C081E02E173F0720F0421753076F
:101DA00008F080E039832883882331F060E0C9019E
:101DB000841B950B0E94660A0E94420E811102C08C
:101DC0000E94F005DF91CF911F910F910895CF935D
:101DD000DF9300D0CDB7DEB7009719F40E94F0056D
:101DE0000DC089839A830E946F0D60E089819A817A
:101DF0000E94660A0E94420E882381F30F900F9082
:101E0000DF91CF91089580914801882321F081E0EE
:101E100080934F01089510924F01A0914601B09117
:101E20004701E0914601F09147012D913C9187894E
:101E3000908D8217930760F0609146017091470181
:101E40008091460190914701675E7F4F0E94E702B3
:101E50002091520199E0929FF0011124E857FE4F22
:101E60008081811102C02150F6CFA181B2811296EA
:101E70000D90BC91A02DB283A183CF010396A8172A
:101E8000B90731F412968D919C91139792838183B7
:101E90000180F281E02D86819781909347018093A4
:101EA00046012093520108950F931F93CF93DF9320
:101EB000EC010FB6F8940F92009721F4C0914601FF
:101EC000D09147018E010E5F1F4FC8010E941F0570
:101ED0008C899D89892B21F0CE010C960E941F05CB
:101EE000B80186E591E00E94C6040F900FBE809174
:101EF0005101882339F00FB6F8940F920E945B02CB
:101F00000F900FBE8091460190914701C817D907E5
:101F1000C1F480915101882319F00E94F00511C08D
:101F20008091550190915601981305C01092470178
:101F30001092460106C0DF91CF911F910F910C9432
:101F4000030FDF91CF911F910F910895CF93DF93EE
:101F5000EB016091460170914701645F7F4F0E94E1
:101F6000E70461E0CE01DF91CF910C94660ACF9334
:101F7000DF93EA01E0914601F091470170687587AF
:101F800064876091460170914701645F7F4F0E94B2
:101F9000C60461E0CE01DF91CF910C94660A0F93E5
:101FA0001F93CF93DF931F92CDB7DEB78B01609164
:101FB000460170914701645F7F4F49830E94C604C8
:101FC0004981442311F00FEF1FEF642FC8010F90D8
:101FD000DF91CF911F910F910C94660A0F931F937D
:101FE000CF93DF93DC011596ED91FC911697C68196
:101FF000D7818E01045F1F4FC8010E941F05809189
:102000004801811114C00A501109C8010E941F051E
:102010008E8990915201981710F480935201B9E083
:102020008B9FC0011124B80188579E4F03C0B8018F
:1020300089E691E00E94C604E0914601F0914701D3
:102040009E898689891720F481E080934F0101C021
:1020500080E0DF91CF911F910F9108950F931F930F
:10206000CF93DF937068FC0171836083C681D78151
:102070000E941F058E010E5F1F4FC8010E941F05A1
:102080008E8990915201981710F480935201F9E0D3
:102090008F9FC0011124B80188579E4F0E94C6042B
:1020A000E0914601F09147019E898689891720F4C5
:1020B00081E080934F0101C080E0DF91CF911F91BB
:1020C0000F91089520914E01FC012083209153012E
:1020D00030915401328321830895CF93DF930FB65B
:1020E000F8940F92E0915301F0915401DB014D916E
:1020F0005C914F3FBFEF5B07D1F0B0914E01EC0117
:10210000A88129813A81BA1719F0E217F30788F4F8
:10211000DF01A21BB30BA417B50758F42E1B3F0B0E
:10212000240F351FFB01318320830E94621080E061
:1021300001C081E00F900FBEDF91CF91089581E043
:1021400080934F010895009721F48091460190916A
:102150004701DC015796ED91FC91589780E090E0A3
:10216000DC012191253A21F40196A11DB11DF9CF81
:102170000895809146019091470108958091510101
:10218000882331F080914801811104C082E00895D4
:1021900081E0089580E008950F931F93CF93DF931C
:1021A000EC01009709F448C08E89E0914601F09156
:1021B00047019689891708F03FC02C853D8537FD7A
:1021C0000BC0E0914601F0914701968924E030E090
:1021D000291B31093D872C8729E0829FC0011124EA
:1021E00088579E4F2A853B8528173907F9F48E01B9
:1021F0000E5F1F4FC8010E941F05E0914601F0913C
:10220000470186898E8B90915201981710F4809324
:10221000520129E0829FC0011124B80188579E4FC6
:10222000DF91CF911F910F910C94C604E09146016C
:10223000F091470186898E8BDF91CF911F910F918D
:1022400008950F931F93CF93DF93EC01009711F440
:1022500080E02BC08AA181508AA32E8999A12917D9
:10226000B9F38111F5CF8E010E5F1F4FC8010E9497
:102270001F0589A18E8B482F50E024E030E0241BFD
:10228000350B3D872C8790915201981710F480935D
:10229000520129E0249FC001259F900D1124B8010F
:1022A00088579E4F0E94C60481E0DF91CF911F9115
:1022B0000F910895E0914601F0914701848595853D
:1022C000E0914601F0914701A0914601B09147018C
:1022D00056964C9124E030E0241B31093587248741
:1022E00008958091460190914701892B39F0E09142
:1022F0004601F091470182A18F5F82A38091460140
:102300009091470108950F931F93182FCB010FB69B
:10231000F8940F92E0914601F091470143A154A136
:1023200065A176A1452B462B472B69F4E091460128
:10233000F091470121E027A3009729F061E00E9476
:10234000660A0E94F0050F900FBE0FB6F8940F9228
:10235000E0914601F091470163A174A185A196A186
:102360006115710581059105A9F0E0914601F09193
:102370004701112329F013A214A215A216A20AC024
:102380008B019C01015011092109310903A314A3F8
:1023900025A336A3E0914601F091470117A20F90C3
:1023A0000FBE1F910F9108958F929F92AF92BF928F
:1023B000CF92DF92EF92FF920F931F93CF93DF9311
:1023C00000D000D0CDB7DEB7D7010FB6F8940F928A
:1023D000E0914601F0914701E7A1E23061F1E0911F
:1023E0004601F0914701C3A0D4A0E5A0F6A04B019F
:1023F0005C0180949094A094B0948C209D20AE2099
:10240000BF2083A294A2A5A2B6A2E0914601F091BA
:10241000470181E087A3109771F061E0CD01298326
:102420003A834B835C830E94660A0E94F0055C81BC
:102430004B813A8129810F900FBE0FB6F8940F920D
:102440000115110569F0E0914601F091470183A162
:1024500094A1A5A1B6A1F80180839183A283B3833F
:10246000E0914601F091470187A18130C1F0E091F0
:102470004601F0914701C3A0D4A0E5A0F6A0DA017F
:10248000C90180959095A095B0958C219D21AE2194
:10249000BF2183A394A3A5A3B6A381E001C080E0DC
:1024A000E0914601F091470117A20F900FBE0F90E7
:1024B0000F900F900F90DF91CF911F910F91FF9090
:1024C000EF90DF90CF90BF90AF909F908F90089546
:1024D000CF92DF92EF92FF920F931F93CF93DF93F0
:1024E000EC010FB6F8940F920115110549F0CBA03D
:1024F000DCA0EDA0FEA0F801C082D182E282F382CE
:102500008FA192E09FA322303105C1F080F42130E9
:10251000310519F50BA11CA12DA13EA1042B152BF2
:10252000262B372B0BA31CA32DA33EA316C02330B1
:10253000310579F02430310551F00FC04BA15CA179
:102540006DA17EA14F5F5F4F6F4F7F4F02C0823002
:1025500041F14BA35CA36DA37EA3813001F58E01F5
:102560000E5F1F4FC8010E941F058E899091520176
:10257000981710F480935201F9E08F9FC001112445
:10258000B80188579E4F0E94C604E0914601F09121
:1025900047019E898689891710F40E94F00581E021
:1025A00001C080E00F900FBEDF91CF911F910F917E
:1025B000FF90EF90DF90CF900895EF92FF920F93EE
:1025C0001F93CF93DF93EC010115110549F08BA107
:1025D0009CA1ADA1BEA1F80180839183A283B383A6
:1025E000EFA182E08FA322303105A1F060F4213009
:1025F000310511F58BA19CA1ADA1BEA1842B952B1A
:10260000A62BB72B0EC02330310591F024303105B5
:1026100069F012C08BA19CA1ADA1BEA10196A11D24
:10262000B11D8BA39CA3ADA3BEA306C0E230D1F124
:102630004BA35CA36DA37EA3E13011F081E033C016
:1026400080914801811115C08E010E5F1F4FC80196
:102650000E941F058E8990915201981710F4809363
:102660005201F9E08F9FC0011124B80188579E4F95
:1026700005C0BE01645F7F4F89E691E00E94C604F9
:10268000E0914601F09147019E8986898917B0F64D
:1026900081E0E114F10419F0F701808304C0809314
:1026A0004F0101C080E0DF91CF911F910F91FF900A
:1026B000EF900895EF92FF920F931F93CF93DF93C4
:1026C000EC018B018FA192E09FA34BA15CA16DA1B6
:1026D0007EA14F5F5F4F6F4F7F4F4BA35CA36DA3F6
:1026E0007EA3813091F580914801811116C07E0151
:1026F00022E0E20EF11CC7010E941F058E89909115
:102700005201981710F480935201E9E08E9FC001A6
:102710001124B70188579E4F05C0BE01645F7F4FEB
:1027200089E691E00E94C604E0914601F0914701DC
:102730009E898689891748F481E00115110519F0F1
:10274000F801808302C080934F01DF91CF911F91E8
:102750000F91FF90EF9008950FB6F8940F9280912B
:10276000B0019091B101892BE9F48FEB91E00E94C7
:10277000B40486EB91E00E94B4048FEB91E0909357
:10278000B5018093B40186EB91E09093B3018093FF
:10279000B20140E065E08AE00E9497079093B101A2
:1027A0008093B0010F900FBE0895FC017383628384
:1027B000918780874617570778F0421B530B848513
:1027C000958548175907C8F4BF016E5F7F4F809108
:1027D000B2019091B3010DC04217530718F462176C
:1027E000730758F4BF016E5F7F4F8091B4019091E1
:1027F000B5010E94E70480E0089581E00895EF921A
:10280000FF920F930E94AC138091B0019091B1019F
:10281000892B81F08EEAE82E81E0F82E03E020E09B
:1028200030E045E550E06BE271E081EE94E10E941A
:10283000CD0A01C080E00F91FF90EF9008959F9224
:10284000AF92BF92CF92DF92EF92FF920F931F93BE
:10285000CF93DF935C016B01942E790183E190E0CB
:102860000E947B04EC01009779F00E94AC13B982BE
:10287000A882DD86CC869E86F88AEF861A8B098B25
:10288000CE0102960E94C204CE01DF91CF911F912A
:102890000F91FF90EF90DF90CF90BF90AF909F90FF
:1028A00008950F931F93CF93DF9300D000D01F9212
:1028B000CDB7DEB7FC01D9018091B0019091B10193
:1028C000009719F169835B834A83FD83EC8366304B
:1028D000A4F40E94BE10E091B001F091B10120E09B
:1028E000823011F4A80102C040E050E0BE016F5FE9
:1028F0007F4FCF010E94D70709C020E0AD01BE0184
:102900006F5F7F4F0E94A90801C080E00F900F9079
:102910000F900F900F90DF91CF911F910F9108951D
:10292000EF92FF920F931F93CF93DF93E091B40147
:10293000F091B5018081882389F10580F681E02D31
:10294000E080F180C681D7818E010E5F1F4FC801E4
:102950000E941F05E989FA89CE0109958E8581308B
:1029600029F72C853D852E0D3F1DE216F30660F4F8
:102970003B832A83D987C887B8018091B40190919D
:10298000B5010E94E704D2CF00E010E020E030E083
:10299000A70160E0CE010E945114C8CF8091B2011E
:1029A0009091B3019093B5018093B401F093B3017A
:1029B000E093B201DF91CF911F910F91FF90EF90C3
:1029C0000895CF93DF93CDB7DEB727970FB6F8946E
:1029D000DEBF0FBECDBFE091B401F091B50141E083
:1029E0008081882339F040E00580F681E02DC080A9
:1029F000D18002C0C12CD12C4F830E946F0D0E9448
:102A0000750D8C018091AC019091AD014F8108173B
:102A1000190728F40E94901481E04F8101C080E0E2
:102A20001093AD010093AC01811150C0411136C02B
:102A30000C151D05D8F10E94420EE091B401F091F1
:102A4000B5010580F681E02DE680F780C70102968A
:102A50000E941F05D7011E968C911E978130B1F4FC
:102A60001C966D917C911D976C0D7D1D9601A801A2
:102A7000C7010E94D513882349F000E010E020E050
:102A800030E0A60160E0C7010E945114D7015196C1
:102A9000ED91FC915297C70109951EC0E091B201DA
:102AA000F091B30141E08081811140E0B601601BEB
:102AB000710B8091B0019091B1010E944A0A0E946D
:102AC000420E811109C00E94F00506C00E94420E0C
:102AD00003C0898187FF0FC020E040E050E0BE01C5
:102AE0006F5F7F4F8091B0019091B1010E94FC080F
:102AF0008111EFCF70CFEC80FD80F7018285938547
:102B0000892B21F0C70102960E941F050E94750DB6
:102B1000AC018091AC019091AD014817590730F498
:102B20004F835E830E9490145E814F815093AD016C
:102B30004093AC010981112707FD1095212F312FFA
:102B40000A30110548F6F801EA5AFF4F0C941416A2
:102B50002A813B81D7011C966D917C911D97620F54
:102B6000731FC7010E94D513882309F4B5CFD7017D
:102B70005196ED91FC915297C7010995F701868511
:102B8000813009F0A9CF448555858A819B81480F02
:102B9000591F00E010E020E030E060E0C7010E9433
:102BA00051149ACF6A817B81D7011D967C936E93D5
:102BB0001C97640F751F9A01C7010E94D5138CCF13
:102BC000C7010E949A0488CF8091AE019091AF0115
:102BD0000895FC01848595850895FC018281938187
:102BE0000895FC01808191810895FC010FB6F8944D
:102BF0000F9281E022853385232B09F480E00F902A
:102C00000FBE08950FB6F8940F92FC018785908946
:102C10000F900FBE08950FB6F8940F92FC01708BC1
:102C200067870F900FBE0895EE0FFF1F0590F49178
:102C3000E02D0994CF93DF938230910510F482E068
:102C400090E0E091D101F091D20120E030E0A0E0ED
:102C5000B0E0309739F14081518148175907B8F0F9
:102C60004817590771F482819381109729F01396C0
:102C70009C938E9312972CC09093D2018093D10194
:102C800027C02115310531F04217530718F0A9016B
:102C9000DB0101C0EF019A01BD01DF010280F38178
:102CA000E02DD7CF21153105F9F0281B390B243041
:102CB000310580F48A819B816115710521F0FB014A
:102CC0009383828304C09093D2018093D101FE014B
:102CD000329644C0FE01E20FF31F8193919322507C
:102CE0003109398328833AC02091CF013091D00136
:102CF000232B41F420911201309113013093D00124
:102D00002093CF012091100130911101211531053F
:102D100041F42DB73EB74091140150911501241B89
:102D2000350BE091CF01F091D001E217F307A0F449
:102D30002E1B3F0B2817390778F0AC014E5F5F4F11
:102D40002417350748F04E0F5F1F5093D001409372
:102D5000CF018193919302C0E0E0F0E0CF01DF91D9
:102D6000CF910895CF93DF93009709F487C0FC01BA
:102D7000329713821282C091D101D091D201209753
:102D800081F420813181280F391F8091CF019091EA
:102D9000D0018217930779F5F093D001E093CF012A
:102DA0006DC0DE0120E030E0AE17BF0750F4129690
:102DB0004D915C9113979D014115510509F1DA017F
:102DC000F3CFB383A28340815181840F951F8A176B
:102DD0009B0771F48D919C911197840F951F02961A
:102DE0009183808312968D919C9113979383828314
:102DF0002115310529F4F093D201E093D1013EC0B1
:102E0000D9011396FC93EE9312974D915D91A40F07
:102E1000B51FEA17FB0779F480819181840F951F14
:102E20000296D90111969C938E9382819381139679
:102E30009C938E931297E0E0F0E08A819B8100974B
:102E400019F0FE01EC01F9CFCE01029628813981FB
:102E5000820F931F2091CF013091D001281739079D
:102E600069F4309729F41092D2011092D10102C076
:102E700013821282D093D001C093CF01DF91CF9102
:102E80000895FB01DC0102C001900D9241505040B9
:102E9000D8F70895DC0101C06D9341505040E0F730
:062EA0000895F894FFCF35
:102EA60004000600040005000400050006000700F3
:102EB6000000D30120000045434D6F746F72436FCD
:102EC6006D6D616E640049444C4500546D7220532B
:042ED600766300001F
:00000001FF
