:100000000C94D7000C94FF000C94FF000C94FF009C
:100010000C94FF000C94FF000C94FF000C94FF0064
:100020000C94FF000C94FF000C94FF000C94FF0054
:100030000C9486210C94FF000C94FF000C94FF009C
:100040000C94FF000C94FF000C94FF000C94FF0034
:100050000C94FF000C94FF000C94FF000C94FF0024
:100060000C94FF000C94FF000C94FF000C94FF0014
:100070000C94FF000C94FF000C94FF000C94FF0004
:100080000C94FF000C94FF000C94FF000C94FF00F4
:100090000C94A31C0C94FF000C94FF000C94FF0024
:1000A0000C94FF000C94FF000C94FF008830883003
:1000B00088304C30B230C030883088304C30B2306C
:1000C000036EDB363D9A9999993DABAAAA2A3E0068
:1000D0000000803F084AD73B3BCE016E84BCBFFD89
:1000E000C12F3D6C74319ABD56833DDA3D00C77F08
:1000F00011BED9E4BB4C3E916BAAAABE00000080A1
:100100003F072C7AA5BA6CC590DA3B9365FC8BBC93
:1001100053F810FD3C5692834DBD879D3AB63DCBBA
:10012000C9BF5BBE73DA0FC93F07634236B79BD8BE
:10013000A71A39685618AEBAAB558C1D3CB7CC57C8
:1001400063BD6DEDFD753EF6177231BF0000008096
:100150003F08000000BE922449123EABAAAA2ABE64
:10016000CDCCCC4C3E00000080BEABAAAAAA3E007B
:10017000000000BF000000803F00000000000841B8
:1001800078D3BB4387D1133D190E3CC3BD4282AD2A
:100190002B3E68EC8276BED98FE1A93E4C80EFFF02
:1001A000BE01C4FF7F3F000000000000E81D1124D5
:1001B0001FBECFEFDAE0DEBFCDBF11E0A0E0B1E0BF
:1001C000E8E9FDE602C005900D92A434B107D9F725
:1001D00023E0A4E4B1E001C01D92A539B207E1F724
:1001E00011E0CEEAD1E004C02297FE010E940A315C
:1001F000CC3AD107C9F70E94D01D0C94CA360C9492
:10020000000087B1806C87B9579A269AE2ECF0E03B
:10021000808189608083E0ECF0E08081836A808364
:10022000E1ECF0E0808187608083E3ECF0E08081A6
:10023000816080838FEF8093D100E0E9F0E08081DE
:1002400080688083E1E9F0E08081836180838FEFC3
:1002500090E090939700809396000895E0ECF0E092
:100260008081806A8083E2ECF0E080818860808316
:10027000E0E9F0E0808180688083089580914E02FB
:1002800090914F028093D20080914A0290914B024C
:100290008093D00080915002909151028093CF00C2
:1002A00080914C0290914D02909399008093980018
:1002B000089543355105D1F410924F0210924E0229
:1002C00010924B0210924A02109251021092500268
:1002D00010924D0210924C028BB18F7A8BB985B17E
:1002E0008F7C85B981B38F7081BB50C081309105FF
:1002F000D9F01CF4892B39F008958230910529F149
:100300000397A1F1089570E070934F0260934E023D
:100310004234510531F046345105D1F55C9A5E986E
:1003200008955C985E9A089570E070934B02609314
:100330004A024234510531F04634510549F52C9AB0
:100340002D9808952C982D9A089570E0709351027D
:10035000609350024234510531F046345105C1F4E6
:100360008C9A8D9808958C988D9A089570E070936A
:100370004D0260934C024234510531F04634510530
:1003800029F48E9A8F9802C08E988F9A0C943E0111
:100390000895E0ECF0E080818F758083E2ECF0E07E
:1003A0008081877F8083E0E9F0E080818F778083A0
:1003B00060914E0270914F0243E550E080E090E082
:1003C0000E94590160914A0270914B0243E550E04E
:1003D00081E090E00E9459016091500270915102B9
:1003E00043E550E082E090E00E94590160914C02A8
:1003F00070914D0243E550E083E090E00C94590188
:100400000E942E0160914E0270914F0246E450E02E
:1004100080E090E00E94590160914A0270914B0285
:1004200046E450E081E090E00E9459016091500262
:100430007091510246E450E082E090E00E94590140
:1004400060914C0270914D0246E450E083E090E0F0
:100450000C9459010E942E0160914E0270914F023E
:1004600042E450E080E090E00E94590160914A022D
:1004700070914B0242E450E081E090E00E9459010B
:10048000609150027091510242E450E082E090E0AD
:100490000E94590160914C0270914D0242E450E07B
:1004A00083E090E00C9459010E942E0160914E026D
:1004B00070914F0242E450E080E090E00E945901C8
:1004C00060914A0270914B0242E450E081E090E07A
:1004D0000E945901609150027091510246E450E02F
:1004E00082E090E00E94590160914C0270914D02AF
:1004F00046E450E083E090E00C9459010E942E0104
:1005000060914E0270914F0246E450E080E090E02E
:100510000E94590160914A0270914B0246E450E0FA
:1005200081E090E00E945901609150027091510267
:1005300042E450E082E090E00E94590160914C0258
:1005400070914D0242E450E083E090E00C94590138
:100550008C3469F034F4823441F0863451F40C94D4
:100560000002823531F40C9454020C942A020C944B
:100570007E020C94C9018AB180658AB984B1806316
:1005800084B980B3806F80BB08958FE790E090932B
:100590004F0280934E0290934B0280934A029093B5
:1005A00051028093500290934D0280934C020C9420
:1005B0003E010E9401010E94BB020E94C5020E94EE
:1005C00000028FE190E00E94C7290E94C9018FE1DB
:1005D00090E00E94C7290E94C5020E942A028FE172
:1005E00090E00E94C7290E94C9018FE190E00E941B
:1005F000C729E3CF08955A9A6EE871E08AEA91E03C
:100600000E9422198091780190917901FC01EE0FEE
:10061000FF1FEE0FFF1FE658FE4F409192015091D1
:10062000930160919401709195014083518362839D
:100630007383019663E070E00E94F4309093790137
:100640008093780120E030E0A90160917A017091F7
:100650007B0180917C0190917D010E94233120914A
:100660007E0130917F0140918001509181010E9473
:100670002331209182013091830140918401509176
:1006800085010E94233120E030E040E450E40E94E4
:10069000043260938A0170938B0180938C01909354
:1006A0008D016093860170938701809388019093F8
:1006B00089015A98089588ED92E00E94D51A81E048
:1006C00090E00E94C7298AEA91E00E94C60F81E06B
:1006D00090E00E94C7298AB18C678AB98BB198E0F3
:1006E00089278BB90E94FB028FE190E00E94C72905
:1006F000F9CF08950895E0918002F0918102808100
:10070000811103C08FEF9FEF0CC0E0918002F09148
:1007100081020580F681E02D0680F781E02D82813F
:1007200093819093580280935702089580916B02B1
:10073000882349F10E944F28C0916C020E9422290F
:10074000CC23A1F30FB6F8940F92E0917102F091CF
:100750007202C681D781CE0102960E94FF1F80914E
:10076000610281508093610280916B02815080937D
:100770006B020F900FBE8F89988D0E947A1FCE0159
:100780000E947A1FD3CF80919402823010F00E9491
:10079000D0200E94E003CACF009721F4809152023A
:1007A000909153020FB6F8940F92FC0127A12230CA
:1007B00019F417A281E001C080E00F900FBE0895E8
:1007C00083EF80937E008FE380937D0080B7877FE7
:1007D00080BF80B7806880BF83B7817F83BF0FB63B
:1007E000F8940F9283B7816083BF0F900FBE8895F6
:1007F00013BE08953F9A479A2FEF80E792E0215069
:1008000080409040E1F700C00000379AF5CF3F9A52
:10081000479A2FEF87EA91E6215080409040E1F718
:1008200000C00000379AF5CFFC0181E0808311827F
:1008300043EC5BEA66E77BE342835383648375831F
:1008400048ED5BE666E77BE3468357836087718705
:1008500042EF54EE64E67BE34287538764877587F3
:1008600008951F93CF93DF931F92CDB7DEB7162F56
:10087000FC016489758988ED92E049830E94131B0D
:10088000612F88ED92E00E942B1B4981642F88ED37
:1008900092E00E942B1B88ED92E00F90DF91CF91A8
:1008A0001F910C94281B48E06DE20C943104FC016C
:1008B000758B648B0C945304AF92BF92CF92DF92EE
:1008C000EF92FF920F931F93CF93DF93EC01162FBC
:1008D0007A0169016C897D8988ED92E00E94131B81
:1008E000612F88ED92E00E942B1B88ED92E00E9420
:1008F000281B6C897D8988ED92E00E94131B6C890E
:100900007D89A70188ED92E00E94041B86015801B1
:10091000AC18BD0888ED92E00E947C1B892B41F049
:1009200088ED92E00E94841BF80181938F01EFCF44
:10093000AE14BF0419F0188281E0898388ED92E03B
:10094000DF91CF911F910F91FF90EF90DF90CF90AB
:10095000BF90AF900C94281BCF92DF92EF92FF9242
:100960000F931F93CF93DF93EC016B017A01890101
:100970009C01225F3F4F46E050E062E30E945C042E
:100980008F8590E0982F88272E85822BF601918302
:100990008083898990E0982F88272889822BF70106
:1009A000918380838B8990E0982F88272A89822BD6
:1009B000F80191838083DF91CF911F910F91FF9078
:1009C000EF90DF90CF9008959B012C5F3F4FAB01DC
:1009D0004E5F5F4F0C94AC04AF92BF92CF92DF9208
:1009E000EF92FF920F931F93CF93DF9300D000D02D
:1009F00000D0CDB7DEB77C015B01BE016F5F7F4FDA
:100A00000E94E404CE0101966C01870175015E012C
:100A100097E0A90EB11CF601619171916F018827D1
:100A200077FD8095982F0E949F32F80122813381B3
:100A3000448155810E94AB33F70161937193819397
:100A400091937F010C5F1F4FCA14DB0421F7269698
:100A50000FB6F894DEBF0FBECDBFDF91CF911F91CF
:100A60000F91FF90EF90DF90CF90BF90AF900895DF
:100A70000F931F93CF93DF931F92CDB7DEB78B01F8
:100A80009E012F5F3F4F41E050E061E30E945C0414
:100A900089818370F80180830F90DF91CF911F913E
:100AA0000F910895FF920F931F93CF93DF931F929F
:100AB000CDB7DEB78C01645071096D30710528F433
:100AC000FB01EE5DFE4FF08001C0F12C9E012F5F17
:100AD0003F4F41E050E061E3C8010E945C0449815E
:100AE0004C7E4F2961E3C8010E9431040F90DF91D1
:100AF000CF911F910F91FF9008956F3F710534F4CE
:100B0000AB0177FF05C040E050E002C04FEF50E07E
:100B10006DE10C943104CF93DF931F92CDB7DEB714
:100B20009E012F5F3F4F41E050E06DE10E945C0469
:100B3000898190E00F90DF91CF910895FC01DB0156
:100B40004D915D916D917C911397428353836483A2
:100B5000758314964D915D916D917C9117974683A5
:100B600057836087718718964D915D916D917C9147
:100B70001B9742875387648775870895CF93DF93C8
:100B8000FC01EB0142815381648175814883598363
:100B90006A837B8346815781608571854C835D8341
:100BA0006E837F8382859385A485B58588879987A1
:100BB000AA87BB87DF91CF910895EF92FF921F9391
:100BC000CF93DF931F92CDB7DEB77C01142F462F52
:100BD0006EE129830E943104412F6FE1C7010E9419
:100BE00031042981422F60E2C7010F90DF91CF913C
:100BF0001F91FF90EF900C943104AF92BF92CF926F
:100C0000DF92EF92FF920F931F93CF93DF931F9288
:100C1000CDB7DEB78C015B016A0179019E012F5FC0
:100C20003F4F41E050E06EE10E945C04898190E01A
:100C3000F501918380839E012F5F3F4F41E050E09B
:100C40006FE1C8010E945C04898190E0F601918304
:100C500080839E012F5F3F4F41E050E060E2C8017A
:100C60000E945C04898190E0F701918380830F905A
:100C7000DF91CF911F910F91FF90EF90DF90CF9078
:100C8000BF90AF9008956F3F710534F4AB0177FFCB
:100C900005C040E050E002C04FEF50E061E20C942C
:100CA0003104CF93DF931F92CDB7DEB79E012F5F44
:100CB0003F4F41E050E061E20E945C04898190E096
:100CC0000F90DF91CF910895462F62E20C9431048A
:100CD000CF93DF931F92CDB7DEB79E012F5F3F4FBB
:100CE00041E050E062E20E945C04898190E00F9054
:100CF000DF91CF9108956F3F710534F4AB0177FF19
:100D000005C040E050E002C04FEF50E063E20C94B9
:100D10003104CF93DF931F92CDB7DEB79E012F5FD3
:100D20003F4F41E050E063E20E945C04898190E023
:100D30000F90DF91CF9108956F3F710534F4AB01AF
:100D400077FF05C040E050E002C04FEF50E064E2A2
:100D50000C943104CF93DF931F92CDB7DEB79E0181
:100D60002F5F3F4F41E050E064E20E945C048981C4
:100D700090E00F90DF91CF9108956F3F710534F4AB
:100D8000AB0177FF05C040E050E002C04FEF50E0FC
:100D900065E20C943104CF93DF931F92CDB7DEB799
:100DA0009E012F5F3F4F41E050E065E20E945C04EE
:100DB000898190E00F90DF91CF9108956F3F710589
:100DC00034F4AB0177FF05C040E050E002C04FEFC4
:100DD00050E066E20C943104CF93DF931F92CDB7BD
:100DE000DEB79E012F5F3F4F41E050E066E20E9478
:100DF0005C04898190E00F90DF91CF9108956F3F5F
:100E0000710534F4AB0177FF05C040E050E002C04B
:100E10004FEF50E068E20C943104CF93DF931F92C0
:100E2000CDB7DEB79E012F5F3F4F41E050E068E253
:100E30000E945C04898190E00F90DF91CF9108952A
:100E40006F3F710534F4AB0177FF05C040E050E01F
:100E500002C04FEF50E069E20C943104CF93DF936E
:100E60001F92CDB7DEB79E012F5F3F4F41E050E0AC
:100E700069E20E945C04898190E00F90DF91CF913C
:100E80000895CF93DF931F92CDB7DEB79E012F5FFA
:100E90003F4F41E050E06CE20E945C0469816F705A
:100EA00070E066507109882777FD8095982F0E9421
:100EB0009F329B01AC0160E070E080E090E40E9412
:100EC0000E3420E030E048EC50E40E94AB330F9049
:100ED000DF91CF910895EF92FF920F931F93CF93DD
:100EE000DF931F92CDB7DEB78C01CB01BA0120E0B2
:100EF00030E048EC50E40E9404320E946C32E12C55
:100F0000F12C759567956115710521F08FEFE81A41
:100F1000F80AF7CF8AE0E816F10494F49E012F5FF7
:100F20003F4F41E050E06CE2C8010E945C0446E0A3
:100F30004E0D8981807F482B6CE2C8010E943104EC
:100F40000F90DF91CF911F910F91FF90EF90089537
:100F5000462F2AEF260F2A3028F0FC01108222E0CB
:100F6000218308956CE20C943104CF93DF931F9298
:100F7000CDB7DEB79E012F5F3F4F41E050E06CE2FE
:100F80000E945C0489810F90DF91CF910895CF93E7
:100F9000DF931F92CDB7DEB79E012F5F3F4F41E039
:100FA00050E060E30E945C0489810F90DF91CF9153
:100FB0000895DF92EF92FF920F931F93CF93DF93E9
:100FC0001F92CDB7DEB78C01F62EE42ED22E9E01F5
:100FD0002F5F3F4F41E050E00E945C04898121E097
:100FE00030E00E2C01C0220F0A94EAF7DD2011F048
:100FF000282B02C020952823298349816F2DC80101
:101000000E9431040F90DF91CF911F910F91FF90BB
:10101000EF90DF900895262F47E050E061E30C94B5
:10102000D907262F46E050E061E30C94D907262F1C
:1010300045E050E061E30C94D907262F43E050E0EF
:1010400061E30C94D907262F42E050E061E30C9451
:10105000D907262F46E050E067E20C94D907262FE7
:1010600045E050E067E20C94D907262F44E050E0B9
:1010700067E20C94D907262F42E050E067E20C9417
:10108000D907262F41E050E067E20C94D907262FBC
:1010900040E050E067E20C94D907262F47E050E08B
:1010A00067E20C94D907262F43E050E067E20C94E6
:1010B000D907262F43E050E06AE20C94D907262F87
:1010C00042E050E06AE20C94D907262F41E050E05C
:1010D0006AE20C94D907262F40E050E06AE20C94B3
:1010E000D907262F44E050E06CE20C94D907242F56
:1010F000462F50E06FE20C94D907242F462F50E082
:101100006EE20C94D9071F93CF93DF931F92CDB754
:10111000DEB7142F9E012F5F3F4F41E050E00E9449
:101120005C04898190E002C0959587951A95E2F755
:1011300081700F90DF91CF911F91089547E050E0AB
:1011400061E30C94830846E050E061E30C9483086B
:1011500045E050E061E30C94830843E050E061E334
:101160000C94830842E050E061E30C94830846E06D
:1011700050E067E20C94830845E050E067E20C948D
:10118000830844E050E067E20C94830842E050E0BA
:1011900067E20C94830841E050E067E20C94830816
:1011A00040E050E067E20C94830847E050E067E2DB
:1011B0000C94830843E050E067E20C94830843E01A
:1011C00050E06AE20C94830842E050E06AE20C943A
:1011D000830841E050E06AE20C94830840E050E06C
:1011E0006AE20C94830846E050E06BE20C948308BA
:1011F00045E050E06BE20C94830844E050E06BE281
:101200000C94830842E050E06BE20C94830841E0C8
:1012100050E06BE20C94830840E050E06BE20C94E9
:10122000830843E050E06BE20C94830844E050E014
:101230006CE20C948308462F50E060E30C94830822
:10124000462F50E06FE20C948308462F50E06EE288
:101250000C94830808950895FC0140E050E060E894
:101260007FE3408351836283738344835583668322
:101270007783408751876287738715861486178620
:101280001686118A108A428B538B648B758B468B22
:10129000578B608F718F428F538F648F758F089536
:1012A000FC01868D08950F931F93FC01822F662306
:1012B00029F000E010E020E83FEB04C000E010E07F
:1012C00020E83FE3028B138B248B358B442329F0DA
:1012D00040E050E060E87FEB04C040E050E060E8B0
:1012E0007FE3468B578B608F718F882329F040E016
:1012F00050E060E87FEB04C040E050E060E87FE34E
:10130000428F538F648F758F1F910F910895CF92E5
:10131000DF92EF92FF920F931F93FC014083518362
:10132000628373830483158326833783C086D186C3
:10133000E286F3861F910F91FF90EF90DF90CF90A0
:101340000895FC017587648757874687318B208B0A
:1013500008951F93CF93DF931F92CDB7DEB7162F5B
:10136000FC01668D88ED92E049830E94091B612F84
:1013700088ED92E00E942B1B4981642F88ED92E05A
:101380000E942B1B88ED92E00F90DF91CF911F916F
:101390000C94281B1F93CF93DF93EC01162F462F3D
:1013A00060E00E94A9091E8FDF91CF911F910895DF
:1013B000462F65E10C94A90940E86EE30E94A90953
:1013C00086E490E0EFE9FFE03197F1F700C000001C
:1013D00001970097B9F70895CF92DF92FF920F938C
:1013E0001F93CF93DF931F92CDB7DEB76C01F62E1C
:1013F0008901FC01668D88ED92E049830E94091BFA
:101400006F2D88ED92E00E942B1B88ED92E00E94E8
:10141000281BF601668D88ED92E00E94091B498128
:10142000F601668D88ED92E00E94011BF12C88ED9B
:1014300092E00E947C1B892B59F06801CF0CD11CD3
:1014400088ED92E00E94841BF6018083F394EFCF35
:1014500088ED92E00F90DF91CF911F910F91FF9057
:10146000DF90CF900C94281BCF93DF93EC019C016D
:10147000215E3F4F41E065E10E94EC098F8DDF91D5
:10148000CF910895CF93DF93EC019C01215E3F4FF4
:1014900041E066E10E94EC098F8D88718695869502
:1014A0008695DF91CF9108951F93CF93DF93EC0141
:1014B000162F9C01215E3F4F41E066E10E94EC093E
:1014C00088E0189FB00111244F8D477E462B66E1BE
:1014D000CE01DF91CF911F910C94A909CF93DF9397
:1014E000EC019C01215E3F4F41E066E10E94EC0966
:1014F0008F8D8770DF91CF9108951F93CF93DF93E6
:10150000EC01162F9C01215E3F4F41E066E10E94F5
:10151000EC094F8D487F412B66E1CE01DF91CF91E1
:101520001F910C94A909CF93DF93EC019C01215EDC
:101530003F4F41E067E10E94EC099F8D892F881F92
:101540008827881FDF91CF9108951F93CF93DF9352
:10155000EC01162F9C01215E3F4F41E067E10E94A4
:10156000EC094F8D10FB47F967E1CE01DF91CF9178
:101570001F910C94A909CF93DF93EC019C01215E8C
:101580003F4F41E067E10E94EC098F8D86FB882781
:1015900080F9DF91CF9108951F93CF93DF93EC01F2
:1015A000162F9C01215E3F4F41E067E10E94EC094C
:1015B00080E4189FB00111244F8D4F7B462B67E1CB
:1015C000CE01DF91CF911F910C94A909CF93DF93A6
:1015D000EC019C01215E3F4F41E067E10E94EC0974
:1015E0008F8D85FB882780F9DF91CF9108951F9318
:1015F000CF93DF93EC01162F9C01215E3F4F41E01A
:1016000067E10E94EC0980E2189FB00111244F8D20
:101610004F7D462B67E1CE01DF91CF911F910C9456
:10162000A909CF93DF93EC019C01215E3F4F41E07C
:1016300067E10E94EC098F8D82958170DF91CF91D7
:1016400008951F93CF93DF93EC01162F9C01215E29
:101650003F4F41E067E10E94EC0980E1189FB00133
:1016600011244F8D4F7E462B67E1CE01DF91CF9144
:101670001F910C94A909CF93DF93EC019C01215E8B
:101680003F4F41E067E10E94EC098F8D82FB882784
:1016900080F9DF91CF9108951F93CF93DF93EC01F1
:1016A000162F9C01215E3F4F41E067E10E94EC094B
:1016B00084E0189FB00111244F8D4B7F462B67E1CA
:1016C000CE01DF91CF911F910C94A909CF93DF93A5
:1016D000EC019C01215E3F4F41E067E10E94EC0973
:1016E0008F8D8170DF91CF9108951F93CF93DF93FA
:1016F000EC01162F9C01215E3F4F41E067E10E9403
:10170000EC094F8D4E7F412B67E1CE01DF91CF91E8
:101710001F910C94A909CF93DF93EC019C01215EEA
:101720003F4F41E06AE10E94EC098F8D82FB8827E0
:1017300080F9DF91CF910895CF93DF93EC019C0165
:10174000215E3F4F41E06AE10E94EC098F8D81707C
:10175000DF91CF9108950F931F93CF93DF938C0167
:10176000EB019C01215E3F4F42E06BE10E94EC09DE
:10177000F801678D70E0762F662780A1682B60578F
:101780007C4C882777FD8095982F0E949F3220E01F
:1017900030E04CE853E40E94043220E030E04CE0BA
:1017A00052E40E942331688379838A839B83DF918B
:1017B000CF911F910F910895CF92DF92EF92FF92F8
:1017C0000F931F93CF93DF93EC018B016A01790193
:1017D0009C01215E3F4F46E06DE10E94EC098F8D38
:1017E00090E0982F882728A1822BF801918380838D
:1017F00089A190E0982F88272AA1822BF601918356
:1018000080838BA190E0982F88272CA1822BF70151
:1018100091838083DF91CF911F910F91FF90EF9083
:10182000DF90CF9008959B012C5F3F4FAB014E5F3F
:101830005F4F0C94DC0B2F923F924F925F926F920E
:101840007F928F929F92AF92BF92CF92DF92EF9250
:10185000FF920F931F93CF93DF93CDB7DEB72C97F3
:101860000FB6F894DEBF0FBECDBF1C0178876F8323
:101870005C874B87C12CD12C76014601570126018C
:10188000370100E010E08F8198850817190709F4E7
:1018900048C080E090E02B853C858217930744F494
:1018A000EFE9FFE03197F1F700C000000196F3CFB8
:1018B000BE016F5F7F4FC1010E94130C69817A8165
:1018C000882777FD8095982F0E949F329B01AC015D
:1018D000C301B2010E9423312B013C016B817C8149
:1018E000882777FD8095982F0E949F329B01AC013D
:1018F000C501B4010E9423314B015C016D817E81E1
:10190000882777FD8095982F0E949F329B01AC011C
:10191000C701B6010E9423316B017C010F5F1F4F8D
:10192000B2CFB80180E090E00E949D326F8378874B
:1019300089879A87C301B20190582F8138854985DC
:101940005A850E9404320E946C32F10175876487C7
:10195000C501B40190582F81388549855A850E9468
:1019600004320E946C32F10177876687C701B601A5
:1019700090582F81388549855A850E9404320E94EB
:101980006C32F101718B608B2C960FB6F894DEBF30
:101990000FBECDBFDF91CF911F910F91FF90EF90C0
:1019A000DF90CF90BF90AF909F908F907F906F907F
:1019B0005F904F903F902F900895CF92DF92EF92DB
:1019C000FF920F931F93CF93DF93EC016B017A018A
:1019D00089010E94DC0BF601808191812C853D8577
:1019E000820F931F91838083F701808191812E85DF
:1019F0003F85820F931F91838083F80180819181BD
:101A000028893989820F931F91838083DF91CF9139
:101A10001F910F91FF90EF90DF90CF9008959B0161
:101A20002C5F3F4FAB014E5F5F4F0C94DD0CAF92CC
:101A3000BF92CF92DF92EF92FF920F931F93CF93BB
:101A4000DF9300D000D000D0CDB7DEB78C015B01B2
:101A50006A0179019E012F5F3F4FAE014D5F5F4FDD
:101A6000BE016B5F7F4F0E94DD0C6D817E818827F8
:101A700077FD8095982F0E949F3220E030E046E667
:101A800051E40E940432F80122893389448955893E
:101A90000E94AB33F80120813181428153810E9441
:101AA000AB33F50160837183828393836B817C8187
:101AB000882777FD8095982F0E949F3220E030E0A4
:101AC00046E651E40E940432F80126893789408DA8
:101AD000518D0E94AB33F8012481358146815781B5
:101AE0000E94AB33F60160837183828393836981A3
:101AF0007A81882777FD8095982F0E949F3220E079
:101B000030E046E651E40E940432F801228D338D24
:101B1000448D558D0E94AB33F80120853185428577
:101B200053850E94AB33F701608371838283938373
:101B300026960FB6F894DEBF0FBECDBFDF91CF91D2
:101B40001F910F91FF90EF90DF90CF90BF90AF90DB
:101B500008959B01285F3F4FAB014C5F5F4F0C9492
:101B6000170DCF93DF93EC019C01215E3F4F41E0C5
:101B70006EE30E94EC098F8D86FB882780F9DF9148
:101B8000CF9108951F93CF93DF93EC01162F9C0103
:101B9000215E3F4F41E06EE30E94EC0980E4189F14
:101BA000B00111244F8D4F7B462B6EE3CE01DF91A8
:101BB000CF911F910C94A909CF93DF93EC019C0165
:101BC000215E3F4F41E06EE30E94EC098F8D85FB63
:101BD000882780F9DF91CF910895CF93DF93EC01AF
:101BE0009C01215E3F4F41E06EE30E94EC098F8D26
:101BF00082958170DF91CF910895CF93DF93EC01AF
:101C00009C01215E3F4F41E06EE30E94EC098F8D05
:101C100083FB882780F9DF91CF9108951F93CF939D
:101C2000DF93EC01162F9C01215E3F4F41E06EE3F4
:101C30000E94EC0980E2189FB00111244F8D407280
:101C4000462B6EE3CE01DF91CF911F910C94A90931
:101C50001F93CF93DF93EC01162F9C01215E3F4F22
:101C600041E06EE30E94EC0980E1189FB00111246D
:101C70004F8D4071462B6EE3CE01DF91CF911F91C6
:101C80000C94A9091F93CF93DF93EC01162F9C01AD
:101C9000215E3F4F41E06EE30E94EC0988E0189F0F
:101CA000B00111244F8D4870462B6EE3CE01DF91B9
:101CB000CF911F910C94A909CF93DF93EC019C0164
:101CC000215E3F4F41E06EE30E94EC098F8D8770EB
:101CD000DF91CF9108951F93CF93DF93EC01162FDF
:101CE0009C01215E3F4F41E06EE30E94EC094F8D65
:101CF000487F412B6EE3CE01DF91CF911F910C9471
:101D0000A9098F929F92AF92CF92EF920F93CF93A8
:101D1000DF931F92CDB7DEB74C01FC01668F642FB5
:101D200029830E94D8092981622FC4010E94540A84
:101D3000602FC4010E947D0A6E2DC4010E946B0EAB
:101D40006C2DC4010E944C0B6A2DC4010E94750BBE
:101D500086E490E0EFE9FFE03197F1F700C0000082
:101D600001970097B9F70F90DF91CF910F91EF9006
:101D7000CF90AF909F908F900895AF92CF92EF92B7
:101D80000F93AA24A394CC24C394EE24E39400E0FC
:101D900023E040E00E94810E0F91EF90CF90AF9032
:101DA00008953FB7F8948091D4029091D502A09104
:101DB000D602B091D70226B5A89B02C02F3F89F466
:101DC0003FBF6627782F892F9A2F620F711D811DC3
:101DD000911D42E0660F771F881F991F4A95D1F722
:101DE00008950196A11DB11DEBCFEF92FF920F93C5
:101DF0001F93CF93DF93CDB7DEB7A5970FB6F894B7
:101E0000DEBF0FBECDBF8C010E941404780186E1B5
:101E1000E80EF11CC7010E942C09CE0101960E9418
:101E2000140486E1FE013196D80101900D928A9545
:101E3000E1F7CE0101960E942C0985E2FE01319660
:101E4000D70101900D928A95E1F7F801EB59FF4F08
:101E500040E050E060E87FE3408351836283738316
:101E6000349610821182128213823496108211826B
:101E70001282138234961082118212821382B097DA
:101E80001082118212821382349610821182128281
:101E90001382349610821182128213823496408308
:101EA00051836283738334964DEC5CEC6CE47EE387
:101EB00040835183628373837496108211821282ED
:101EC0001382349610821182128213823496108209
:101ED000118212821382349610821182128213822E
:101EE00034961082118212821382A5960FB6F8944E
:101EF000DEBF0FBECDBFDF91CF911F910F91FF903D
:101F0000EF9008950F931F93CF93DF93EC018A0115
:101F10008FE99FE00197F1F700C000008FE99FE093
:101F20000197F1F700C000008FE99FE00197F1F7FA
:101F300000C000008FE99FE00197F1F700C00000AA
:101F40008FE99FE00197F1F700C00000CE010E94E9
:101F500057046696B801CE010E94BD0E28EE33E00C
:101F60008FE99FE00197F1F700C00000215031098F
:101F700021153105A9F745E050E060E870E0CE0199
:101F8000DF91CF911F910F910C941B0C20E048E63C
:101F900050E063E570E00C94820F262F48E650E095
:101FA00063E570E00C94820F0F931F93CF93DF9340
:101FB0008C01EB019B012C5F3F4FAB014E5F5F4FEC
:101FC0000E94AC049E01265F3F4FAE01485F5F4F09
:101FD000BE016A5F7F4FC8014696DF91CF911F9186
:101FE0000F910C94DC0BEF92FF920F931F93CF9302
:101FF000DF9300D000D000D0CDB7DEB77C018B01DD
:102000009E012B5F3F4FAE014D5F5F4FBE016F5F83
:102010007F4F0E94AC0469817A81882777FD809583
:10202000982F0E949F32F80160837183828393838B
:102030006B817C81882777FD8095982F0E949F3245
:10204000F80164837583868397836D817E818827F9
:1020500077FD8095982F0E949F32F80160877187E5
:1020600082879387B801645F7F4FC70146960E94BD
:10207000A90D26960FB6F894DEBF0FBECDBFDF9137
:10208000CF911F910F91FF90EF9008954F925F9223
:102090006F927F928F929F92AF92BF92CF92DF9278
:1020A000EF92FF92CF93DF93CDB7DEB760970FB675
:1020B000F894DEBF0FBECDBF6B017C0180E090E0E5
:1020C000A0ECBFE389839A83AB83BC8320E030E03C
:1020D00040E05FE3C701B6010E94AB3369877A87AE
:1020E0008B879C87CD82DE82EF82F8868D819E81F0
:1020F000AF81B8858D879E87AF87B88B4D855E850C
:102100006F857889759567955795479586E89AE51F
:10211000A7E3BFE5841B950BA60BB70B8D879E87A6
:10212000AF87B88B8D859E85AF85B8898D839E835B
:10213000AF83B887CD80DE80EF80F88489809A8075
:10214000AB80BC8069857A858B859C852D813E819D
:102150004F8158854D805E806F8078840E94AB33BC
:10216000A30192010E94AB339B01AC01C501B401F4
:102170000E9422319B01AC01C701B6010E94AB3322
:102180006D837E838F8398876D817E818F81988513
:1021900060960FB6F894DEBF0FBECDBFDF91CF9132
:1021A000FF90EF90DF90CF90BF90AF909F908F9077
:1021B0007F906F905F904F9008952F923F924F9233
:1021C0005F926F927F928F929F92AF92BF92CF92C7
:1021D000DF92EF92FF920F931F93CF93DF93CDB7D0
:1021E000DEB7C454D1090FB6F894DEBF0FBECDBF21
:1021F0001C014D875E876F87788B098B1A8B2B8B21
:102200003C8B6D964CAC5DAC6EAC7FAC6D97FC01BD
:10221000EB59FF4F208131814281538129873A87D1
:102220004B875C8740815181628173814D8F5E8FC6
:102230006F8F78A36081718182819381698F7A8F9A
:102240008B8F9C8F810107591F4FD8018D919D91D4
:102250000D90BC91A02D89A39AA3ABA3BCA3208110
:102260003181428153812DA33EA34FA358A79101F1
:1022700023593F4FD9014D915D916D917C9149A7B3
:102280005AA76BA77CA740815181628173813C96DC
:102290004081518162817381D8014D915D916D9131
:1022A0007C9113974D915D916D917C9113974D9118
:1022B0005D916D917C91D9014D915D916D917C9174
:1022C000D8014D915D916D917C914DA75EA76FA74F
:1022D00078AB408151816281738149AB5AAB6BAB62
:1022E0007CABD9014D915D916D917C9113974D918E
:1022F0005D916D917C9113974D915D916D917C9164
:102300004DAB5EAB6FAB78AF2081318142815381A1
:1023100029AF3AAF4BAF5CAF40815181628173818D
:1023200021964CAF5DAF6EAF7FAF21976081718119
:102330008281938125966CAF7DAF8EAF9FAF25973D
:1023400020E030E0A901C501B4010E9400328823D9
:1023500009F487C220E030E0A901C301B2010E9464
:102360000032882309F47DC220E030E0A901A19663
:102370006CAD7DAD8EAD9FADA1970E9400328823DC
:1023800009F46FC2A5019401C501B4010E94AB33E9
:1023900069837A838B839C83A3019201C301B20179
:1023A0000E94AB339B01AC0169817A818B819C8156
:1023B0000E94233169837A838B839C83A1962CAD01
:1023C0003DAD4EAD5FADA197CA01B9010E94AB33DF
:1023D0009B01AC0169817A818B819C810E942331B0
:1023E0000E94461069837A838B839C839B01AC0196
:1023F000C501B4010E94AB336D8B7E8B8F8B988FA0
:1024000029813A814B815C81C301B2010E94AB33C7
:102410002B013C0129813A814B815C81A1966CADF5
:102420007DAD8EAD9FADA1970E94AB334B015C019A
:1024300029A93AA94BA95CA96DA57EA58FA598A944
:102440000E94AB336D837E838F83988729A53AA53D
:102450004BA55CA56DA17EA18FA198A50E94AB3371
:102460009B01AC016D817E818F8198850E94223114
:102470006D837E838F83988729A13AA14BA15CA1AC
:10248000698D7A8D8B8D9C8D0E94AB3369837A83A5
:102490008B839C8329AD3AAD4BAD5CAD6DA97EA914
:1024A0008FA998AD0E94AB339B01AC0169817A8101
:1024B0008B819C810E942331698F7A8F8B8F9C8FB7
:1024C0002D8D3E8D4F8D58A169857A858B859C8594
:1024D0000E94AB3320E030E040E05FE30E94223115
:1024E00069837A838B839C8325962CAD3DAD4EAD5D
:1024F0005FAD259721966CAD7DAD8EAD9FAD2197DB
:102500000E94AB339B01AC0169817A818B819C81F4
:102510000E94233169877A878B879C879B01AC0156
:10252000C301B2010E94AB3369837A838B839C839E
:10253000298D3A8D4B8D5C8DC501B4010E94AB3362
:102540009B01AC0169817A818B819C810E9422313F
:1025500020E030E0A9010E94233169837A838B83D4
:102560009C832D813E814F815885C501B4010E9415
:10257000AB334B015C0129853A854B855C856D89C0
:102580007E898F89988D0E94AB339B01AC01C50178
:10259000B4010E94223120E030E0A9010E942331E1
:1025A00069877A878B879C87298D3A8D4B8D5C8DC7
:1025B0006D897E898F89988D0E94AB334B015C01B8
:1025C0002D813E814F815885C301B2010E94AB33FA
:1025D0009B01AC01C501B4010E94223120E030E032
:1025E000A9010E9423316D8B7E8B8F8B988F20E009
:1025F00030E0A90169817A818B819C810E9400323F
:10260000882309F42EC120E030E0A90169857A858C
:102610008B859C850E940032882309F422C120E02A
:1026200030E0A9016D897E898F89988D0E940032E2
:10263000882309F416C108501109D8016D917D91C4
:102640008D919C9120E030E0A9010E94A033F1011E
:10265000EB58FF4FFE83ED8318160CF0ABC0D8018A
:102660004D905D906D907C90749620813181428177
:10267000538160E070E080E89FE30E940432698F3C
:102680007A8F8B8F9C8FED81FE8180809180A280DC
:10269000B38029813A814B815C81C301B2010E94E0
:1026A000AB33298D3A8D4B8D5C8D0E94AB339B01F2
:1026B000AC01C501B4010E942331AD81BE816D938F
:1026C0007D938D939C931397F80160817181828132
:1026D00093812101F9E74F0E511CD2018D909D90FD
:1026E000AD90BC9029853A854B855C850E94AB33C3
:1026F000298D3A8D4B8D5C8D0E94AB339B01AC01D3
:10270000C501B4010E942331F20160837183828389
:102710009383D8016D917D918D919C913101BDE79D
:102720006B0E711CF30180809180A280B3802D8993
:102730003E894F89588D0E94AB33298D3A8D4B8D40
:102740005C8D0E94AB339B01AC01C501B4010E94BA
:102750002331D3016D937D938D939C931397ED81DA
:10276000FE8120813181428153816D857E858F85F7
:1027700098890E9423316D877E878F87988BD2013D
:102780002D913D914D915C9169897A898B899C89C4
:102790000E942331698B7A8B8B8B9C8BF301208178
:1027A000318142815381C701B6010E9423316B01FF
:1027B0007C0113C0AD81BE811D921D921D921C92A1
:1027C0001397F101E758FF4F108211821282138292
:1027D000349610821182128213828101035A1F4F94
:1027E000F801608171818281938129813A814B81D5
:1027F0005C810E94AB339B01AC016D857E858F852A
:1028000098890E9423316D877E878F87988BD801A6
:102810006D917D918D919C9129853A854B855C8543
:102820000E94AB339B01AC0169897A898B899C89B1
:102830000E942331698B7A8B8B8B9C8BF801608192
:102840007181828193812D893E894F89588D0E94A3
:10285000AB339B01AC01C701B6010E9423316B0170
:102860007C01F101E757FF4F208131814281538183
:1028700060E070E080E89FE30E94043220E030E0F6
:1028800040E05FE30E94AB334B015C019B01AC0174
:102890006D857E858F8598890E94AB336D837E839D
:1028A0008F839887A501940169897A898B899C898E
:1028B0000E94AB3369837A838B839C83A501940147
:1028C000C701B6010E94AB3369877A878B879C87E3
:1028D00081010B591F4FD801CD90DD90ED90FC90F8
:1028E000CD8ADE8AEF8AF88EF101E759FF4FFE8725
:1028F000ED87C080D180E280F380C98EDA8EEB8EC6
:10290000FC8E3496FA8BE98BC080D180E280F38014
:10291000CD8EDE8EEF8EF8A2B1E72B0E311CF101C9
:102920004080518062807380D801CD90DD90ED9021
:10293000FC90698D7A8D8B8D9C8D90582D813E8178
:102940004F8158850E94AB334B015C0129813A814C
:102950004B815C816D8D7E8D8F8D98A10E94AB33F4
:102960009B01AC01C501B4010E9422314B015C0105
:1029700029853A854B855C85C301B2010E94AB3342
:102980009B01AC01C501B4010E9422319B01AC0145
:10299000C701B6010E942331F801608371838283ED
:1029A0009383D1014D905D906D907C90ED85FE8577
:1029B000C080D180E280F3802D813E814F81588597
:1029C0006D897E898F89988D0E94AB334B015C01A4
:1029D00029853A854B855C856D8D7E8D8F8D98A17F
:1029E0000E94AB339B01AC01C501B4010E942331AD
:1029F0004B015C0129813A814B815C81C301B201A9
:102A00000E94AB339B01AC01C501B4010E9422318D
:102A10009B01AC01C701B6010E942331AD85BE8583
:102A20006D937D938D939C931397F101408051801A
:102A300062807380A989BA89CD90DD90ED90FC9079
:102A400029813A814B815C816D897E898F89988D3E
:102A50000E94AB334B015C0129853A854B855C852F
:102A6000698D7A8D8B8D9C8D0E94AB339B01AC015F
:102A7000C501B4010E9422314B015C012D813E81D0
:102A80004F815885C301B2010E94AB339B01AC0159
:102A9000C501B4010E9423319B01AC01C701B601FD
:102AA0000E942331E989FA89608371838283938349
:102AB000D101CD90DD90ED90FC9029853A854B8534
:102AC0005C856D897E898F89988D0E94AB334B011F
:102AD0005C0129813A814B815C81698D7A8D8B8D76
:102AE0009C8D0E94AB339B01AC01C501B4010E94D7
:102AF00023314B015C012D813E814F8158856D8DC5
:102B00007E8D8F8D98A10E94AB339B01AC01C501D6
:102B1000B4010E9422319B01AC01C701B6010E94A1
:102B20002331F1016083718382839383D8016D9196
:102B30007D918D919C9113972D913D914D915C913B
:102B4000ED85FE8580809180A280B3804080518099
:102B500062807380A989BA89CD90DD90ED90FC9058
:102B60001397CD82DE82EF82F886CD90DD90ED90D6
:102B7000FC90C982DA82EB82FC82D101CD90DD909B
:102B8000ED90FC901397C986DA86EB86FC86CD9093
:102B9000DD90ED90FC90CD8ADE8AEF8AF88E0E945F
:102BA000AB336B017C01A3019201C501B4010E940A
:102BB000AB339B01AC01C701B6010E9423316B010D
:102BC0007C0129813A814B815C816D817E818F817D
:102BD00098850E94AB339B01AC01C701B6010E94EE
:102BE00023316B017C012D893E894F89588D698580
:102BF0007A858B859C850E94AB339B01AC01C70114
:102C0000B6010E9423310E9446106B017C01F8013D
:102C10006081718182819381A70196010E94AB330B
:102C2000D8016D937D938D939C931397ED85FE85CD
:102C30006081718182819381A70196010E94AB33EB
:102C4000AD85BE856D937D938D939C931397E98994
:102C5000FA896081718182819381A70196010E9426
:102C6000AB33A989BA896D937D938D939C93139708
:102C7000F1016081718182819381A70196010E9497
:102C8000AB33D1016D937D938D939C931397CC5B64
:102C9000DF4F0FB6F894DEBF0FBECDBFDF91CF91EF
:102CA0001F910F91FF90EF90DF90CF90BF90AF906A
:102CB0009F908F907F906F905F904F903F902F905C
:102CC00008952F923F924F925F926F927F928F92D0
:102CD0009F92AF92BF92CF92DF92EF92FF920F93AB
:102CE0001F93CF93DF93CDB7DEB7A6970FB6F894B7
:102CF000DEBF0FBECDBF3C017EA36DA3BE016F5FE3
:102D00007F4F0E94F30F0E94D10E6B017C01F301F3
:102D1000EB57FF4F6083718382839383130129E80C
:102D2000220E311C230131E8430E511CF201808137
:102D30009181A281B381A7019601281B390B4A0B0F
:102D40005B0BCA01B9010E949D3220E034E244E7E6
:102D500059E40E9404329B01AC0160E070E080E81D
:102D60009FE30E940432F101608371838283938325
:102D7000F201C082D182E282F38289809A80AB80A4
:102D8000BC802BED3FE049E450E46D897E898F895A
:102D9000988D0E94AB3320E030E044E353E40E947E
:102DA00004326B017C012BED3FE049E450E469897A
:102DB0007A898B899C890E94AB3320E030E044E320
:102DC00053E40E9404321B012C012BED3FE049E447
:102DD00050E46D857E858F8598890E94AB3320E015
:102DE00030E044E353E40E940432AB01BC011F9283
:102DF0001F921F921F921F921F921F921F921F924B
:102E00001F921F921F928C858F938B858F938A853B
:102E10008F9389858F9388858F938F818F938E81F0
:102E20008F938D818F9392018101C3010E94DD10E8
:102E3000F301EB59FF4F80819181A281B381EDA114
:102E4000FEA180839183A283B383F301E759FF4FEF
:102E500080819181A281B381EDA1FEA184839583BC
:102E6000A683B783F301E359FF4F80819181A2814B
:102E7000B381EDA1FEA180879187A287B387F3017B
:102E8000EF58FF4F80819181A281B381EDA1FEA116
:102E900084879587A687B7870FB6F894DEBF0FBEE5
:102EA000CDBFA6960FB6F894DEBF0FBECDBFDF91A3
:102EB000CF911F910F91FF90EF90DF90CF90BF9037
:102EC000AF909F908F907F906F905F904F903F90CA
:102ED0002F9008954F925F926F927F928F929F9260
:102EE000AF92BF92CF92DF92EF92FF920F931F9318
:102EF000CF93DF93CDB7DEB7A4970FB6F894DEBFBC
:102F00000FBECDBF8B01BE016F5F7F4F0E94611668
:102F100089809A80AB80BC80A5019401C501B40171
:102F20000E9423316D8B7E8B8F8B988FA50194012E
:102F30000E94AB33698F7A8F8B8F9C8F4D805E8020
:102F40006F807884A3019201C301B2010E942331F2
:102F50004B015C0189859A85AB85BC85898B9A8BF1
:102F6000AB8BBC8BCD84DE84EF84F888A301920107
:102F7000C501B4010E94AB339B01AC01698D7A8D10
:102F80008B8D9C8D0E94233120E030E040E85FE390
:102F90000E9422316D8F7E8F8F8F98A329893A8965
:102FA0004B895C89C501B4010E94AB3369A37AA344
:102FB0008BA39CA3A70196016D897E898F89988D2B
:102FC0000E94AB339B01AC0169A17AA18BA19CA1AA
:102FD0000E9422312D8D3E8D4F8D58A10E94AD3122
:102FE00020E030E044E353E40E94AB332BED3FE0BC
:102FF00049E450E40E940432D8016D937D938D938F
:103000009C931397A7019601C501B4010E94AB33AD
:103010004B015C0129893A894B895C896D897E89DC
:103020008F89988D0E94AB339B01AC01C501B4011F
:103030000E9423310E948731905820E030E044E321
:1030400053E40E94AB332BED3FE049E450E40E948F
:103050000432F8016483758386839783A701960100
:10306000C701B6010E942331A70196010E94AB332C
:103070009B01AC01698D7A8D8B8D9C8D0E942331D3
:1030800020E030E040E85FE30E9422314B015C0128
:1030900029893A894B895C89CA01B9010E94233187
:1030A000A70196010E94AB336B017C01A301920141
:1030B0006D897E898F89988D0E94AB339B01AC010D
:1030C000C701B6010E942231A50194010E94AD31D1
:1030D00020E030E044E353E40E94AB332BED3FE0CB
:1030E00049E450E40E940432D80118966D937D9310
:1030F0008D939C931B97A4960FB6F894DEBF0FBEDA
:10310000CDBFDF91CF911F910F91FF90EF90DF9096
:10311000CF90BF90AF909F908F907F906F905F9077
:103120004F9008954F925F926F927F928F929F92ED
:10313000AF92BF92CF92DF92EF92FF920F931F93C5
:10314000CF93DF93CDB7DEB72C970FB6F894DEBFE1
:103150000FBECDBF8B01BE016F5F7F4F0E946A170C
:1031600049805A806B807C80F80140825182628263
:1031700073828D809E80AF80B88484829582A6827F
:10318000B782C984DA84EB84FC84C086D186E28667
:10319000F38620E030E0A901C301B2010E940032B1
:1031A00087FF0DC020E030E044EB53E4C301B201DF
:1031B0000E942331F801608371838283938320E02E
:1031C00030E0A901C501B4010E94003287FF0DC0A3
:1031D00020E030E044EB53E4C501B4010E94233108
:1031E000F801648375838683978320E030E0A9012A
:1031F000C701B6010E94003287FF0DC020E030E019
:1032000044EB53E4C701B6010E942331F801608703
:103210007187828793872C960FB6F894DEBF0FBE16
:10322000CDBFDF91CF911F910F91FF90EF90DF9075
:10323000CF90BF90AF909F908F907F906F905F9056
:103240004F9008954F925F926F927F928F929F92CC
:10325000AF92BF92CF92DF92EF92FF920F931F93A4
:10326000CF93DF93CDB7DEB7A8970FB6F894DEBF44
:103270000FBECDBF8B01BE016F5F7F4F0E946116F5
:103280008D809E80AF80B8848D859E85AF85B889FE
:10329000898B9A8BAB8BBC8B49805A806B807C80EE
:1032A00089859A85AB85BC858D8B9E8BAF8BB88FBE
:1032B00029893A894B895C89C501B4010E94AB33E5
:1032C0006B017C012D893E894F89588DC301B20164
:1032D0000E94AB339B01AC01C701B6010E942231B1
:1032E0009B01AC010E942331698F7A8F8B8F9C8F59
:1032F000A5019401C301B2010E94AB336B017C01B3
:1033000029893A894B895C896D897E898F89988D55
:103310000E94AB339B01AC01C701B6010E9423316F
:103320009B01AC010E9423316D8F7E8F8F8F98A3FC
:10333000A3019201C301B2010E94AB336B017C0176
:10334000A5019401C501B4010E94AB339B01AC01FE
:10335000C701B6010E9422316B017C012D893E8993
:103360004F89588DCA01B9010E94AB339B01AC0152
:10337000C701B6010E9422316B017C0129893A897B
:103380004B895C89CA01B9010E94AB339B01AC0136
:10339000C701B6010E94233169A37AA38BA39CA322
:1033A000A3019201C301B2010E9423316B017C0190
:1033B000A5019401C501B4010E9423316DA37EA330
:1033C0008FA398A7A3019201C701B6010E94AB3356
:1033D0002B013C01A50194016DA17EA18FA198A5AF
:1033E0000E94AB339B01AC01C301B2010E942331A7
:1033F00020E030E040E85FE30E9422312B013C01F5
:103400002D893E894F89588D6DA17EA18FA198A5E8
:103410000E94AB334B015C0129893A894B895C8955
:10342000C701B6010E94AB339B01AC01C501B401D9
:103430000E942231A30192010E94AD3120E030E0D0
:1034400044E353E40E94AB332BED3FE049E450E406
:103450000E940432D8016D937D938D939C931397B2
:1034600029A13AA14BA15CA1CA01B9010E94AB33C9
:103470006B017C012D8D3E8D4F8D58A1CA01B90184
:103480000E94AB33A70196010E9423310E945E3453
:103490009B01AC01698D7A8D8B8D9C8D0E940432CD
:1034A0000E94D83120E030E044E353E40E94AB3383
:1034B0002BED3FE049E450E40E940432F8016483BC
:1034C000758386839783298D3A8D4B8D5C8DCA01D8
:1034D000B9010E94AB33A70196010E9423310E94DB
:1034E0005E349B01AC016D8D7E8D8F8D98A10E9405
:1034F00004320E94D83120E030E044E353E40E94DB
:10350000AB332BED3FE049E450E40E940432D80194
:1035100018966D937D938D939C931B97A8960FB6E9
:10352000F894DEBF0FBECDBFDF91CF911F910F91F9
:10353000FF90EF90DF90CF90BF90AF909F908F90D3
:103540007F906F905F904F900895E091D902F09135
:10355000DA023097E1F03091020320910103321733
:10356000B0F040E0242F30E02617370754F4DC0198
:10357000A20FB31F5C91D901AD5FBC4F5C934F5F4D
:10358000F1CF1092020360930103CB0109940895D7
:10359000E091DB02F091DC02309729F01092DF021B
:1035A0001092DE0209940895089510920203109279
:1035B00001031092DF021092DE020C94B11BCF9334
:1035C000DF93EC01862F0E94C71B88EC9AE10E94D2
:1035D000861C85EA9AE10E94811CCE01DF91CF9181
:1035E0000C94D51A0C94DF1A862F413208F040E271
:1035F00063E073E00E94CB1B1092020380930103EF
:10360000089521E00C94F41A21E00C94F41A0C941F
:10361000F41A81E08093DD02609300031092DF02D0
:103620001092DE0208950C94091B0F93062F21E0DF
:103630004091DE0260EE72E0809100030E940F1C58
:103640001092DF021092DE021092DD020F910895B7
:1036500061E00C94151BCF93DF931F92CDB7DEB7BB
:1036600069838091DD02882389F08091DE028032B7
:10367000A8F48091DF02E82FF0E0E052FD4F608374
:103680008F5F8093DF028093DE0205C061E0CE0190
:1036900001960E94681C81E090E002C080E090E00A
:1036A0000F90DF91CF910895CF92DF92EF92FF922A
:1036B0000F931F93CF93DF937C01CB018A0120915D
:1036C000DD02222361F0EB016B01C40ED51ECC1587
:1036D000DD0541F06991C7010E942B1BF8CF642FD3
:1036E0000E94681CC801DF91CF911F910F91FF903C
:1036F000EF90DF90CF9008958091010390E02091AA
:103700000203821B91090895209102038091010315
:10371000281750F4E22FF0E0ED5FFC4F808190E03D
:103720002F5F2093020308958FEF9FEF0895E0919C
:10373000020380910103E81730F4F0E0ED5FFC4FE5
:10374000808190E008958FEF9FEF08950895709322
:10375000DA026093D90208957093DC026093DB0271
:1037600008951092900381E080938E0310928D0350
:10377000E9EBF0E080818E7F808380818D7F808384
:1037800088E48093B80085E48093BC000895880F96
:103790008093BA000895413208F03FC090919003A1
:1037A0009111FCCF91E09093900320938E032FEF23
:1037B0002093230310926803240F209367039093B0
:1037C0008F0390918F03880F892B80938F038091B3
:1037D0008D03813041F410928D0380918F0380938B
:1037E000BB0085EC01C085EE8093BC008091900306
:1037F0008130E1F380916803841710F440916803ED
:1038000029E633E0FB01D9018A2F821B841718F4C3
:103810008D918193F9CF842F089580E008950F93BF
:10382000413208F04CC090919003953010F0109206
:103830009003909190039111FCCF92E090939003AC
:1038400000938E039FEF909323031092680340939D
:103850006703FB0169E673E0DB019A2F961B94175F
:1038600018F491919D93F9CF10928F0390918F034B
:10387000880F892B80938F0380918D03813041F4D1
:1038800010928D0380918F038093BB0085EC01C063
:1038900085EE8093BC00222321F08091900382303A
:1038A000E1F3809123038F3F61F080912303803205
:1038B00051F080912303803341F483E007C081E01D
:1038C00005C080E003C082E001C084E00F9108954C
:1038D000613298F420919003243089F46093450379
:1038E000FC0187E493E0DC012A2F281B261718F43B
:1038F00021912D93F9CF80E0089581E0089582E031
:10390000089590938A0380938903089590938C037C
:1039100080938B030895882311F085EC01C085E81E
:103920008093BC00089585ED8093BC008091BC001D
:1039300084FDFCCF10929003089585EC8093BC0029
:103940001092900308951F920F920FB60F921124B8
:103950002F933F934F935F936F937F938F939F9397
:10396000AF93BF93EF93FF938091B900887F803628
:1039700009F49CC068F5883209F45BC090F480318A
:1039800009F454C038F4882309F4F5C0883009F4E8
:103990004DC0F5C0883109F44CC0803209F45DC0D7
:1039A000EEC0803409F468C048F4803309F455C08F
:1039B000883309F0E4C080932303A8C0803509F45C
:1039C0004FC0883509F45DC0883409F0D8C0D5C02F
:1039D000883909F4C6C0A8F4883709F467C038F4F8
:1039E000883609F463C0803709F460C0C8C08838DD
:1039F00009F4B7C0803909F45FC0803809F0BFC04E
:103A00005BC0803B09F485C038F4803A09F466C095
:103A1000883A09F47EC0B3C0803C09F4A6C0883C53
:103A200009F4A3C0883B09F489C0A9C080918F0321
:103A300010C09091680380916703981770F5E0912A
:103A4000680381E08E0F80936803F0E0E759FC4F34
:103A500080818093BB0085EC85C0809323038DC05B
:103A6000E091680381E08E0F809368038091BB0032
:103A7000F0E0E759FC4F80839091680380916703E1
:103A80006DC0E091680381E08E0F809368038091A0
:103A9000BB00F0E0E759FC4F808380918E038111D9
:103AA0006CC081E080938D0384EA60C083E08093E2
:103AB000900310922403CFCF80912403803208F02A
:103AC00050C0E091240381E08E0F80932403809105
:103AD000BB00F0E0EB5DFC4F8083BDCF8091240301
:103AE000803230F4E0912403F0E0EB5DFC4F108273
:103AF0000E94931C6091240370E0E0918903F0918F
:103B00008A0385E293E00995109224030E949D1C8C
:103B100036C084E0809390031092460310924503D0
:103B2000E0918B03F0918C030995809145038111FD
:103B300005C081E08093450310924703E09146035E
:103B400081E08E0F80934603F0E0E95BFC4F8081BB
:103B50008093BB009091460380914503981708F429
:103B60007ACF85E88093BC000AC085EC8093BC00C6
:103B70001092900304C0109223030E94931CFF91A3
:103B8000EF91BF91AF919F918F917F916F915F91D5
:103B90004F913F912F910F900FBE0F901F9018954E
:103BA000EF92FF920F93E12CF12C02E020E030E045
:103BB00040E850E06FE271E08BE593E00E94AD25B4
:103BC0000E94192880E090E00F91FF90EF900895F7
:103BD0008AEA91E00C94F50ECF93DF938BE090E0AE
:103BE0000E945B1FEC01009731F0FC0111921192D1
:103BF000CF010E94941FCE01DF91CF910895AF9223
:103C0000BF92CF92DF92EF92FF920F931F93CF93C9
:103C1000DF937C01EB01B42EA22E0E944F28F70106
:103C2000C080D180CE018C219D21A11003C0892BA1
:103C300029F43CC08C179D0709F038C0BB2041F027
:103C4000CE01809590958C219D21F70191838083F1
:103C500000E010E00E942229012B09F43DC08111EF
:103C600002C00E94D0200E943A2C91FD1CC00FB6C9
:103C7000F8940F92F701808191819E0128233923C6
:103C8000A11003C0232B21F40CC02C173D0749F4CD
:103C9000BB2039F0C095D095C823D923F701D18333
:103CA000C0830F900FBE6C01DD2416C001151105F5
:103CB00089F2B11003C060E070E002C060E071E022
:103CC000A11074606C2B7D2BA801C70102960E9485
:103CD000972AC12CD12CBECFC601DF91CF911F9165
:103CE0000F91FF90EF90DF90CF90BF90AF9008952D
:103CF000FC010FB6F8940F928081918160957095C8
:103D000068237923718360830F900FBE0895FC01AF
:103D1000808191810895CF92DF92EF92FF920F936D
:103D20001F93CF93DF93EC018B017C0185E0E80EBC
:103D3000F11C0E944F28EF81F88588819981802BA2
:103D4000912B9983888300E010E068817981EE15DA
:103D5000FF05E1F0D280C38020813181C90199271C
:103D6000AC014623572332FD03C0452B21F40BC081
:103D70004817590741F430FF02C0082B192B726015
:103D8000CF010E940E2BED2DFC2DDFCF009510955D
:103D900006231723198308830E9422298881998189
:103DA000DF91CF911F910F91FF90EF90DF90CF9017
:103DB0000895AF92BF92CF92DF92EF92FF920F934E
:103DC0001F93CF93DF93EC015B018A0169010E948D
:103DD0004F28E880F980B501CE010E948B1EEA28A9
:103DE000FB28C701802391238017910761F4888104
:103DF0009981980120953095822393239983888314
:103E0000C12CD12C0FC0C114D10451F0A601B801AE
:103E10007560CE0102960E94972AE12CF12C02C017
:103E2000E880F9800E942229CD28E9F0811102C0A2
:103E30000E94D0200E943A2C91FD13C00FB6F89436
:103E40000F928881998198012823392320173107FF
:103E500031F40095109508231923198308830F90D6
:103E60000FBE7C01FF24C701DF91CF911F910F91FD
:103E7000FF90EF90DF90CF90BF90AF900895CF93D9
:103E8000DF93EC010E944F288A81882339F060E09B
:103E900072E08F8198850E940E2BF6CFCE010E9492
:103EA0007A1FDF91CF910C942229BA010C948B1EBA
:103EB000BA010C94781E0F931F93CF93DF9300D019
:103EC000CDB7DEB789839A830E944F2889819A8172
:103ED0000E9493358C010E9422290115110511F4CD
:103EE0000E94FA03C8010F900F90DF91CF911F91AC
:103EF0000F910895CF93DF9300D0CDB7DEB7009731
:103F000071F089839A830E944F2889819A810E9447
:103F10002B360F900F90DF91CF910C9422290F90A8
:103F20000F90DF91CF910895FC01039692838183D6
:103F30002FEF3FEF34832383968385839087878396
:103F400010820895FC01118610860895CF93DF93A7
:103F50009C01FB01DC011196CD91DC911297D3837A
:103F6000C2838C819D81958384838C819D81DC01BA
:103F700013967C936E9312977D836C833187208791
:103F8000F90180818F5F8083DF91CF9108950F9336
:103F90001F93CF93DF938C01FB01208131812F3F51
:103FA0008FEF380721F4E801AF81B8850EC0D80142
:103FB000139612968D919C911397EC01488159812B
:103FC0002417350710F0DC01F4CF12968D919C91E7
:103FD000139793838283EC01FD83EC83B583A483E1
:103FE0001396FC93EE93129711870087F801808156
:103FF0008F5F8083DF91CF911F910F910895CF93B1
:10400000DF93FC01A085B185828193812481358174
:10401000EC013D832C83C481D5819B838A831196D7
:104020008D919C9112978E179F0721F41296DC9325
:10403000CE931197118610868C9181508C93DF91CD
:10404000CF91089531E1FC013083319722E2208342
:104050003197A3E3A08331976083319770833197C1
:104060001082319760E8608331971082319762E067
:104070006083319763E06083319764E060833197B8
:1040800065E06083319766E06083319767E0608325
:10409000319768E06083319769E06083319760E130
:1040A000608331973083319732E13083319733E148
:1040B0003083319734E13083319735E13083319764
:1040C00036E13083319737E13083319738E13083FF
:1040D000319739E13083319730E23083319731E2E3
:1040E000308331972083319723E2208331974083B7
:1040F00031975083319726E22083319727E220833E
:10410000319728E22083319729E22083319720E3F9
:104110002083319721E3208386970895A89520EC8A
:1041200088E190E00FB6F894A895809360000FBEE8
:1041300020936000A0915202B0915302CD91CDBF67
:10414000DD91DEBFFF91EF91DF91CF91BF91AF91F4
:104150009F918F917F916F915F914F913F912F919F
:104160001F910F91FF90EF90DF90CF90BF90AF9095
:104170009F908F907F906F905F904F903F902F9087
:104180001F900F900FBE0F90089581E0089588E171
:104190000FB6F89480936000109260000FBE0895EF
:1041A0000F920FB6F8940F921F9211242F923F9204
:1041B0004F925F926F927F928F929F92AF92BF9237
:1041C000CF92DF92EF92FF920F931F932F933F9323
:1041D0004F935F936F937F938F939F93AF93BF930F
:1041E000CF93DF93EF93FF93A0915202B0915302CC
:1041F0000DB60D920EB60D920E94E329A0915202C7
:10420000B0915302CD91CDBFDD91DEBFFF91EF9113
:10421000DF91CF91BF91AF919F918F917F916F91DE
:104220005F914F913F912F911F910F91FF90EF90D0
:10423000DF90CF90BF90AF909F908F907F906F90C6
:104240005F904F903F902F901F900F900FBE0F9058
:1042500008950F920FB6F8940F921F9211242F9287
:104260003F924F925F926F927F928F929F92AF9206
:10427000BF92CF92DF92EF92FF920F931F932F93F3
:104280003F934F935F936F937F938F939F93AF93DE
:10429000BF93CF93DF93EF93FF93A0915202B0911E
:1042A00053020DB60D920EB60D9213BE0E946F28EA
:1042B00081110E94E329A0915202B0915302CD9145
:1042C000CDBFDD91DEBFFF91EF91DF91CF91BF9127
:1042D000AF919F918F917F916F915F914F913F919E
:1042E0002F911F910F91FF90EF90DF90CF90BF9093
:1042F000AF909F908F907F906F905F904F903F9086
:104300002F901F900F900FBE0F9008950E942921AB
:1043100018950FB6F8940F92FC01928D0F900FBE76
:1043200081E0911180E008950F931F93CF93DF9365
:10433000EC01042F1A8D4C8D41110BC0888199819D
:10434000892BE9F58A819B810E94012C1B821A82AC
:1043500037C050E0011115C08C819D810E94BA3692
:104360002C8D8C819D81820F911D9D838C832A8150
:104370003B818217930718F1888199819D838C83F3
:104380001EC08E819F810E94BA362C8D30E03195FF
:10439000219531098E819F81820F931F9F838E8388
:1043A000688179818617970730F48A819B81820F13
:1043B000931F9F838E83023011F41111115080E0FE
:1043C0001F5F1A8FDF91CF911F910F910895FC010C
:1043D000CB01448D4423A1F050E026813781240F86
:1043E000351F37832683628173812617370720F0B4
:1043F0002081318137832683668177810C94BA3698
:104400000895FF920F931F93CF93DF93EC010FB6A4
:10441000F8940F92FE8C8C010F5E1F4F1F145CF4FA
:104420008989882341F0C8010E94CE2A81110E9407
:104430007F2BFA94F3CF8FEF8E8F0F900FBE0FB6B6
:10444000F8940F92FD8C8E01085F1F4F1F145CF4CF
:104450008885882341F0C8010E94CE2A81110E94DC
:104460007F2BFA94F3CF8FEF8D8F0F900FBEDF91DC
:10447000CF911F910F91FF900895CF93DF93EC019F
:104480000FB6F8940F92288139818B8D7C8D879F90
:10449000C0011124A901480F591F5B834A831A8E5A
:1044A0003D832C83871B9109820F931F9F838E83EB
:1044B0008FEF8D8F8E8F61110CC08885882389F0D6
:1044C000CE0108960E94CE2A882359F00E94D0205F
:1044D00008C0CE0108960E94941FCE0141960E940A
:1044E000941F0F900FBE81E0DF91CF910895EF925E
:1044F000FF921F93CF93DF931F92CDB7DEB7182F94
:10450000662321F0869FC001112402C080E090E064
:104510004F9669830E945B1F7C016981009799F027
:10452000611104C0FC019183808306C09C01215E5F
:104530003F4FFC0131832083F701138F648F61E0CB
:10454000C7010E943D22C7010F90DF91CF911F91BB
:10455000FF90EF900895CF93C62F42E060E00E9455
:104560007722009711F0FC01C28FCF910895BF927E
:10457000CF92DF92EF92FF920F931F93CF93DF932F
:1045800000D000D01F92CDB7DEB78C016B015D83E8
:104590004C83B22E20E07C0188E0E80EF11C0FB6BF
:1045A000F8940F92F801928D838D981718F0F2E02D
:1045B000BF1214C04B2DB601C8010E949421F8010E
:1045C0009189992321F0C80141960E94CE2A811138
:1045D0000E94D0200F900FBE81E050C08C819D8141
:1045E000892B19F40F900FBE48C0211104C0CE01D1
:1045F00001960E94422B0F900FBE0E944F280FB6CB
:10460000F8940F92F801858D8F3F09F4158EF8010B
:10461000868D8F3F09F4168E0F900FBEBE016C5F22
:104620007F4FCE0101960E944D2B811121C00FB604
:10463000F8940F92F801928D838D0F900FBE98130E
:1046400011C06C817D81C7010E94862AC8010E9429
:1046500001220E942229882311F021E0A0CF0E948C
:10466000D020FBCFC8010E9401220E942229F5CF51
:10467000C8010E9401220E94222980E00F900F9021
:104680000F900F900F90DF91CF911F910F91FF909E
:10469000EF90DF90CF90BF900895CF93DF93482F96
:1046A00060E081E00E947722EC01009761F01B82BC
:1046B0001A82198218821E8220E040E050E060E0F9
:1046C00070E00E94B722CE01DF91CF9108950F9341
:1046D0001F93CF93DF93EC010A811B810E94992BDA
:1046E0000817190771F48E8181508E8381110BC0D8
:1046F00020E040E050E060E070E0CE010E94B72290
:1047000002C080E001C081E0DF91CF911F910F9145
:104710000895FF920F931F93CF93DF93EC018A01CB
:104720009A8D8B8D981710F02230E1F4FE8C422F79
:10473000CE010E9494218FEFF81210C0898988233E
:1047400079F0CE0141960E94CE2A882349F00115C6
:10475000110531F081E0F801808305C0F394FE8EED
:1047600081E001C080E0DF91CF911F910F91FF9018
:104770000895CF93DF93FC01EB01928D838D981701
:10478000B8F4868D9F5F928F8F3F71F48189882363
:1047900069F0CF0141960E94CE2A882339F02097F4
:1047A00029F081E0888305C08F5F868F81E001C09A
:1047B00080E0DF91CF910895AF92BF92CF92DF92C8
:1047C000EF92FF920F931F93CF93DF9300D000D00F
:1047D0001F92CDB7DEB78C016B015D834C83A22E97
:1047E00020E07C0181E1E80EF11C0FB6F8940F92F5
:1047F000F801B28CBB2071F1E680F780B601C801E8
:104800000E94E721A11019C0BA94F801B28E8081EC
:104810009181892B29F40E94512CF8019383828382
:10482000F8018085882391F0C80108960E94CE2A5D
:10483000882361F00E94D02009C0F801F782E68247
:104840008189882319F0C8014196F0CF0F900FBEDF
:1048500081E05FC08C819D81892B19F40F900FBE80
:1048600057C0211104C0CE0101960E94422B0F9027
:104870000FBE0E944F280FB6F8940F92F801858D55
:104880008F3F09F4158EF801868D8F3F09F4168E3F
:104890000F900FBEBE016C5F7F4FCE0101960E944C
:1048A0004D2B81112BC0C8010E948921882301F161
:1048B000F80180819181892B51F40FB6F8940F9201
:1048C000F801828193810E94AC2B0F900FBE6C8106
:1048D0007D81C7010E94862AC8010E9401220E9490
:1048E0002229882311F021E080CF0E94D020FBCF25
:1048F000C8010E9401220E942229F5CFC8010E940E
:1049000001220E942229C8010E948921882359F38B
:1049100080E00F900F900F900F900F90DF91CF914C
:104920001F910F91FF90EF90DF90CF90BF90AF90CD
:104930000895EF92FF920F931F93CF93DF93EC01B3
:104940008B01EA80FB800E94992BE816F90629F476
:104950008E818F5F8E8381E00CC020E0A80160E033
:1049600070E0CE010E94DC23882319F09E819F5FB6
:104970009E83DF91CF911F910F91FF90EF9008954B
:10498000EF92FF920F931F93CF93DF93EC018A0175
:10499000EA8CEE20E1F0FD8C0E94E721EA94EA8E99
:1049A0008FEFF81210C08885882379F0CE01089621
:1049B0000E94CE2A882349F00115110531F081E0CB
:1049C000F801808305C0F394FD8E81E001C080E092
:1049D000DF91CF911F910F91FF90EF9008950F936A
:1049E0001F93CF93DF93EC018A8D882349F00E81CA
:1049F0001F81CE010E94E7211F830E8381E001C049
:104A000080E0DF91CF911F910F9108950FB6F89438
:104A10000F92FC01828D0F900FBE08950FB6F8948F
:104A20000F92FC01228D838D821B0F900FBE089583
:104A3000FC01828D08950C947A1FFC01928D81E017
:104A4000911180E00895FC01228D81E0938D29135E
:104A500080E00895CF93DF93EC010FB6F8940F92A6
:104A60008D8D8F3F09F41D8E8E8D8F3F09F41E8E24
:104A70000F900FBE8A8D811104C0CE0141960E9415
:104A8000AF2ACE01DF91CF910C940122EF92FF92D9
:104A90000F931F93CF93DF931F92CDB7DEB77C01A7
:104AA00000915F0210916002809152029091530236
:104AB000029669830E94FF1F69818FEFE816F8064E
:104AC00099F4662389F060915202709153026E5FEF
:104AD0007F4F82E692E00F90DF91CF911F910F916F
:104AE000FF90EF900C94A61FE00EF11EE091520291
:104AF000F0915302F382E28260915202709153026C
:104B0000E016F10678F480917E0290917F026E5F4C
:104B10007F4F0F90DF91CF911F910F91FF90EF90FA
:104B20000C94C71F80918002909181026E5F7F4F2D
:104B30000E94C71F8091570290915802E816F9060B
:104B400020F4F0925802E09257020F90DF91CF913B
:104B50001F910F91FF90EF9008955F926F927F9257
:104B60008F929F92AF92BF92CF92DF92EF92FF927D
:104B70000F931F93CF93DF934C01562E172F5A019B
:104B80003901CA010E945B1F6C01009709F4DCC067
:104B900088E290E00E945B1FEC010097A1F0D88EA4
:104BA000CF8AA50165EA70E0C6010E94C33621E004
:104BB000A21AB108CF88D88CCA0CDB1CE52DF12FC6
:104BC00080E090E008C0C6010E947A1FBDC0019637
:104BD0008830910561F0BF0141919E01280F391F76
:104BE000D90159964C93DB012C912111F0CF18A2D9
:104BF000043008F003E00E8B09A31AA25E01B2E0B4
:104C0000AB0EB11CC5010E94A21FCE010C960E94E2
:104C1000A21FD987C88784E090E0801B91099D87F7
:104C20008C87DB8BCA8B1BA21CA21DA21EA21FA2FB
:104C3000A301B401C6010E94222099838883E11454
:104C4000F10419F0F701D183C0830FB6F8940F92E5
:104C5000809161028F5F80936102809152029091F6
:104C60005302892BD1F5D0935302C0935202809105
:104C70006102813009F041C084E992E00E94941FF2
:104C80008DE992E00E94941F86EA92E00E94941FB0
:104C90008FEA92E00E94941F8BE892E00E94941F9A
:104CA00082E892E00E94941F85E792E00E94941FA0
:104CB0008CE692E00E94941F82E692E00E94941F8C
:104CC0008BE892E0909381028093800282E892E0E8
:104CD00090937F0280937E0210C080915D028111CB
:104CE0000CC0E0915202F091530296898E89891787
:104CF00020F0D0935302C0935202809159028F5FEB
:104D0000809359028E8990915E02981710F48093D7
:104D10005E02F9E08F9FC0011124B5018C569D4FB2
:104D20000E94A61F0F900FBE80915D02882351F054
:104D3000E0915202F091530296898E89981710F4EF
:104D40000E94D02081E001C08FEFDF91CF911F91B1
:104D50000F91FF90EF90DF90CF90BF90AF909F901A
:104D60008F907F906F905F9008950F931F93CF93D4
:104D7000DF93EC010FB6F8940F92009721F4C091E5
:104D80005202D09153028E010E5F1F4FC8010E9444
:104D9000FF1F8C899D89892B21F0CE010C960E94E2
:104DA000FF1F809159028F5F8093590280915202B8
:104DB00090915302C817D90759F4B8018CE692E0D4
:104DC0000E94A61F80916B028F5F80936B020EC0C2
:104DD000809161028150809361028F89988D0E9439
:104DE0007A1FCE010E947A1F0E947B030F900FBE94
:104DF00080915D02882349F0809152029091530284
:104E0000C817D90711F40E94D020DF91CF911F91CC
:104E10000F9108950FB6F8940F92009721F48091A6
:104E2000520290915302FC0186890F900FBE0895A3
:104E3000009721F48091520290915302FC018689DF
:104E40000895FF920F931F93CF93DF93EC0164308B
:104E500008F063E00FB6F8940F92209721F4C09108
:104E60005202D091530229A1261709F44CC0809117
:104E7000520290915302261768F4C817D90779F0A7
:104E8000E0915202F0915302FF24F394868968174F
:104E900038F405C0FF24F394C817D90709F0F12CA2
:104EA0008E89281301C06E8B69A32C853D8537FD43
:104EB00006C024E030E0261B31093D872C8729E01D
:104EC000829FC00111248C569D4F2A853B8528174F
:104ED0003907B1F48E010E5F1F4FC8010E94FF1FFA
:104EE0008E8990915E02981710F480935E0229E0FB
:104EF000829FC0011124B8018C569D4F0E94A61FAD
:104F0000F1100E94D0200F900FBEDF91CF911F9122
:104F10000F91FF9008950F931F93CF93DF93EC01B0
:104F2000009709F439C08091520290915302C8173A
:104F3000D90791F10FB6F8940F928A859B85825616
:104F4000924041F58C899D8922E08537920711F1C5
:104F5000892B01F58E010E5F1F4FC8010E94FF1FB4
:104F60008E8990915E02981710F480935E0229E07A
:104F7000829FC0011124B8018C569D4F0E94A61F2C
:104F8000E0915202F09153029E898689981710F0A1
:104F90000E94D0200F900FBEDF91CF911F910F91F3
:104FA0000895FF920F931F93CF93DF93EC018A85AF
:104FB0009B8582569240A9F58C899D8932E0853780
:104FC000930779F1892B69F580915402811122C0F0
:104FD000E0915202F0915302FF24F3949E89868956
:104FE000981708F4F12C8E010E5F1F4FC8010E9424
:104FF000FF1F2E8980915E02821710F420935E02BB
:1050000039E0239FC0011124B8018C569D4F0E94A6
:10501000A61F08C0BE01645F7F4F85E792E00E9433
:10502000A61FF12C8F2DDF91CF911F910F91FF9033
:105030000895EF92FF920F9385E5E82E82E0F82E17
:1050400000E020E030E040EC50E067E371E086E90A
:1050500093E00E94AD258130B9F40E94DF2E8130AB
:1050600099F4F8948FEF9FEF909358028093570232
:1050700081E080935D021092600210925F020F91B6
:10508000FF90EF900C948E200F91FF90EF90089579
:10509000F89410925D020E94C72078940895809140
:1050A00054028F5F8093540208950FB6F8940F92C4
:1050B00080915F02909160020F900FBE08958091E1
:1050C0005F029091600208958091610208950097B7
:1050D00021F4809152029091530249960895CF9203
:1050E000DF92EF92FF920F931F93CF93DF93809104
:1050F0005402811191C0C0915F02D091600221964B
:10510000D0936002C0935F022097B9F4809180022F
:105110009091810220917E0230917F023093810232
:105120002093800290937F0280937E0280915A02A6
:105130008F5F80935A020E947B0380915702909167
:105140005802D12CC817D90708F455C099E0C92EC8
:10515000E0918002F09181028081811107C08FEF80
:105160009FEF909358028093570245C0E0918002D0
:10517000F09181020580F681E02D06811781D8012A
:1051800012962D913C911397C217D30728F43093B0
:105190005802209357022FC07801B2E0EB0EF11CA9
:1051A000C7010E94FF1FF80124893589232B21F0B4
:1051B000C8010C960E94FF1FD80156962C91809131
:1051C0005E02821710F420935E02C29EC001112479
:1051D000B7018C569D4F0E94A61FE0915202F0919C
:1051E0005302D80156969C918689981708F4B0CF3F
:1051F000DD24D394ADCFE0915202F0915302E689C1
:10520000B9E0EB9FF0011124EC56FD4F8081823014
:1052100048F0DD24D39406C080915C028F5F8093B8
:105220005C02D12C80915B02882311F0DD24D394A1
:105230008D2DDF91CF911F910F91FF90EF90DF9017
:10524000CF900895EF92FF920F931F93CF93DF9328
:105250000FB6F8940F9280915402815080935402BB
:1052600080915402882311F080E052C08091610245
:105270008823D1F3C0E0D0E029E0F22EEE24E394BD
:1052800080917502882351F1E0917A02F0917B02BE
:10529000C681D781CE010C960E94FF1F8E010E5F42
:1052A0001F4FC8010E94FF1F8E8990915E029817C0
:1052B00010F480935E02F89EC0011124B8018C5650
:1052C0009D4F0E94A61FE0915202F09153029E89C9
:1052D00086899817A8F2E0925B02D2CFCD2B11F00D
:1052E0000E947B03C0915C02CC2351F0D1E00E946C
:1052F0006F288111D0935B02C150C9F710925C02F4
:1053000080915B02882309F4AFCF0E94D02081E016
:105310000F900FBEDF91CF911F910F91FF90EF90F3
:1053200008950F931F93CF93DF93EC018B010E949D
:105330004F2840915F0250916002E881F9819F01FE
:10534000200F311F4E175F0728F42E173F0748F430
:1053500081E004C081E02E173F0720F04217530779
:1053600008F080E039832883882331F060E0C901A8
:10537000841B950B0E9446250E942229811102C0A0
:105380000E94D020DF91CF911F910F910895CF936C
:10539000DF9300D0CDB7DEB7009719F40E94D0207C
:1053A0000DC089839A830E944F2860E089819A8189
:1053B0000E9446250E942229882381F30F900F9096
:1053C000DF91CF91089580915402882321F081E0EC
:1053D00080935B02089510925B02A0915202B091FB
:1053E0005302E0915202F09153022D913C91878932
:1053F000908D8217930760F0609152027091530272
:105400008091520290915302675E7F4F0E94070481
:1054100020915E0299E0929FF0011124EC56FD4F1D
:105420008081811102C02150F6CFA181B2811296F4
:105430000D90BC91A02DB283A183CF010396A81734
:10544000B90731F412968D919C91139792838183C1
:105450000180F281E02D86819781909353028093A1
:10546000520220935E0208950F931F93CF93DF9310
:10547000EC010FB6F8940F92009721F4C0915202FC
:10548000D09153028E010E5F1F4FC8010E94FF1F73
:105490008C899D89892B21F0CE010C960E94FF1FDB
:1054A000B80182E692E00E94A61F0F900FBE809185
:1054B0005D02882339F00FB6F8940F920E947B03A7
:1054C0000F900FBE8091520290915302C817D907D6
:1054D000C1F480915D02882319F00E94D02011C090
:1054E0008091610290916202981305C0109253025C
:1054F0001092520206C0DF91CF911F910F910C9430
:10550000E329DF91CF911F910F910895CF93DF93FE
:10551000EB016091520270915302645F7F4F0E94D1
:10552000C71F61E0CE01DF91CF910C944625CF9348
:10553000DF93EA01E0915202F0915302706875879F
:1055400064876091520270915302645F7F4F0E94A2
:10555000A61F61E0CE01DF91CF910C9446250F93F9
:105560001F93CF93DF931F92CDB7DEB78B0160916E
:10557000520270915302645F7F4F49830E94A61FBD
:105580004981442311F00FEF1FEF642FC8010F90E2
:10559000DF91CF911F910F910C9446250F931F938C
:1055A000CF93DF93DC011596ED91FC911697C681A0
:1055B000D7818E01045F1F4FC8010E94FF1F809199
:1055C0005402811114C00A501109C8010E94FF1F22
:1055D0008E8990915E02981710F480935E02B9E074
:1055E0008B9FC0011124B8018C569D4F03C0B80198
:1055F00085E792E00E94A61FE0915202F0915302CB
:105600009E898689891720F481E080935B0201C01E
:1056100080E0DF91CF911F910F9108950F931F9319
:10562000CF93DF937068FC0171836083C681D7815B
:105630000E94FF1F8E010E5F1F4FC8010E94FF1FB7
:105640008E8990915E02981710F480935E02F9E0C3
:105650008F9FC0011124B8018C569D4F0E94A61F38
:10566000E0915202F09153029E898689891720F4B5
:1056700081E080935B0201C080E0DF91CF911F91B8
:105680000F91089520915A02FC01208320915F021E
:1056900030916002328321830895CF93DF930FB658
:1056A000F8940F92E0915F02F0916002DB014D915E
:1056B0005C914F3FBFEF5B07D1F0B0915A02EC0114
:1056C000A88129813A81BA1719F0E217F30788F403
:1056D000DF01A21BB30BA417B50758F42E1B3F0B19
:1056E000240F351FFB01318320830E94422B80E071
:1056F00001C081E00F900FBEDF91CF91089581E04E
:1057000080935B020895009721F48091520290915A
:105710005302DC015796ED91FC91589780E090E0A0
:10572000DC012191253A21F40196A11DB11DF9CF8B
:1057300008958091520290915302089580915D02E4
:10574000882331F080915402811104C082E00895D1
:1057500081E0089580E008950F931F93CF93DF9326
:10576000EC01009709F448C08E89E0915202F09153
:1057700053029689891708F03FC02C853D8537FD77
:105780000BC0E0915202F0915302968924E030E080
:10579000291B31093D872C8729E0829FC0011124F4
:1057A0008C569D4F2A853B8528173907F9F48E01C1
:1057B0000E5F1F4FC8010E94FF1FE0915202F0913F
:1057C000530286898E8B90915E02981710F4809315
:1057D0005E0229E0829FC0011124B8018C569D4FC2
:1057E000DF91CF911F910F910C94A61FE09152026F
:1057F000F091530286898E8BDF91CF911F910F918B
:1058000008950F931F93CF93DF93EC01009711F44A
:1058100080E02BC08AA181508AA32E8999A12917E3
:10582000B9F38111F5CF8E010E5F1F4FC8010E94A1
:10583000FF1F89A18E8B482F50E024E030E0241B0D
:10584000350B3D872C8790915E02981710F480935A
:105850005E0229E0249FC001259F900D1124B8010C
:105860008C569D4F0E94A61F81E0DF91CF911F9122
:105870000F910895E0915202F0915302848595852D
:10588000E0915202F0915302A0915202B091530262
:1058900056964C9124E030E0241B3109358724874B
:1058A00008958091520290915302892B39F0E09132
:1058B0005202F091530282A18F5F82A38091520223
:1058C0009091530208950F931F93182FCB010FB699
:1058D000F8940F92E0915202F091530243A154A127
:1058E00065A176A1452B462B472B69F4E091520226
:1058F000F091530221E027A3009729F061E00E9474
:1059000046250E94D0200F900FBE0FB6F8940F923C
:10591000E0915202F091530263A174A185A196A176
:105920006115710581059105A9F0E0915202F09190
:105930005302112329F013A214A215A216A20AC021
:105940008B019C01015011092109310903A314A302
:1059500025A336A3E0915202F091530217A20F90B3
:105960000FBE1F910F9108958F929F92AF92BF9299
:10597000CF92DF92EF92FF920F931F93CF93DF931B
:1059800000D000D0CDB7DEB7D7010FB6F8940F9294
:10599000E0915202F0915302E7A1E23061F1E0910F
:1059A0005202F0915302C3A0D4A0E5A0F6A04B018F
:1059B0005C0180949094A094B0948C209D20AE20A3
:1059C000BF2083A294A2A5A2B6A2E0915202F091B8
:1059D000530281E087A3109771F061E0CD01298324
:1059E0003A834B835C830E9446250E94D0205C81D1
:1059F0004B813A8129810F900FBE0FB6F8940F9218
:105A00000115110569F0E0915202F091530283A152
:105A100094A1A5A1B6A1F80180839183A283B38349
:105A2000E0915202F091530287A18130C1F0E091E0
:105A30005202F0915302C3A0D4A0E5A0F6A0DA016F
:105A4000C90180959095A095B0958C219D21AE219E
:105A5000BF2183A394A3A5A3B6A381E001C080E0E6
:105A6000E0915202F091530217A20F900FBE0F90D7
:105A70000F900F900F90DF91CF911F910F91FF909A
:105A8000EF90DF90CF90BF90AF909F908F90089550
:105A9000CF92DF92EF92FF920F931F93CF93DF93FA
:105AA000EC010FB6F8940F920115110549F0CBA047
:105AB000DCA0EDA0FEA0F801C082D182E282F382D8
:105AC0008FA192E09FA322303105C1F080F42130F4
:105AD000310519F50BA11CA12DA13EA1042B152BFD
