:100000000C94D7000C94FF000C94FF000C94FF009C
:100010000C94FF000C94FF000C94FF000C94FF0064
:100020000C94FF000C94FF000C94FF000C94FF0054
:100030000C9480220C94FF000C94FF000C94FF00A1
:100040000C94FF000C94FF000C94FF000C94FF0034
:100050000C94FF000C94FF000C94FF000C94FF0024
:100060000C943B010C94FF000C94FF000C94FF00D7
:100070000C94FF000C9491030C94FF000C94FF006F
:100080000C94FF000C94FF000C94FF000C94FF00F4
:100090000C949E1D0C94FF000C94FF000C94FF0028
:1000A0000C94FF000C94FF000C94FF007C317C3119
:1000B0007C314031A631B4317C317C314031A631C4
:1000C000036EDB363D9A9999993DABAAAA2A3E0068
:1000D0000000803F084AD73B3BCE016E84BCBFFD89
:1000E000C12F3D6C74319ABD56833DDA3D00C77F08
:1000F00011BED9E4BB4C3E916BAAAABE00000080A1
:100100003F072C7AA5BA6CC590DA3B9365FC8BBC93
:1001100053F810FD3C5692834DBD879D3AB63DCBBA
:10012000C9BF5BBE73DA0FC93F07634236B79BD8BE
:10013000A71A39685618AEBAAB558C1D3CB7CC57C8
:1001400063BD6DEDFD753EF6177231BF0000008096
:100150003F08000000BE922449123EABAAAA2ABE64
:10016000CDCCCC4C3E00000080BEABAAAAAA3E007B
:10017000000000BF000000803F00000000000841B8
:1001800078D3BB4387D1133D190E3CC3BD4282AD2A
:100190002B3E68EC8276BED98FE1A93E4C80EFFF02
:1001A000BE01C4FF7F3F000000000000E21E1124DA
:1001B0001FBECFEFDAE0DEBFCDBF11E0A0E0B1E0BF
:1001C000E0E8FFE602C005900D92AC33B107D9F725
:1001D00023E0ACE3B1E001C01D92AD3AB207E1F714
:1001E00011E0CEEAD1E004C02297FE010E94FE3168
:1001F000CC3AD107C9F70E94CB1E0C94BE370C94A1
:10020000000087B1806C87B9579A269AE2ECF0E03B
:10021000808189608083E0ECF0E08081836A808364
:10022000E1ECF0E0808187608083E3ECF0E08081A6
:10023000816080838FEF8093D100E0E9F0E08081DE
:1002400080688083E1E9F0E08081836180838FEFC3
:1002500090E0909397008093960008956E9A8CB5E5
:1002600080648CBD8CB58F7E8CBD2098239A8CB514
:1002700080688CBD08951F920F920FB60F921124C3
:100280008F93EF93FF93769A8EB580934701809179
:100290004701833711F410923C0180913C01893071
:1002A00060F4E0913C0181E08E0F80933C01F0E02E
:1002B00080914701E35CFE4F80838091470189363E
:1002C00099F03CF48E33B1F18536E9F18C33E9F5E0
:1002D00028C0823759F01CF4803789F036C0833744
:1002E00019F08937A9F031C081E230C080913D0119
:1002F000833759F580913E01893639F537C08091B1
:100300003D01833711F580913E018936F1F431C00A
:1003100080913D018337C9F480913E018936A9F46B
:100320002BC080913D01833781F480913E01893655
:1003300061F425C080913D01833739F480913E01FD
:10034000893619F41FC084E601C082E68EBD82366C
:1003500011F0843611F410923C017698FF91EF91E0
:100360008F910F900FBE0F901F90189580914B02A8
:10037000EDCF80914A02EACF80914902E7CF809188
:100380004E02E4CF80914C02E1CFE0ECF0E08081BE
:10039000806A8083E2ECF0E0808188608083E0E91D
:1003A000F0E080818068808308958091540290916C
:1003B00055028093D2008091500290915102809317
:1003C000D00080915602909157028093CF00809187
:1003D000520290915302909399008093980008954F
:1003E00043355105D1F410925502109254021092E7
:1003F000510210925002109257021092560210921F
:100400005302109252028BB18F7A8BB985B18F7CD7
:1004100085B981B38F7081BB50C081309105D9F00F
:100420001CF4892B39F008958230910529F1039746
:10043000A1F1089570E07093550260935402423424
:10044000510531F046345105D1F55C9A5E98089516
:100450005C985E9A089570E0709351026093500228
:100460004234510531F04634510549F52C9A2D9806
:1004700008952C982D9A089570E070935702609318
:1004800056024234510531F046345105C1F48C9A7C
:100490008D9808958C988D9A089570E0709353020A
:1004A000609352024234510531F04634510529F42B
:1004B0008E9A8F9802C08E988F9A0C94D5010895C9
:1004C000E0ECF0E080818F758083E2ECF0E08081E9
:1004D000877F8083E0E9F0E080818F77808360917F
:1004E00054027091550243E550E080E090E00E9494
:1004F000F001609150027091510243E550E081E0BB
:1005000090E00E94F001609156027091570243E51D
:1005100050E082E090E00E94F00160915202709100
:10052000530243E550E083E090E00C94F0010E9418
:10053000C501609154027091550246E450E080E09C
:1005400090E00E94F001609150027091510246E4E7
:1005500050E081E090E00E94F001609156027091BD
:10056000570246E450E082E090E00E94F001609182
:1005700052027091530246E450E083E090E00C9404
:10058000F0010E94C501609154027091550242E44D
:1005900050E080E090E00E94F00160915002709184
:1005A000510242E450E081E090E00E94F00160914D
:1005B00056027091570242E450E082E090E00E94BF
:1005C000F001609152027091530242E450E083E0E6
:1005D00090E00C94F0010E94C5016091540270916A
:1005E000550242E450E080E090E00E94F00160910A
:1005F00050027091510242E450E081E090E00E948C
:10060000F001609156027091570246E450E082E09A
:1006100090E00E94F001609152027091530246E412
:1006200050E083E090E00C94F0010E94C5016091DD
:1006300054027091550246E450E080E090E00E9440
:10064000F001609150027091510246E450E081E067
:1006500090E00E94F001609156027091570242E4CE
:1006600050E082E090E00E94F001609152027091AF
:10067000530242E450E083E090E00C94F0018C34AB
:1006800069F034F4823441F0863451F40C949702CA
:10069000823531F40C94EB020C94C1020C941503D6
:1006A0000C9460028AB180658AB984B1806384B990
:1006B00080B3806F80BB08958FE790E090935502E0
:1006C000809354029093510280935002909357026A
:1006D0008093560290935302809352020C94D5015A
:1006E0000E9401010E9452030E945C030E94970233
:1006F0008FE190E00E94BB2A0E9460028FE190E0AF
:100700000E94BB2A0E945C030E94C1028FE190E01C
:100710000E94BB2A0E9460028FE190E00E94BB2AE7
:10072000E3CF1F920F920FB60F9211248F939F93D6
:1007300080917C0080FF08C08091790090E09093C8
:100740004D0280934C0207C08091790090E0909315
:100750004F0280934E029F918F910F900FBE0F908A
:100760001F901895EAE7F0E0808188688083ECE7C5
:10077000F0E080818066808308950E94B2038091BA
:100780007C00807E80937C0080917B008F7D8093B5
:100790007B0083B7826083BF83B7816083BF889506
:1007A00083B78E7F83BF80917C00817E80937C00A5
:1007B00080917B008F7D80937B0080917C008160A5
:1007C00080937C00289883B7826083BF83B7816061
:1007D00083BF889583B78E7F83BF289A80914C0210
:1007E00090914D028B35910534F0769AF8940E94E1
:1007F00060027894C4CF7698C2CF62E971E08EEA45
:1008000091E00E941D1A80917C0190917D01FC0174
:10081000EE0FFF1FEE0FFF1FE258FE4F40919601B3
:100820005091970160919801709199014083518393
:1008300062837383019663E070E00E94E8319093D5
:100840007D0180937C0120E030E0A90160917E0170
:1008500070917F0180918001909181010E941732F7
:100860002091820130918301409184015091850152
:100870000E941732209186013091870140918801B2
:10088000509189010E94173220E030E040E450E4AA
:100890000E94F83260938E0170938F0180939001D3
:1008A0009093910160938A0170938B0180938C01E6
:1008B00090938D01089580EF92E00E94D01B81E01B
:1008C00090E00E94BB2A8EEA91E00E94C11081E074
:1008D00090E00E94BB2A8AB18C678AB90E94FD030E
:1008E0008FE190E00E94BB2AF9CF0895E091860243
:1008F000F09187028081811103C08FEF9FEF0CC0C0
:10090000E0918602F09187020580F681E02D068055
:10091000F781E02D8281938190935E0280935D0246
:10092000089580917102882349F10E944329C09162
:1009300072020E94162ACC23A1F30FB6F8940F92EC
:10094000E0917702F0917802C681D781CE010296BC
:100950000E94F92080916702815080936702809104
:1009600071028150809371020F900FBE8F89988D14
:100970000E947420CE010E947420D3CF80919A02ED
:10098000823010F00E94CA210E94DB04CACF009777
:1009900021F480915802909159020FB6F8940F9269
:1009A000FC0127A1223019F417A281E001C080E0E8
:1009B0000F900FBE089583EF80937E008FE38093A6
:1009C0007D0080B7877F80BF80B7806880BF83B796
:1009D000817F83BF0FB6F8940F9283B7816083BF86
:1009E0000F900FBE889513BE08953F9A479A2FEF38
:1009F00080E792E0215080409040E1F700C0000085
:100A0000379AF5CF3F9A479A2FEF87EA91E6215020
:100A100080409040E1F700C00000379AF5CFFC011C
:100A200081E08083118243EC5BEA66E77BE34283EB
:100A300053836483758348ED5BE666E77BE3468317
:100A400057836087718742EF54EE64E67BE3428709
:100A500053876487758708951F93CF93DF931F9201
:100A6000CDB7DEB7162FFC016489758980EF92E05F
:100A700049830E940E1C612F80EF92E00E94261C89
:100A80004981642F80EF92E00E94261C80EF92E063
:100A90000F90DF91CF911F910C94231C48E06DE2E1
:100AA0000C942C05FC01758B648B0C944E05AF9255
:100AB000BF92CF92DF92EF92FF920F931F93CF934B
:100AC000DF93EC01162F7A0169016C897D8980EF33
:100AD00092E00E940E1C612F80EF92E00E94261C83
:100AE00080EF92E00E94231C6C897D8980EF92E068
:100AF0000E940E1C6C897D89A70180EF92E00E9404
:100B0000FF1B86015801AC18BD0880EF92E00E94DF
:100B1000771C892B41F080EF92E00E947F1CF80146
:100B200081938F01EFCFAE14BF0419F0188281E0DA
:100B3000898380EF92E0DF91CF911F910F91FF9019
:100B4000EF90DF90CF90BF90AF900C94231CCF928A
:100B5000DF92EF92FF920F931F93CF93DF93EC01FD
:100B60006B017A0189019C01225F3F4F46E050E012
:100B700062E30E9457058F8590E0982F88272E8585
:100B8000822BF60191838083898990E0982F8827B2
:100B90002889822BF701918380838B8990E0982F9D
:100BA00088272A89822BF80191838083DF91CF9156
:100BB0001F910F91FF90EF90DF90CF9008959B01D0
:100BC0002C5F3F4FAB014E5F5F4F0C94A705AF9278
:100BD000BF92CF92DF92EF92FF920F931F93CF932A
:100BE000DF9300D000D000D0CDB7DEB77C015B0131
:100BF000BE016F5F7F4F0E94DF05CE0101966C0141
:100C0000870175015E0197E0A90EB11CF6016191A3
:100C100071916F01882777FD8095982F0E949333FB
:100C2000F80122813381448155810E949F34F7016C
:100C300061937193819391937F010C5F1F4FCA144D
:100C4000DB0421F726960FB6F894DEBF0FBECDBFAA
:100C5000DF91CF911F910F91FF90EF90DF90CF9098
:100C6000BF90AF9008950F931F93CF93DF931F9280
:100C7000CDB7DEB78B019E012F5F3F4F41E050E0C3
:100C800061E30E94570589818370F80180830F908A
:100C9000DF91CF911F910F910895FF920F931F93B2
:100CA000CF93DF931F92CDB7DEB78C0164507109EB
:100CB0006D30710528F4FB01EE5DFE4FF08001C040
:100CC000F12C9E012F5F3F4F41E050E061E3C801EE
:100CD0000E94570549814C7E4F2961E3C8010E945B
:100CE0002C050F90DF91CF911F910F91FF900895E8
:100CF0006F3F710534F4AB0177FF05C040E050E071
:100D000002C04FEF50E06DE10C942C05CF93DF93C0
:100D10001F92CDB7DEB79E012F5F3F4F41E050E0FD
:100D20006DE10E945705898190E00F90DF91CF918E
:100D30000895FC01DB014D915D916D917C911397BC
:100D4000428353836483758314964D915D916D91B5
:100D50007C911797468357836087718718964D91CA
:100D60005D916D917C911B9742875387648775874E
:100D70000895CF93DF93FC01EB014281538164819D
:100D80007581488359836A837B8346815781608557
:100D900071854C835D836E837F8382859385A48573
:100DA000B58588879987AA87BB87DF91CF910895FA
:100DB000EF92FF921F93CF93DF931F92CDB7DEB7D1
:100DC0007C01142F462F6EE129830E942C05412FB0
:100DD0006FE1C7010E942C052981422F60E2C70103
:100DE0000F90DF91CF911F91FF90EF900C942C0505
:100DF000AF92BF92CF92DF92EF92FF920F931F9329
:100E0000CF93DF931F92CDB7DEB78C015B016A01F0
:100E100079019E012F5F3F4F41E050E06EE10E945B
:100E20005705898190E0F501918380839E012F5FB2
:100E30003F4F41E050E06FE1C8010E9457058981B2
:100E400090E0F601918380839E012F5F3F4F41E048
:100E500050E060E2C8010E945705898190E0F701E7
:100E6000918380830F90DF91CF911F910F91FF901D
:100E7000EF90DF90CF90BF90AF9008956F3F7105D6
:100E800034F4AB0177FF05C040E050E002C04FEF03
:100E900050E061E20C942C05CF93DF931F92CDB705
:100EA000DEB79E012F5F3F4F41E050E061E20E94BC
:100EB0005705898190E00F90DF91CF910895462FDB
:100EC00062E20C942C05CF93DF931F92CDB7DEB76F
:100ED0009E012F5F3F4F41E050E062E20E945705C4
:100EE000898190E00F90DF91CF9108956F3F710558
:100EF00034F4AB0177FF05C040E050E002C04FEF93
:100F000050E063E20C942C05CF93DF931F92CDB792
:100F1000DEB79E012F5F3F4F41E050E063E20E9449
:100F20005705898190E00F90DF91CF9108956F3F31
:100F3000710534F4AB0177FF05C040E050E002C01A
:100F40004FEF50E064E20C942C05CF93DF931F9297
:100F5000CDB7DEB79E012F5F3F4F41E050E064E226
:100F60000E945705898190E00F90DF91CF910895FD
:100F70006F3F710534F4AB0177FF05C040E050E0EE
:100F800002C04FEF50E065E20C942C05CF93DF9345
:100F90001F92CDB7DEB79E012F5F3F4F41E050E07B
:100FA00065E20E945705898190E00F90DF91CF9113
:100FB00008956F3F710534F4AB0177FF05C040E041
:100FC00050E002C04FEF50E066E20C942C05CF9346
:100FD000DF931F92CDB7DEB79E012F5F3F4F41E0F9
:100FE00050E066E20E945705898190E00F90DF9102
:100FF000CF9108956F3F710534F4AB0177FF05C0C1
:1010000040E050E002C04FEF50E068E20C942C0545
:10101000CF93DF931F92CDB7DEB79E012F5F3F4F77
:1010200041E050E068E20E945705898190E00F900E
:10103000DF91CF9108956F3F710534F4AB0177FFD5
:1010400005C040E050E002C04FEF50E069E20C9470
:101050002C05CF93DF931F92CDB7DEB79E012F5F94
:101060003F4F41E050E069E20E945705898190E0DE
:101070000F90DF91CF910895CF93DF931F92CDB75B
:10108000DEB79E012F5F3F4F41E050E06CE20E94CF
:10109000570569816F7070E066507109882777FD88
:1010A0008095982F0E9493339B01AC0160E070E023
:1010B00080E090E40E94023520E030E048EC50E40B
:1010C0000E949F340F90DF91CF910895EF92FF928D
:1010D0000F931F93CF93DF931F92CDB7DEB78C0191
:1010E000CB01BA0120E030E048EC50E40E94F83235
:1010F0000E946033E12CF12C75956795611571059F
:1011000021F08FEFE81AF80AF7CF8AE0E816F10429
:1011100094F49E012F5F3F4F41E050E06CE2C80124
:101120000E94570546E04E0D8981807F482B6CE276
:10113000C8010E942C050F90DF91CF911F910F9154
:10114000FF90EF900895462F2AEF260F2A3028F0BF
:10115000FC01108222E0218308956CE20C942C059E
:10116000CF93DF931F92CDB7DEB79E012F5F3F4F26
:1011700041E050E06CE20E94570589810F90DF91B9
:10118000CF910895CF93DF931F92CDB7DEB79E0125
:101190002F5F3F4F41E050E060E30E945705898197
:1011A0000F90DF91CF910895DF92EF92FF920F930E
:1011B0001F93CF93DF931F92CDB7DEB78C01F62E2E
:1011C000E42ED22E9E012F5F3F4F41E050E00E945F
:1011D0005705898121E030E00E2C01C0220F0A94CE
:1011E000EAF7DD2011F0282B02C02095282329835F
:1011F00049816F2DC8010E942C050F90DF91CF917E
:101200001F910F91FF90EF90DF900895262F47E0F8
:1012100050E061E30C94D408262F46E050E061E3EF
:101220000C94D408262F45E050E061E30C94D408D8
:10123000262F43E050E061E30C94D408262F42E0CF
:1012400050E061E30C94D408262F46E050E067E2BA
:101250000C94D408262F45E050E067E20C94D408A3
:10126000262F44E050E067E20C94D408262F42E099
:1012700050E067E20C94D408262F41E050E067E28A
:101280000C94D408262F40E050E067E20C94D40878
:10129000262F47E050E067E20C94D408262F43E065
:1012A00050E067E20C94D408262F43E050E06AE255
:1012B0000C94D408262F42E050E06AE20C94D40843
:1012C000262F41E050E06AE20C94D408262F40E03B
:1012D00050E06AE20C94D408262F44E050E06CE21F
:1012E0000C94D408242F462F50E06FE20C94D408BD
:1012F000242F462F50E06EE20C94D4081F93CF9316
:10130000DF931F92CDB7DEB7142F9E012F5F3F4FA3
:1013100041E050E00E945705898190E002C0959518
:1013200087951A95E2F781700F90DF91CF911F9109
:10133000089547E050E061E30C947E0946E050E0F8
:1013400061E30C947E0945E050E061E30C947E0972
:1013500043E050E061E30C947E0942E050E061E339
:101360000C947E0946E050E067E20C947E0945E06B
:1013700050E067E20C947E0944E050E067E20C9490
:101380007E0942E050E067E20C947E0941E050E0C3
:1013900067E20C947E0940E050E067E20C947E091D
:1013A00047E050E067E20C947E0943E050E067E2DA
:1013B0000C947E0943E050E06AE20C947E0942E01E
:1013C00050E06AE20C947E0941E050E06AE20C943D
:1013D0007E0940E050E06AE20C947E0946E050E06D
:1013E0006BE20C947E0945E050E06BE20C947E09C0
:1013F00044E050E06BE20C947E0942E050E06BE286
:101400000C947E0941E050E06BE20C947E0940E0D0
:1014100050E06BE20C947E0943E050E06BE20C94E8
:101420007E0944E050E06CE20C947E09462F50E0C7
:1014300060E30C947E09462F50E06FE20C947E0925
:10144000462F50E06EE20C947E0908950895FC0149
:1014500040E050E060E87FE3408351836283738320
:101460004483558366837783408751876287738778
:101470001586148617861686118A108A428B538B1E
:10148000648B758B468B578B608F718F428F538F18
:10149000648F758F0895FC01868D08950F931F93B7
:1014A000FC01822F662329F000E010E020E83FEBEA
:1014B00004C000E010E020E83FE3028B138B248B94
:1014C000358B442329F040E050E060E87FEB04C016
:1014D00040E050E060E87FE3468B578B608F718F70
:1014E000882329F040E050E060E87FEB04C040E052
:1014F00050E060E87FE3428F538F648F758F1F91B8
:101500000F910895CF92DF92EF92FF920F931F9366
:10151000FC01408351836283738304831583268394
:101520003783C086D186E286F3861F910F91FF90A4
:10153000EF90DF90CF900895FC01758764875787FF
:101540004687318B208B08951F93CF93DF931F9293
:10155000CDB7DEB7162FFC01668D80EF92E0498390
:101560000E94041C612F80EF92E00E94261C49819A
:10157000642F80EF92E00E94261C80EF92E00F9093
:10158000DF91CF911F910C94231C1F93CF93DF9376
:10159000EC01162F462F60E00E94A40A1E8FDF91F7
:1015A000CF911F910895462F65E10C94A40A40E85D
:1015B0006EE30E94A40A86E490E0EFE9FFE0319731
:1015C000F1F700C0000001970097B9F70895CF9296
:1015D000DF92FF920F931F93CF93DF931F92CDB7AC
:1015E000DEB76C01F62E8901FC01668D80EF92E07A
:1015F00049830E94041C6F2D80EF92E00E94261CFC
:1016000080EF92E00E94231CF601668D80EF92E04D
:101610000E94041C4981F601668D80EF92E00E94D1
:10162000FC1BF12C80EF92E00E94771C892B59F073
:101630006801CF0CD11C80EF92E00E947F1CF60164
:101640008083F394EFCF80EF92E00F90DF91CF9102
:101650001F910F91FF90DF90CF900C94231CCF939C
:10166000DF93EC019C01215E3F4F41E065E10E9468
:10167000E70A8F8DDF91CF910895CF93DF93EC012F
:101680009C01215E3F4F41E066E10E94E70A8F8D99
:101690008871869586958695DF91CF9108951F93E1
:1016A000CF93DF93EC01162F9C01215E3F4F41E069
:1016B00066E10E94E70A88E0189FB00111244F8D6F
:1016C000477E462B66E1CE01DF91CF911F910C94AE
:1016D000A40ACF93DF93EC019C01215E3F4F41E0D0
:1016E00066E10E94E70A8F8D8770DF91CF910895A0
:1016F0001F93CF93DF93EC01162F9C01215E3F4F88
:1017000041E066E10E94E70A4F8D487F412B66E188
:10171000CE01DF91CF911F910C94A40ACF93DF9358
:10172000EC019C01215E3F4F41E067E10E94E70A26
:101730009F8D892F881F8827881FDF91CF9108955B
:101740001F93CF93DF93EC01162F9C01215E3F4F37
:1017500041E067E10E94E70A4F8D10FB47F967E11E
:10176000CE01DF91CF911F910C94A40ACF93DF9308
:10177000EC019C01215E3F4F41E067E10E94E70AD6
:101780008F8D86FB882780F9DF91CF9108951F9375
:10179000CF93DF93EC01162F9C01215E3F4F41E078
:1017A00067E10E94E70A80E4189FB00111244F8D81
:1017B0004F7B462B67E1CE01DF91CF911F910C94B7
:1017C000A40ACF93DF93EC019C01215E3F4F41E0DF
:1017D00067E10E94E70A8F8D85FB882780F9DF91FA
:1017E000CF9108951F93CF93DF93EC01162F9C01A7
:1017F000215E3F4F41E067E10E94E70A80E2189FC7
:10180000B00111244F8D4F7D462B67E1CE01DF9152
:10181000CF911F910C94A40ACF93DF93EC019C010C
:10182000215E3F4F41E067E10E94E70A8F8D82957C
:101830008170DF91CF9108951F93CF93DF93EC01D7
:10184000162F9C01215E3F4F41E067E10E94E70AAD
:1018500080E1189FB00111244F8D4F7E462B67E128
:10186000CE01DF91CF911F910C94A40ACF93DF9307
:10187000EC019C01215E3F4F41E067E10E94E70AD5
:101880008F8D82FB882780F9DF91CF9108951F9378
:10189000CF93DF93EC01162F9C01215E3F4F41E077
:1018A00067E10E94E70A84E0189FB00111244F8D80
:1018B0004B7F462B67E1CE01DF91CF911F910C94B6
:1018C000A40ACF93DF93EC019C01215E3F4F41E0DE
:1018D00067E10E94E70A8F8D8170DF91CF910895B3
:1018E0001F93CF93DF93EC01162F9C01215E3F4F96
:1018F00041E067E10E94E70A4F8D4E7F412B67E18F
:10190000CE01DF91CF911F910C94A40ACF93DF9366
:10191000EC019C01215E3F4F41E06AE10E94E70A31
:101920008F8D82FB882780F9DF91CF910895CF9327
:10193000DF93EC019C01215E3F4F41E06AE10E9490
:10194000E70A8F8D8170DF91CF9108950F931F93D8
:10195000CF93DF938C01EB019C01215E3F4F42E06E
:101960006BE10E94E70AF801678D70E0762F662729
:1019700080A1682B60577C4C882777FD8095982F35
:101980000E94933320E030E04CE853E40E94F832A8
:1019900020E030E04CE052E40E9417326883798303
:1019A0008A839B83DF91CF911F910F910895CF92EE
:1019B000DF92EF92FF920F931F93CF93DF93EC018F
:1019C0008B016A0179019C01215E3F4F46E06DE188
:1019D0000E94E70A8F8D90E0982F882728A1822BFC
:1019E000F8019183808389A190E0982F88272AA10C
:1019F000822BF601918380838BA190E0982F88271A
:101A00002CA1822BF70191838083DF91CF911F91CD
:101A10000F91FF90EF90DF90CF9008959B012C5F86
:101A20003F4FAB014E5F5F4F0C94D70C2F923F920C
:101A30004F925F926F927F928F929F92AF92BF92DE
:101A4000CF92DF92EF92FF920F931F93CF93DF938A
:101A5000CDB7DEB72C970FB6F894DEBF0FBECDBF63
:101A60001C0178876F835C874B87C12CD12C760152
:101A7000460157012601370100E010E08F8198856B
:101A80000817190709F448C080E090E02B853C85D1
:101A90008217930744F4EFE9FFE03197F1F700C0B4
:101AA00000000196F3CFBE016F5F7F4FC1010E941E
:101AB0000E0D69817A81882777FD8095982F0E9485
:101AC00093339B01AC01C301B2010E9417322B0179
:101AD0003C016B817C81882777FD8095982F0E943F
:101AE00093339B01AC01C501B4010E9417324B0135
:101AF0005C016D817E81882777FD8095982F0E94FB
:101B000093339B01AC01C701B6010E9417326B01F0
:101B10007C010F5F1F4FB2CFB80180E090E00E94C0
:101B200091336F83788789879A87C301B201905870
:101B30002F81388549855A850E94F8320E9460338A
:101B4000F10175876487C501B40190582F813885EC
:101B500049855A850E94F8320E946033F1017787E7
:101B60006687C701B60190582F81388549855A8507
:101B70000E94F8320E946033F101718B608B2C96C9
:101B80000FB6F894DEBF0FBECDBFDF91CF911F918E
:101B90000F91FF90EF90DF90CF90BF90AF909F900C
:101BA0008F907F906F905F904F903F902F9008950F
:101BB000CF92DF92EF92FF920F931F93CF93DF9319
:101BC000EC016B017A0189010E94D70CF60180813A
:101BD00091812C853D85820F931F91838083F7012E
:101BE000808191812E853F85820F931F9183808311
:101BF000F8018081918128893989820F931F91830F
:101C00008083DF91CF911F910F91FF90EF90DF9034
:101C1000CF9008959B012C5F3F4FAB014E5F5F4F0C
:101C20000C94D80DAF92BF92CF92DF92EF92FF92B9
:101C30000F931F93CF93DF9300D000D000D0CDB788
:101C4000DEB78C015B016A0179019E012F5F3F4F76
:101C5000AE014D5F5F4FBE016B5F7F4F0E94D80D9D
:101C60006D817E81882777FD8095982F0E94933320
:101C700020E030E046E651E40E94F832F801228983
:101C80003389448955890E949F34F801208131812C
:101C9000428153810E949F34F50160837183828366
:101CA00093836B817C81882777FD8095982F0E9494
:101CB000933320E030E046E651E40E94F832F80128
:101CC00026893789408D518D0E949F34F8012481E7
:101CD0003581468157810E949F34F601608371836C
:101CE0008283938369817A81882777FD8095982FF5
:101CF0000E94933320E030E046E651E40E94F8323F
:101D0000F801228D338D448D558D0E949F34F8014A
:101D100020853185428553850E949F34F701608379
:101D200071838283938326960FB6F894DEBF0FBE2D
:101D3000CDBFDF91CF911F910F91FF90EF90DF907A
:101D4000CF90BF90AF9008959B01285F3F4FAB01AC
:101D50004C5F5F4F0C94120ECF93DF93EC019C010C
:101D6000215E3F4F41E06EE30E94E70A8F8D86FBC4
:101D7000882780F9DF91CF9108951F93CF93DF9348
:101D8000EC01162F9C01215E3F4F41E06EE30E9463
:101D9000E70A80E4189FB00111244F8D4F7B462B3A
:101DA0006EE3CE01DF91CF911F910C94A40ACF93E3
:101DB000DF93EC019C01215E3F4F41E06EE30E9406
:101DC000E70A8F8D85FB882780F9DF91CF910895F1
:101DD000CF93DF93EC019C01215E3F4F41E06EE326
:101DE0000E94E70A8F8D82958170DF91CF910895CF
:101DF000CF93DF93EC019C01215E3F4F41E06EE306
:101E00000E94E70A8F8D83FB882780F9DF91CF91AD
:101E100008951F93CF93DF93EC01162F9C01215E51
:101E20003F4F41E06EE30E94E70A80E2189FB00155
:101E300011244F8D4072462B6EE3CE01DF91CF917E
:101E40001F910C94A40A1F93CF93DF93EC01162FDC
:101E50009C01215E3F4F41E06EE30E94E70A80E172
:101E6000189FB00111244F8D4071462B6EE3CE01B7
:101E7000DF91CF911F910C94A40A1F93CF93DF930E
:101E8000EC01162F9C01215E3F4F41E06EE30E9462
:101E9000E70A88E0189FB00111244F8D4870462B47
:101EA0006EE3CE01DF91CF911F910C94A40ACF93E2
:101EB000DF93EC019C01215E3F4F41E06EE30E9405
:101EC000E70A8F8D8770DF91CF9108951F93CF938D
:101ED000DF93EC01162F9C01215E3F4F41E06EE342
:101EE0000E94E70A4F8D487F412B6EE3CE01DF91C0
:101EF000CF911F910C94A40A8F929F92AF92CF9290
:101F0000EF920F93CF93DF931F92CDB7DEB74C01C3
:101F1000FC01668F642F29830E94D30A2981622FD6
:101F2000C4010E944F0B602FC4010E94780B6E2DDC
:101F3000C4010E94660F6C2DC4010E94470C6A2DDB
:101F4000C4010E94700C86E490E0EFE9FFE0319755
:101F5000F1F700C0000001970097B9F70F90DF91EB
:101F6000CF910F91EF90CF90AF909F908F90089569
:101F7000AF92CF92EF920F93AA24A394CC24C39450
:101F8000EE24E39400E023E040E00E947C0F0F91F8
:101F9000EF90CF90AF9008953FB7F8948091EC0206
:101FA0009091ED02A091EE02B091EF0226B5A89BB0
:101FB00002C02F3F89F43FBF6627782F892F9A2FC1
:101FC000620F711D811D911D42E0660F771F881FF2
:101FD000991F4A95D1F708950196A11DB11DEBCF28
:101FE000EF92FF920F931F93CF93DF93CDB7DEB79E
:101FF000A5970FB6F894DEBF0FBECDBF8C010E942F
:102000000F05780186E1E80EF11CC7010E94270A3E
:10201000CE0101960E940F0586E1FE013196D8019E
:1020200001900D928A95E1F7CE0101960E94270A50
:1020300085E2FE013196D70101900D928A95E1F774
:10204000F801EB59FF4F40E050E060E87FE3408348
:1020500051836283738334961082118212821382B9
:102060003496108211821282138234961082118269
:1020700012821382B09710821182128213823496D8
:10208000108211821282138234961082118212827F
:1020900013823496408351836283738334964DEC6C
:1020A0005CEC6CE47EE340835183628373837496BB
:1020B000108211821282138234961082118212824F
:1020C0001382349610821182128213823496108207
:1020D000118212821382349610821182128213822C
:1020E000A5960FB6F894DEBF0FBECDBFDF91CF919E
:1020F0001F910F91FF90EF9008950F931F93CF932F
:10210000DF93EC018A018FE99FE00197F1F700C0AE
:1021100000008FE99FE00197F1F700C000008FE910
:102120009FE00197F1F700C000008FE99FE0019761
:10213000F1F700C000008FE99FE00197F1F700C0C0
:102140000000CE010E9452056696B801CE010E94A1
:10215000B80F28EE33E08FE99FE00197F1F700C058
:1021600000002150310921153105A9F745E050E063
:1021700060E870E0CE01DF91CF911F910F910C9438
:10218000160D20E048E650E063E570E00C947D1009
:10219000262F48E650E063E570E00C947D100F9325
:1021A0001F93CF93DF938C01EB019B012C5F3F4F7B
:1021B000AB014E5F5F4F0E94A7059E01265F3F4F18
:1021C000AE01485F5F4FBE016A5F7F4FC801469610
:1021D000DF91CF911F910F910C94D70CEF92FF924A
:1021E0000F931F93CF93DF9300D000D000D0CDB7D3
:1021F000DEB77C018B019E012B5F3F4FAE014D5F2F
:102200005F4FBE016F5F7F4F0E94A70569817A8192
:10221000882777FD8095982F0E949333F80160837B
:102220007183828393836B817C81882777FD80957E
:10223000982F0E949333F801648375838683978374
:102240006D817E81882777FD8095982F0E9493333A
:10225000F8016087718782879387B801645F7F4F39
:10226000C70146960E94A40E26960FB6F894DEBFCC
:102270000FBECDBFDF91CF911F910F91FF90EF90D7
:1022800008954F925F926F927F928F929F92AF923A
:10229000BF92CF92DF92EF92FF92CF93DF93CDB7B1
:1022A000DEB760970FB6F894DEBF0FBECDBF6B01EF
:1022B0007C0180E090E0A0ECBFE389839A83AB834C
:1022C000BC8320E030E040E05FE3C701B6010E943C
:1022D0009F3469877A878B879C87CD82DE82EF82E5
:1022E000F8868D819E81AF81B8858D879E87AF8767
:1022F000B88B4D855E856F857889759567955795FF
:10230000479586E89AE5A7E3BFE5841B950BA60BE6
:10231000B70B8D879E87AF87B88B8D859E85AF85E0
:10232000B8898D839E83AF83B887CD80DE80EF80B0
:10233000F88489809A80AB80BC8069857A858B859A
:102340009C852D813E814F8158854D805E806F80B8
:1023500078840E949F34A30192010E949F349B01C4
:10236000AC01C501B4010E9416329B01AC01C7014A
:10237000B6010E949F346D837E838F8398876D8121
:102380007E818F81988560960FB6F894DEBF0FBE70
:10239000CDBFDF91CF91FF90EF90DF90CF90BF90B6
:1023A000AF909F908F907F906F905F904F90089527
:1023B0002F923F924F925F926F927F928F929F9255
:1023C000AF92BF92CF92DF92EF92FF920F931F9343
:1023D000CF93DF93CDB7DEB7C454D1090FB6F894CD
:1023E000DEBF0FBECDBF1C014D875E876F87788B28
:1023F000098B1A8B2B8B3C8B6D964CAC5DAC6EAC09
:102400007FAC6D97FC01EB59FF4F208131814281F8
:10241000538129873A874B875C874081518162814C
:1024200073814D8F5E8F6F8F78A360817181828100
:102430009381698F7A8F8B8F9C8F810107591F4FF2
:10244000D8018D919D910D90BC91A02D89A39AA347
:10245000ABA3BCA320813181428153812DA33EA334
:102460004FA358A7910123593F4FD9014D915D9139
:102470006D917C9149A75AA76BA77CA74081518198
:10248000628173813C964081518162817381D80160
:102490004D915D916D917C9113974D915D916D91F1
:1024A0007C9113974D915D916D917C91D9014D91E6
:1024B0005D916D917C91D8014D915D916D917C9173
:1024C0004DA75EA76FA778AB408151816281738170
:1024D00049AB5AAB6BAB7CABD9014D915D916D9122
:1024E0007C9113974D915D916D917C9113974D91D6
:1024F0005D916D917C914DAB5EAB6FAB78AF208100
:1025000031814281538129AF3AAF4BAF5CAF4081FB
:1025100051816281738121964CAF5DAF6EAF7FAF09
:102520002197608171818281938125966CAF7DAF07
:102530008EAF9FAF259720E030E0A901C501B4011F
:102540000E94F432882309F487C220E030E0A90118
:10255000C301B2010E94F432882309F47DC220E055
:1025600030E0A901A1966CAD7DAD8EAD9FADA19778
:102570000E94F432882309F46FC2A5019401C501B9
:10258000B4010E949F3469837A838B839C83A30167
:102590009201C301B2010E949F349B01AC01698189
:1025A0007A818B819C810E94173269837A838B8325
:1025B0009C83A1962CAD3DAD4EAD5FADA197CA01F8
:1025C000B9010E949F349B01AC0169817A818B81A2
:1025D0009C810E9417320E94411169837A838B8308
:1025E0009C839B01AC01C501B4010E949F346D8B9B
:1025F0007E8B8F8B988F29813A814B815C81C301BF
:10260000B2010E949F342B013C0129813A814B8108
:102610005C81A1966CAD7DAD8EAD9FADA1970E9402
:102620009F344B015C0129A93AA94BA95CA96DA56E
:102630007EA58FA598A90E949F346D837E838F838A
:10264000988729A53AA54BA55CA56DA17EA18FA170
:1026500098A50E949F349B01AC016D817E818F8182
:1026600098850E9416326D837E838F83988729A177
:102670003AA14BA15CA1698D7A8D8B8D9C8D0E94B6
:102680009F3469837A838B839C8329AD3AAD4BADAC
:102690005CAD6DA97EA98FA998AD0E949F349B0166
:1026A000AC0169817A818B819C810E941732698F8C
:1026B0007A8F8B8F9C8F2D8D3E8D4F8D58A1698584
:1026C0007A858B859C850E949F3420E030E040E035
:1026D0005FE30E94163269837A838B839C832596FD
:1026E0002CAD3DAD4EAD5FAD259721966CAD7DAD6A
:1026F0008EAD9FAD21970E949F349B01AC016981F3
:102700007A818B819C810E94173269877A878B87B7
:102710009C879B01AC01C301B2010E949F34698375
:102720007A838B839C83298D3A8D4B8D5C8DC5017B
:10273000B4010E949F349B01AC0169817A818B8135
:102740009C810E94163220E030E0A9010E941732DD
:1027500069837A838B839C832D813E814F81588549
:10276000C501B4010E949F344B015C0129853A8563
:102770004B855C856D897E898F89988D0E949F34F9
:102780009B01AC01C501B4010E94163220E030E08B
:10279000A9010E94173269877A878B879C87298DC8
:1027A0003A8D4B8D5C8D6D897E898F89988D0E94C5
:1027B0009F344B015C012D813E814F815885C301BF
:1027C000B2010E949F349B01AC01C501B4010E947B
:1027D000163220E030E0A9010E9417326D8B7E8B0B
:1027E0008F8B988F20E030E0A90169817A818B81FD
:1027F0009C810E94F432882309F42EC120E030E04D
:10280000A90169857A858B859C850E94F43288238D
:1028100009F422C120E030E0A9016D897E898F8909
:10282000988D0E94F432882309F416C108501109CA
:10283000D8016D917D918D919C9120E030E0A901AE
:102840000E949434F101EB58FF4FFE83ED8318167C
:102850000CF0ABC0D8014D905D906D907C9074965B
:10286000208131814281538160E070E080E89FE304
:102870000E94F832698F7A8F8B8F9C8FED81FE8159
:1028800080809180A280B38029813A814B815C81D4
:10289000C301B2010E949F34298D3A8D4B8D5C8D0E
:1028A0000E949F349B01AC01C501B4010E94173204
:1028B000AD81BE816D937D938D939C931397F801A9
:1028C00060817181828193812101F9E74F0E511C52
:1028D000D2018D909D90AD90BC9029853A854B8515
:1028E0005C850E949F34298D3A8D4B8D5C8D0E94B2
:1028F0009F349B01AC01C501B4010E941732F20163
:102900006083718382839383D8016D917D918D91D2
:102910009C913101BDE76B0E711CF30180809180A9
:10292000A280B3802D893E894F89588D0E949F34A3
:10293000298D3A8D4B8D5C8D0E949F349B01AC019B
:10294000C501B4010E941732D3016D937D938D931D
:102950009C931397ED81FE812081318142815381C7
:102960006D857E858F8598890E9417326D877E8759
:102970008F87988BD2012D913D914D915C91698902
:102980007A898B899C890E941732698B7A8B8B8B11
:102990009C8BF3012081318142815381C701B601B3
:1029A0000E9417326B017C0113C0AD81BE811D9264
:1029B0001D921D921C921397F101E758FF4F108250
:1029C0001182128213823496108211821282138233
:1029D0008101035A1F4FF8016081718182819381C7
:1029E00029813A814B815C810E949F349B01AC011B
:1029F0006D857E858F8598890E9417326D877E87C9
:102A00008F87988BD8016D917D918D919C912985AF
:102A10003A854B855C850E949F349B01AC01698996
:102A20007A898B899C890E941732698B7A8B8B8B70
:102A30009C8BF80160817181828193812D893E890F
:102A40004F89588D0E949F349B01AC01C701B6018C
:102A50000E9417326B017C01F101E757FF4F208183
:102A600031814281538160E070E080E89FE30E9401
:102A7000F83220E030E040E05FE30E949F344B01F9
:102A80005C019B01AC016D857E858F8598890E94D4
:102A90009F346D837E838F839887A5019401698914
:102AA0007A898B899C890E949F3469837A838B837E
:102AB0009C83A5019401C701B6010E949F346987D8
:102AC0007A878B879C8781010B591F4FD801CD9046
:102AD000DD90ED90FC90CD8ADE8AEF8AF88EF101D0
:102AE000E759FF4FFE87ED87C080D180E280F380F9
:102AF000C98EDA8EEB8EFC8E3496FA8BE98BC08011
:102B0000D180E280F380CD8EDE8EEF8EF8A2B1E729
:102B10002B0E311CF1014080518062807380D801FE
:102B2000CD90DD90ED90FC90698D7A8D8B8D9C8D94
:102B300090582D813E814F8158850E949F344B01D2
:102B40005C0129813A814B815C816D8D7E8D8F8DF9
:102B500098A10E949F349B01AC01C501B4010E9461
:102B600016324B015C0129853A854B855C85C30192
:102B7000B2010E949F349B01AC01C501B4010E94C7
:102B800016329B01AC01C701B6010E941732F80151
:102B90006083718382839383D1014D905D906D90AA
:102BA0007C90ED85FE85C080D180E280F3802D8110
:102BB0003E814F8158856D897E898F89988D0E94CD
:102BC0009F344B015C0129853A854B855C856D8D71
:102BD0007E8D8F8D98A10E949F349B01AC01C50111
:102BE000B4010E9417324B015C0129813A814B816B
:102BF0005C81C301B2010E949F349B01AC01C501FD
:102C0000B4010E9416329B01AC01C701B6010E94BB
:102C10001732AD85BE856D937D938D939C931397ED
:102C2000F1014080518062807380A989BA89CD907A
:102C3000DD90ED90FC9029813A814B815C816D891A
:102C40007E898F89988D0E949F344B015C01298574
:102C50003A854B855C85698D7A8D8B8D9C8D0E9424
:102C60009F349B01AC01C501B4010E9416324B0197
:102C70005C012D813E814F815885C301B2010E94C4
:102C80009F349B01AC01C501B4010E9417329B0126
:102C9000AC01C701B6010E941732E989FA89608345
:102CA000718382839383D101CD90DD90ED90FC9070
:102CB00029853A854B855C856D897E898F89988DBC
:102CC0000E949F344B015C0129813A814B815C81D8
:102CD000698D7A8D8B8D9C8D0E949F349B01AC01F8
:102CE000C501B4010E9417324B015C012D813E8168
:102CF0004F8158856D8D7E8D8F8D98A10E949F3458
:102D00009B01AC01C501B4010E9416329B01AC01CC
:102D1000C701B6010E941732F1016083718382837B
:102D20009383D8016D917D918D919C9113972D91F5
:102D30003D914D915C91ED85FE8580809180A280D2
:102D4000B3804080518062807380A989BA89CD9018
:102D5000DD90ED90FC901397CD82DE82EF82F886B5
:102D6000CD90DD90ED90FC90C982DA82EB82FC82FE
:102D7000D101CD90DD90ED90FC901397C986DA8655
:102D8000EB86FC86CD90DD90ED90FC90CD8ADE8ABE
:102D9000EF8AF88E0E949F346B017C01A30192019F
:102DA000C501B4010E949F349B01AC01C701B6016B
:102DB0000E9417326B017C0129813A814B815C8131
:102DC0006D817E818F8198850E949F349B01AC012B
:102DD000C701B6010E9417326B017C012D893E8923
:102DE0004F89588D69857A858B859C850E949F3493
:102DF0009B01AC01C701B6010E9417320E9441112C
:102E00006B017C01F8016081718182819381A7014E
:102E100096010E949F34D8016D937D938D939C936E
:102E20001397ED85FE856081718182819381A70171
:102E300096010E949F34AD85BE856D937D938D93E1
:102E40009C931397E989FA896081718182819381CA
:102E5000A70196010E949F34A989BA896D937D9339
:102E60008D939C931397F10160817181828193818D
:102E7000A70196010E949F34D1016D937D938D939C
:102E80009C931397CC5BDF4F0FB6F894DEBF0FBE59
:102E9000CDBFDF91CF911F910F91FF90EF90DF9009
:102EA000CF90BF90AF909F908F907F906F905F90EA
:102EB0004F903F902F9008952F923F924F925F92A4
:102EC0006F927F928F929F92AF92BF92CF92DF923A
:102ED000EF92FF920F931F93CF93DF93CDB7DEB79F
:102EE000A6970FB6F894DEBF0FBECDBF3C017EA300
:102EF0006DA3BE016F5F7F4F0E94EE100E94CC0F4A
:102F00006B017C01F301EB57FF4F60837183828378
:102F10009383130129E8220E311C230131E8430E6B
:102F2000511CF20180819181A281B381A701960198
:102F3000281B390B4A0B5B0BCA01B9010E94913364
:102F400020E034E244E759E40E94F8329B01AC01EE
:102F500060E070E080E89FE30E94F832F101608356
:102F6000718382839383F201C082D182E282F382F1
:102F700089809A80AB80BC802BED3FE049E450E42F
:102F80006D897E898F89988D0E949F3420E030E082
:102F900044E353E40E94F8326B017C012BED3FE0E7
:102FA00049E450E469897A898B899C890E949F341D
:102FB00020E030E044E353E40E94F8321B012C018E
:102FC0002BED3FE049E450E46D857E858F8598893F
:102FD0000E949F3420E030E044E353E40E94F83242
:102FE000AB01BC011F921F921F921F921F921F9252
:102FF0001F921F921F921F921F921F928C858F9378
:103000008B858F938A858F9389858F9388858F93FE
:103010008F818F938E818F938D818F939201810108
:10302000C3010E94D811F301EB59FF4F80819181B8
:10303000A281B381EDA1FEA180839183A283B3839A
:10304000F301E759FF4F80819181A281B381EDA106
:10305000FEA184839583A683B783F301E359FF4FD1
:1030600080819181A281B381EDA1FEA180879187AA
:10307000A287B387F301EF58FF4F80819181A2812E
:10308000B381EDA1FEA184879587A687B7870FB688
:10309000F894DEBF0FBECDBFA6960FB6F894DEBF84
:1030A0000FBECDBFDF91CF911F910F91FF90EF9099
:1030B000DF90CF90BF90AF909F908F907F906F9058
:1030C0005F904F903F902F9008954F925F926F9234
:1030D0007F928F929F92AF92BF92CF92DF92EF92A8
:1030E000FF920F931F93CF93DF93CDB7DEB7A497D3
:1030F0000FB6F894DEBF0FBECDBF8B01BE016F5F70
:103100007F4F0E945C1789809A80AB80BC80A501AC
:103110009401C501B4010E9417326D8B7E8B8F8B99
:10312000988FA50194010E949F34698F7A8F8B8FAD
:103130009C8F4D805E806F807884A3019201C301D3
:10314000B2010E9417324B015C0189859A85AB85DB
:10315000BC85898B9A8BAB8BBC8BCD84DE84EF8452
:10316000F888A3019201C501B4010E949F349B011C
:10317000AC01698D7A8D8B8D9C8D0E94173220E079
:1031800030E040E85FE30E9416326D8F7E8F8F8FB4
:1031900098A329893A894B895C89C501B4010E94A9
:1031A0009F3469A37AA38BA39CA3A70196016D8981
:1031B0007E898F89988D0E949F349B01AC0169A103
:1031C0007AA18BA19CA10E9416322D8D3E8D4F8D30
:1031D00058A10E94A13220E030E044E353E40E9471
:1031E0009F342BED3FE049E450E40E94F832D801CF
:1031F0006D937D938D939C931397A7019601C501C1
:10320000B4010E949F344B015C0129893A894B89A2
:103210005C896D897E898F89988D0E949F349B017E
:10322000AC01C501B4010E9417320E947B32905854
:1032300020E030E044E353E40E949F342BED3FE074
:1032400049E450E40E94F832F80164837583868370
:103250009783A7019601C701B6010E941732A70103
:1032600096010E949F349B01AC01698D7A8D8B8DF4
:103270009C8D0E94173220E030E040E85FE30E941E
:1032800016324B015C0129893A894B895C89CA0154
:10329000B9010E941732A70196010E949F346B0169
:1032A0007C01A30192016D897E898F89988D0E948E
:1032B0009F349B01AC01C701B6010E941632A501E3
:1032C00094010E94A13220E030E044E353E40E94E4
:1032D0009F342BED3FE049E450E40E94F832D801DE
:1032E00018966D937D938D939C931B97A4960FB620
:1032F000F894DEBF0FBECDBFDF91CF911F910F912C
:10330000FF90EF90DF90CF90BF90AF909F908F9005
:103310007F906F905F904F9008954F925F926F9261
:103320007F928F929F92AF92BF92CF92DF92EF9255
:10333000FF920F931F93CF93DF93CDB7DEB72C97F8
:103340000FB6F894DEBF0FBECDBF8B01BE016F5F1D
:103350007F4F0E94651849805A806B807C80F801FD
:1033600040825182628273828D809E80AF80B88459
:1033700084829582A682B782C984DA84EB84FC8435
:10338000C086D186E286F38620E030E0A901C30141
:10339000B2010E94F43287FF0DC020E030E044EB20
:1033A00053E4C301B2010E941732F80160837183B4
:1033B0008283938320E030E0A901C501B4010E941B
:1033C000F43287FF0DC020E030E044EB53E4C50148
:1033D000B4010E941732F801648375838683978352
:1033E00020E030E0A901C701B6010E94F43287FF56
:1033F0000DC020E030E044EB53E4C701B6010E9469
:103400001732F80160877187828793872C960FB6F1
:10341000F894DEBF0FBECDBFDF91CF911F910F910A
:10342000FF90EF90DF90CF90BF90AF909F908F90E4
:103430007F906F905F904F9008954F925F926F9240
:103440007F928F929F92AF92BF92CF92DF92EF9234
:10345000FF920F931F93CF93DF93CDB7DEB7A8975B
:103460000FB6F894DEBF0FBECDBF8B01BE016F5FFC
:103470007F4F0E945C178D809E80AF80B8848D85C1
:103480009E85AF85B889898B9A8BAB8BBC8B498025
:103490005A806B807C8089859A85AB85BC858D8BB5
:1034A0009E8BAF8BB88F29893A894B895C89C5017E
:1034B000B4010E949F346B017C012D893E894F89A4
:1034C000588DC301B2010E949F349B01AC01C7011A
:1034D000B6010E9416329B01AC010E941732698F1F
:1034E0007A8F8B8F9C8FA5019401C301B2010E943A
:1034F0009F346B017C0129893A894B895C896D89EC
:103500007E898F89988D0E949F349B01AC01C701F1
:10351000B6010E9417329B01AC010E9417326D8FD9
:103520007E8F8F8F98A3A3019201C301B2010E94E5
:103530009F346B017C01A5019401C501B4010E9477
:103540009F349B01AC01C701B6010E9416326B018A
:103550007C012D893E894F89588DCA01B9010E948D
:103560009F349B01AC01C701B6010E9416326B016A
:103570007C0129893A894B895C89CA01B9010E9479
:103580009F349B01AC01C701B6010E94173269A3A9
:103590007AA38BA39CA3A3019201C301B2010E9451
:1035A00017326B017C01A5019401C501B4010E9491
:1035B00017326DA37EA38FA398A7A3019201C70121
:1035C000B6010E949F342B013C01A50194016DA11D
:1035D0007EA18FA198A50E949F349B01AC01C301DD
:1035E000B2010E94173220E030E040E85FE30E9421
:1035F00016322B013C012D893E894F89588D6DA1D2
:103600007EA18FA198A50E949F344B015C0129895E
:103610003A894B895C89C701B6010E949F349B019E
:10362000AC01C501B4010E941632A30192010E94AF
:10363000A13220E030E044E353E40E949F342BEDBC
:103640003FE049E450E40E94F832D8016D937D9345
:103650008D939C93139729A13AA14BA15CA1CA0118
:10366000B9010E949F346B017C012D8D3E8D4F8DE1
:1036700058A1CA01B9010E949F34A70196010E9476
:1036800017320E9452359B01AC01698D7A8D8B8D6A
:103690009C8D0E94F8320E94CC3220E030E044E35E
:1036A00053E40E949F342BED3FE049E450E40E9434
:1036B000F832F8016483758386839783298D3A8D68
:1036C0004B8D5C8DCA01B9010E949F34A701960100
:1036D0000E9417320E9452359B01AC016D8D7E8D88
:1036E0008F8D98A10E94F8320E94CC3220E030E009
:1036F00044E353E40E949F342BED3FE049E450E45F
:103700000E94F832D80118966D937D938D939C9307
:103710001B97A8960FB6F894DEBF0FBECDBFDF9102
:10372000CF911F910F91FF90EF90DF90CF90BF90BE
:10373000AF909F908F907F906F905F904F90089583
:10374000E091F102F091F2023097E1F030911A032A
:10375000209119033217B0F040E0242F30E02617F3
:10376000370754F4DC01A20FB31F5C91D901A55EA9
:10377000BC4F5C934F5FF1CF10921A036093190313
:10378000CB0109940895E091F302F091F40230978F
:1037900029F01092F7021092F60209940895089504
:1037A00010921A03109219031092F7021092F60267
:1037B0000C94AC1CCF93DF93EC01862F0E94C21CAB
:1037C00083EC9BE10E94811D80EA9BE10E947C1DAD
:1037D000CE01DF91CF910C94D01B0C94DA1B862F75
:1037E000413208F040E26BE173E00E94C61C109287
:1037F0001A0380931903089521E00C94EF1B21E034
:103800000C94EF1B0C94EF1B81E08093F502609306
:1038100018031092F7021092F60208950C94041CFB
:103820000F93062F21E04091F60268EF72E080913D
:1038300018030E940A1D1092F7021092F6021092CD
:10384000F5020F91089561E00C94101CCF93DF9363
:103850001F92CDB7DEB769838091F502882389F086
:103860008091F6028032A8F48091F702E82FF0E010
:10387000E850FD4F60838F5F8093F7028093F602DC
:1038800005C061E0CE0101960E94631D81E090E0D9
:1038900002C080E090E00F90DF91CF910895CF9229
:1038A000DF92EF92FF920F931F93CF93DF937C01F0
:1038B000CB018A012091F502222361F0EB016B011B
:1038C000C40ED51ECC15DD0541F06991C7010E94DB
:1038D000261CF8CF642F0E94631DC801DF91CF9191
:1038E0001F910F91FF90EF90DF90CF9008958091FE
:1038F000190390E020911A03821B910908952091E9
:103900001A0380911903281750F4E22FF0E0E55EC6
:10391000FC4F808190E02F5F20931A0308958FEF72
:103920009FEF0895E0911A0380911903E81730F48E
:10393000F0E0E55EFC4F808190E008958FEF9FEF0F
:10394000089508957093F2026093F10208957093C0
:10395000F4026093F30208951092A80381E080932B
:10396000A6031092A503E9EBF0E080818E7F8083AF
:1039700080818D7F808388E48093B80085E4809384
:10398000BC000895880F8093BA000895413208F072
:103990003FC09091A8039111FCCF91E09093A803B0
:1039A0002093A6032FEF20933B0310928003240F54
:1039B00020937F039093A7039091A703880F892BEF
:1039C0008093A7038091A503813041F41092A50351
:1039D0008091A7038093BB0085EC01C085EE8093A6
:1039E000BC008091A8038130E1F3809180038417AB
:1039F00010F44091800321E833E0FB01D9018A2FC4
:103A0000821B841718F48D918193F9CF842F089528
:103A100080E008950F93413208F04CC09091A803C4
:103A2000953010F01092A8039091A8039111FCCF4B
:103A300092E09093A8030093A6039FEF90933B031B
:103A40001092800340937F03FB0161E873E0DB0188
:103A50009A2F961B941718F491919D93F9CF109279
:103A6000A7039091A703880F892B8093A7038091C8
:103A7000A503813041F41092A5038091A7038093A0
:103A8000BB0085EC01C085EE8093BC00222321F0B1
:103A90008091A8038230E1F380913B038F3F61F076
:103AA00080913B03803251F080913B03803341F49D
:103AB00083E007C081E005C080E003C082E001C070
:103AC00084E00F910895613298F42091A803243086
:103AD00089F460935D03FC018FE593E0DC012A2FFC
:103AE000281B261718F421912D93F9CF80E0089513
:103AF00081E0089582E008959093A2038093A1034A
:103B000008959093A4038093A3030895882311F04C
:103B100085EC01C085E88093BC00089585ED809315
:103B2000BC008091BC0084FDFCCF1092A8030895D6
:103B300085EC8093BC001092A80308951F920F9209
:103B40000FB60F9211242F933F934F935F936F9370
:103B50007F938F939F93AF93BF93EF93FF93809146
:103B6000B900887F803609F49CC068F5883209F472
:103B70005BC090F4803109F454C038F4882309F410
:103B8000F5C0883009F44DC0F5C0883109F44CC047
:103B9000803209F45DC0EEC0803409F468C048F496
:103BA000803309F455C0883309F0E4C080933B03A7
:103BB000A8C0803509F44FC0883509F45DC0883449
:103BC00009F0D8C0D5C0883909F4C6C0A8F4883730
:103BD00009F467C038F4883609F463C0803709F403
:103BE00060C0C8C0883809F4B7C0803909F45FC024
:103BF000803809F0BFC05BC0803B09F485C038F451
:103C0000803A09F466C0883A09F47EC0B3C0803CAB
:103C100009F4A6C0883C09F4A3C0883B09F489C014
:103C2000A9C08091A70310C09091800380917F0369
:103C3000981770F5E091800381E08E0F80938003E8
:103C4000F0E0EF57FC4F80818093BB0085EC85C08E
:103C500080933B038DC0E091800381E08E0F8093C1
:103C600080038091BB00F0E0EF57FC4F8083909180
:103C7000800380917F036DC0E091800381E08E0F0F
:103C8000809380038091BB00F0E0EF57FC4F80836E
:103C90008091A60381116CC081E08093A50384EA22
:103CA00060C083E08093A80310923C03CFCF809143
:103CB0003C03803208F050C0E0913C0381E08E0F5D
:103CC00080933C038091BB00F0E0E35CFC4F808379
:103CD000BDCF80913C03803230F4E0913C03F0E0B2
:103CE000E35CFC4F10820E948E1D60913C0370E0EB
:103CF000E091A103F091A2038DE393E00995109266
:103D00003C030E94981D36C084E08093A803109263
:103D10005E0310925D03E091A303F091A403099563
:103D200080915D03811105C081E080935D03109255
:103D30005F03E0915E0381E08E0F80935E03F0E00D
:103D4000E15AFC4F80818093BB0090915E0380918B
:103D50005D03981708F47ACF85E88093BC000AC009
:103D600085EC8093BC001092A80304C010923B0322
:103D70000E948E1DFF91EF91BF91AF919F918F9106
:103D80007F916F915F914F913F912F910F900FBE57
:103D90000F901F901895CF93DF9300D000D0CDB730
:103DA000DEB70E942E0178941C821B821A8219822F
:103DB0008B819C8101969C838B838B819C819A83D0
:103DC0008983F6CF8EEA91E00C94F00FCF93DF93C6
:103DD0008BE090E00E945520EC01009731F0FC014F
:103DE00011921192CF010E948E20CE01DF91CF91CE
:103DF0000895AF92BF92CF92DF92EF92FF920F930E
:103E00001F93CF93DF937C01EB01B42EA22E0E946F
:103E10004329F701C080D180CE018C219D21A110C2
:103E200003C0892B29F43CC08C179D0709F038C0CA
:103E3000BB2041F0CE01809590958C219D21F7010A
:103E40009183808300E010E00E94162A012B09F480
:103E50003DC0811102C00E94CA210E942E2D91FDF9
:103E60001CC00FB6F8940F92F701808191819E01DA
:103E700028233923A11003C0232B21F40CC02C17B5
:103E80003D0749F4BB2039F0C095D095C823D9230C
:103E9000F701D183C0830F900FBE6C01DD2416C0E3
:103EA0000115110589F2B11003C060E070E002C095
:103EB00060E071E0A11074606C2B7D2BA801C7013C
:103EC00002960E948B2BC12CD12CBECFC601DF9154
:103ED000CF911F910F91FF90EF90DF90CF90BF9007
:103EE000AF900895FC010FB6F8940F9280819181F4
:103EF0006095709568237923718360830F900FBE5E
:103F00000895FC01808191810895CF92DF92EF9214
:103F1000FF920F931F93CF93DF93EC018B017C01F2
:103F200085E0E80EF11C0E944329EF81F885888125
:103F30009981802B912B9983888300E010E0688120
:103F40007981EE15FF05E1F0D280C38020813181B7
:103F5000C9019927AC014623572332FD03C0452BE5
:103F600021F40BC04817590741F430FF02C0082B59
:103F7000192B7260CF010E94022CED2DFC2DDFCF9A
:103F80000095109506231723198308830E94162A8B
:103F900088819981DF91CF911F910F91FF90EF90D0
:103FA000DF90CF900895AF92BF92CF92DF92EF92C1
:103FB000FF920F931F93CF93DF93EC015B018A0174
:103FC00069010E944329E880F980B501CE010E9471
:103FD000851FEA28FB28C7018023912380179107BA
:103FE00061F48881998198012095309582239323EB
:103FF00099838883C12CD12C0FC0C114D10451F0F6
:10400000A601B8017560CE0102960E948B2BE12CAF
:10401000F12C02C0E880F9800E94162ACD28E9F030
:10402000811102C00E94CA210E942E2D91FD13C051
:104030000FB6F8940F92888199819801282339232B
:104040002017310731F4009510950823192319839F
:1040500008830F900FBE7C01FF24C701DF91CF9131
:104060001F910F91FF90EF90DF90CF90BF90AF9096
:104070000895CF93DF93EC010E9443298A8188231E
:1040800039F060E072E08F8198850E94022CF6CFB3
:10409000CE010E947420DF91CF910C94162ABA01B0
:1040A0000C94851FBA010C94721F0F931F93CF932A
:1040B000DF9300D0CDB7DEB789839A830E9443296E
:1040C00089819A810E9487368C010E94162A0115E7
:1040D000110511F40E94F504C8010F900F90DF91B3
:1040E000CF911F910F910895CF93DF9300D0CDB75B
:1040F000DEB7009771F089839A830E9443298981F2
:104100009A810E941F370F900F90DF91CF910C94EE
:10411000162A0F900F90DF91CF910895FC0103961E
:10412000928381832FEF3FEF3483238396838583AC
:104130009087878310820895FC0111861086089568
:10414000CF93DF939C01FB01DC011196CD91DC91B3
:104150001297D383C2838C819D81958384838C81C4
:104160009D81DC0113967C936E9312977D836C8303
:1041700031872087F90180818F5F8083DF91CF9124
:1041800008950F931F93CF93DF938C01FB01208140
:1041900031812F3F8FEF380721F4E801AF81B885D7
:1041A0000EC0D801139612968D919C911397EC0135
:1041B000488159812417350710F0DC01F4CF12969D
:1041C0008D919C91139793838283EC01FD83EC8303
:1041D000B583A4831396FC93EE93129711870087FF
:1041E000F80180818F5F8083DF91CF911F910F91C4
:1041F0000895CF93DF93FC01A085B18582819381DF
:1042000024813581EC013D832C83C481D5819B833E
:104210008A8311968D919C9112978E179F0721F496
:104220001296DC93CE931197118610868C91815053
:104230008C93DF91CF91089531E1FC013083319768
:1042400022E220833197A3E3A083319760833197E3
:10425000708331971082319760E8608331971082C4
:10426000319762E06083319763E06083319764E067
:104270006083319765E06083319766E060833197B2
:1042800067E06083319768E06083319769E060831D
:10429000319760E1608331973083319732E1308329
:1042A000319733E13083319734E13083319735E111
:1042B0003083319736E13083319737E1308331975E
:1042C00038E13083319739E13083319730E2308300
:1042D000319731E2308331972083319723E2208375
:1042E0003197408331975083319726E2208331976D
:1042F00027E22083319728E22083319729E2208327
:10430000319720E32083319721E320838697089516
:10431000A89520EC88E190E00FB6F894A8958093DA
:1043200060000FBE20936000A0915802B091590226
:10433000CD91CDBFDD91DEBFFF91EF91DF91CF91A8
:10434000BF91AF919F918F917F916F915F914F91AD
:104350003F912F911F910F91FF90EF90DF90CF90A1
:10436000BF90AF909F908F907F906F905F904F9095
:104370003F902F901F900F900FBE0F90089581E0F7
:10438000089588E10FB6F894809360001092600061
:104390000FBE08950F920FB6F8940F921F9211243A
:1043A0002F923F924F925F926F927F928F929F9245
:1043B000AF92BF92CF92DF92EF92FF920F931F9333
:1043C0002F933F934F935F936F937F938F939F931D
:1043D000AF93BF93CF93DF93EF93FF93A0915802D6
:1043E000B09159020DB60D920EB60D920E94D72AC9
:1043F000A0915802B0915902CD91CDBFDD91DEBFA1
:10440000FF91EF91DF91CF91BF91AF919F918F91EC
:104410007F916F915F914F913F912F911F910F91DC
:10442000FF90EF90DF90CF90BF90AF909F908F90D4
:104430007F906F905F904F903F902F901F900F90C4
:104440000FBE0F9008950F920FB6F8940F921F921F
:1044500011242F923F924F925F926F927F928F9290
:104460009F92AF92BF92CF92DF92EF92FF920F9303
:104470001F932F933F934F935F936F937F938F93EC
:104480009F93AF93BF93CF93DF93EF93FF93A0914D
:104490005802B09159020DB60D920EB60D9213BE90
:1044A0000E94632981110E94D72AA0915802B091DD
:1044B0005902CD91CDBFDD91DEBFFF91EF91DF912C
:1044C000CF91BF91AF919F918F917F916F915F91AC
:1044D0004F913F912F911F910F91FF90EF90DF909F
:1044E000CF90BF90AF909F908F907F906F905F9094
:1044F0004F903F902F901F900F900FBE0F900895F8
:104500000E94232218950FB6F8940F92FC01928D09
:104510000F900FBE81E0911180E008950F931F93DB
:10452000CF93DF93EC01042F1A8D4C8D41110BC0FA
:1045300088819981892BE9F58A819B810E94F52CDC
:104540001B821A8237C050E0011115C08C819D81F9
:104550000E94AE372C8D8C819D81820F911D9D8391
:104560008C832A813B818217930718F18881998176
:104570009D838C831EC08E819F810E94AE372C8DBF
:1045800030E03195219531098E819F81820F931FF3
:104590009F838E83688179818617970730F48A819B
:1045A0009B81820F931F9F838E83023011F4111120
:1045B000115080E01F5F1A8FDF91CF911F910F91F3
:1045C0000895FC01CB01448D4423A1F050E02681E5
:1045D0003781240F351F3783268362817381261725
:1045E000370720F0208131813783268366817781E8
:1045F0000C94AE370895FF920F931F93CF93DF93E0
:10460000EC010FB6F8940F92FE8C8C010F5E1F4FD9
:104610001F145CF48989882341F0C8010E94C22BD1
:1046200081110E94732CFA94F3CF8FEF8E8F0F902D
:104630000FBE0FB6F8940F92FD8C8E01085F1F4FCE
:104640001F145CF48885882341F0C8010E94C22BA6
:1046500081110E94732CFA94F3CF8FEF8D8F0F90FE
:104660000FBEDF91CF911F910F91FF900895CF93CF
:10467000DF93EC010FB6F8940F92288139818B8D6E
:104680007C8D879FC0011124A901480F591F5B83AE
:104690004A831A8E3D832C83871B9109820F931FB7
:1046A0009F838E838FEF8D8F8E8F61110CC08885D5
:1046B000882389F0CE0108960E94C22B882359F0E6
:1046C0000E94CA2108C0CE0108960E948E20CE0109
:1046D00041960E948E200F900FBE81E0DF91CF9116
:1046E0000895EF92FF921F93CF93DF931F92CDB760
:1046F000DEB7182F662321F0869FC001112402C067
:1047000080E090E04F9669830E9455207C0169818A
:10471000009799F0611104C0FC019183808306C069
:104720009C01215E3F4FFC0131832083F701138FF1
:10473000648F61E0C7010E943723C7010F90DF91AA
:10474000CF911F91FF90EF900895CF93C62F42E035
:1047500060E00E947123009711F0FC01C28FCF919D
:104760000895BF92CF92DF92EF92FF920F931F9323
:10477000CF93DF9300D000D01F92CDB7DEB78C016E
:104780006B015D834C83B22E20E07C0188E0E80E53
:10479000F11C0FB6F8940F92F801928D838D981743
:1047A00018F0F2E0BF1214C04B2DB601C8010E94F0
:1047B0008E22F8019189992321F0C80141960E9427
:1047C000C22B81110E94CA210F900FBE81E050C000
:1047D0008C819D81892B19F40F900FBE48C0211147
:1047E00004C0CE0101960E94362C0F900FBE0E948D
:1047F00043290FB6F8940F92F801858D8F3F09F485
:10480000158EF801868D8F3F09F4168E0F900FBE1E
:10481000BE016C5F7F4FCE0101960E94412C811139
:1048200021C00FB6F8940F92F801928D838D0F90EE
:104830000FBE981311C06C817D81C7010E947A2B35
:10484000C8010E94FB220E94162A882311F021E051
:10485000A0CF0E94CA21FBCFC8010E94FB220E9468
:10486000162AF5CFC8010E94FB220E94162A80E07A
:104870000F900F900F900F900F90DF91CF911F919D
:104880000F91FF90EF90DF90CF90BF900895CF935E
:10489000DF93482F60E081E00E947123EC010097D4
:1048A00061F01B821A82198218821E8220E040E089
:1048B00050E060E070E00E94B123CE01DF91CF9123
:1048C00008950F931F93CF93DF93EC010A811B810F
:1048D0000E948D2C0817190771F48E8181508E83E8
:1048E00081110BC020E040E050E060E070E0CE01BC
:1048F0000E94B12302C080E001C081E0DF91CF912E
:104900001F910F910895FF920F931F93CF93DF9301
:10491000EC018A019A8D8B8D981710F02230E1F40A
:10492000FE8C422FCE010E948E228FEFF81210C013
:104930008989882379F0CE0141960E94C22B882371
:1049400049F00115110531F081E0F801808305C0BF
:10495000F394FE8E81E001C080E0DF91CF911F9142
:104960000F91FF900895CF93DF93FC01EB01928D9F
:10497000838D9817B8F4868D9F5F928F8F3F71F467
:104980008189882369F0CF0141960E94C22B882338
:1049900039F0209729F081E0888305C08F5F868FEA
:1049A00081E001C080E0DF91CF910895AF92BF9286
:1049B000CF92DF92EF92FF920F931F93CF93DF93EB
:1049C00000D000D01F92CDB7DEB78C016B015D83A4
:1049D0004C83A22E20E07C0181E1E80EF11C0FB691
:1049E000F8940F92F801B28CBB2071F1E680F78049
:1049F000B601C8010E94E122A11019C0BA94F801C1
:104A0000B28E80819181892B29F40E94452DF80175
:104A100093838283F8018085882391F0C8010896EA
:104A20000E94C22B882361F00E94CA2109C0F801AC
:104A3000F782E6828189882319F0C8014196F0CF78
:104A40000F900FBE81E05FC08C819D81892B19F48E
:104A50000F900FBE57C0211104C0CE0101960E94D5
:104A6000362C0F900FBE0E9443290FB6F8940F9278
:104A7000F801858D8F3F09F4158EF801868D8F3FE3
:104A800009F4168E0F900FBEBE016C5F7F4FCE01F2
:104A900001960E94412C81112BC0C8010E948322E3
:104AA000882301F1F80180819181892B51F40FB69F
:104AB000F8940F92F801828193810E94A02C0F90AC
:104AC0000FBE6C817D81C7010E947A2BC8010E94B4
:104AD000FB220E94162A882311F021E080CF0E9439
:104AE000CA21FBCFC8010E94FB220E94162AF5CFE3
:104AF000C8010E94FB220E94162AC8010E9483223C
:104B0000882359F380E00F900F900F900F900F9033
:104B1000DF91CF911F910F91FF90EF90DF90CF9099
:104B2000BF90AF900895EF92FF920F931F93CF9392
:104B3000DF93EC018B01EA80FB800E948D2CE8164C
:104B4000F90629F48E818F5F8E8381E00CC020E00E
:104B5000A80160E070E0CE010E94D624882319F0FD
:104B60009E819F5F9E83DF91CF911F910F91FF9058
:104B7000EF900895EF92FF920F931F93CF93DF93DF
:104B8000EC018A01EA8CEE20E1F0FD8C0E94E1222A
:104B9000EA94EA8E8FEFF81210C08885882379F0A6
:104BA000CE0108960E94C22B882349F001151105F9
:104BB00031F081E0F801808305C0F394FD8E81E03F
:104BC00001C080E0DF91CF911F910F91FF90EF9096
:104BD00008950F931F93CF93DF93EC018A8D882361
:104BE00049F00E811F81CE010E94E1221F830E83B6
:104BF00081E001C080E0DF91CF911F910F91089576
:104C00000FB6F8940F92FC01828D0F900FBE08959D
:104C10000FB6F8940F92FC01228D838D821B0F90AA
:104C20000FBE0895FC01828D08950C947420FC0140
:104C3000928D81E0911180E00895FC01228D81E048
:104C4000938D291380E00895CF93DF93EC010FB685
:104C5000F8940F928D8D8F3F09F41D8E8E8D8F3FAE
:104C600009F41E8E0F900FBE8A8D811104C0CE01F3
:104C700041960E94A32BCE01DF91CF910C94FB2291
:104C8000EF92FF920F931F93CF93DF931F92CDB7B5
:104C9000DEB77C0100916502109166028091580296
:104CA00090915902029669830E94F92069818FEFE1
:104CB000E816F80699F4662389F06091580270911D
:104CC00059026E5F7F4F88E692E00F90DF91CF919F
:104CD0001F910F91FF90EF900C94A020E00EF11E19
:104CE000E0915802F0915902F382E28260915802F9
:104CF00070915902E016F10678F480918402909147
:104D000085026E5F7F4F0F90DF91CF911F910F91C2
:104D1000FF90EF900C94C1208091860290918702C1
:104D20006E5F7F4F0E94C12080915D0290915E0274
:104D3000E816F90620F4F0925E02E0925D020F9010
:104D4000DF91CF911F910F91FF90EF9008955F92A7
:104D50006F927F928F929F92AF92BF92CF92DF928B
:104D6000EF92FF920F931F93CF93DF934C01562E38
:104D7000172F5A013901CA010E9455206C01009772
:104D800009F4D6C088E290E00E945520EC0100971B
:104D9000A1F0D88ECF8AA50165EA70E0C6010E9415
:104DA000B73721E0A21AB108CF88D88CCA0CDB1C17
:104DB000E52DF12F80E090E008C0C6010E9474202C
:104DC000B7C001968830910561F0BF0141919E0105
:104DD000280F391FD90159964C93DB012C912111D1
:104DE000F0CF18A2063008F005E00E8B09A31AA236
:104DF0005E01B2E0AB0EB11CC5010E949C20CE0149
:104E00000C960E949C20D987C88786E090E0801B82
:104E100091099D878C87DB8BCA8B1BA21CA21DA2CC
:104E20001EA21FA2A301B401C6010E941C219983E6
:104E30008883E114F10419F0F701D183C0830FB620
:104E4000F8940F92809167028F5F80936702809140
:104E5000580290915902892BA1F5D0935902C09321
:104E60005802809167028130E1F50AE912E0C80139
:104E70000E948E20075F1F4FF2E0003D1F07B9F729
:104E800081E992E00E948E2088E892E00E948E20C4
:104E90008BE792E00E948E2082E792E00E948E20B3
:104EA00088E692E00E948E2081E992E0909387024A
:104EB0008093860288E892E0909385028093840232
:104EC00010C08091630281110CC0E0915802F091F2
:104ED000590296898E89891720F0D0935902C09380
:104EE000580280915F028F5F80935F028E8990915C
:104EF0006402981710F48093640229E0829FC00135
:104F00001124B50186569D4F0E94A0200F900FBE20
:104F100080916302882351F0E0915802F091590288
:104F200096898E89981710F40E94CA2181E001C0E9
:104F30008FEFDF91CF911F910F91FF90EF90DF9056
:104F4000CF90BF90AF909F908F907F906F905F9029
:104F500008950F931F93CF93DF93EC010FB6F8944E
:104F60000F92009721F4C0915802D09159028E01FE
:104F70000E5F1F4FC8010E94F9208C899D89892BE3
:104F800021F0CE010C960E94F92080915F028F5F84
:104F900080935F028091580290915902C817D907F7
:104FA00059F4B80182E792E00E94A020809171023A
:104FB0008F5F809371020EC0809167028150809351
:104FC00067028F89988D0E947420CE010E94742000
:104FD0000E9476040F900FBE80916302882349F0EF
:104FE0008091580290915902C817D90711F40E9474
:104FF000CA21DF91CF911F910F9108950FB6F894B8
:105000000F92009721F48091580290915902FC016F
:1050100086890F900FBE0895009721F48091580261
:1050200090915902FC0186890895FF920F931F9376
:10503000CF93DF93EC01663008F065E00FB6F8948B
:105040000F92209721F4C0915802D091590229A1C2
:10505000261709F44CC080915802909159022617E6
:1050600068F4C817D90779F0E0915802F091590215
:10507000FF24F3948689681738F405C0FF24F3945D
:10508000C817D90709F0F12C8E89281301C06E8B3F
:1050900069A32C853D8537FD06C026E030E0261B40
:1050A00031093D872C8729E0829FC0011124865653
:1050B0009D4F2A853B8528173907B1F48E010E5F75
:1050C0001F4FC8010E94F9208E89909164029817A1
:1050D00010F48093640229E0829FC0011124B8017A
:1050E00086569D4F0E94A020F1100E94CA210F9069
:1050F0000FBEDF91CF911F910F91FF9008950F93F5
:105100001F93CF93DF93EC01009709F439C080918E
:10511000580290915902C817D90791F10FB6F89427
:105120000F928A859B858856924041F58C899D898E
:1051300022E08B37920711F1892B01F58E010E5F6A
:105140001F4FC8010E94F9208E8990916402981720
:1051500010F48093640229E0829FC0011124B801F9
:1051600086569D4F0E94A020E0915802F09159026E
:105170009E898689981710F00E94CA210F900FBE51
:10518000DF91CF911F910F910895FF920F931F937D
:10519000CF93DF93EC018A859B8588569240A9F5D1
:1051A0008C899D8932E08B37930779F1892B69F5DA
:1051B00080915A02811122C0E0915802F091590267
:1051C000FF24F3949E898689981708F4F12C8E01A8
:1051D0000E5F1F4FC8010E94F9202E898091640242
:1051E000821710F42093640239E0239FC001112438
:1051F000B80186569D4F0E94A02008C0BE01645F82
:105200007F4F8BE792E00E94A020F12C8F2DDF9141
:10521000CF911F910F91FF900895EF92FF920F93FE
:105220008BE5E82E82E0F82E00E020E030E040EC54
:1052300050E06FE271E081E994E00E94A72681309E
:10524000B9F40E94D32F813099F4F8948FEF9FEF37
:1052500090935E0280935D0281E0809363021092DE
:105260006602109265020F91FF90EF900C948821D6
:105270000F91FF90EF900895F894109263020E94AE
:10528000C1217894089580915A028F5F80935A02C9
:1052900008950FB6F8940F9280916502909166027E
:1052A0000F900FBE08958091650290916602089557
:1052B000809167020895009721F48091580290919F
:1052C000590249960895CF92DF92EF92FF920F9381
:1052D0001F93CF93DF9380915A02811191C0C091A7
:1052E0006502D09166022196D0936602C093650252
:1052F0002097B9F4809186029091870220918402D0
:105300003091850230938702209386029093850224
:1053100080938402809160028F5F809360020E947C
:10532000760480915D0290915E02D12CC817D90756
:1053300008F455C099E0C92EE0918602F0918702E9
:105340008081811107C08FEF9FEF90935E02809361
:105350005D0245C0E0918602F09187020580F681EA
:10536000E02D06811781D80112962D913C9113975B
:10537000C217D30728F430935E0220935D022FC03A
:105380007801B2E0EB0EF11CC7010E94F920F80190
:1053900024893589232B21F0C8010C960E94F9201D
:1053A000D80156962C9180916402821710F42093B4
:1053B0006402C29EC0011124B70186569D4F0E940F
:1053C000A020E0915802F0915902D80156969C9184
:1053D0008689981708F4B0CFDD24D394ADCFE0913F
:1053E0005802F0915902E689B9E0EB9FF0011124CF
:1053F000E656FD4F8081823048F0DD24D39406C00C
:10540000809162028F5F80936202D12C8091610251
:10541000882311F0DD24D3948D2DDF91CF911F913E
:105420000F91FF90EF90DF90CF900895EF92FF9251
:105430000F931F93CF93DF930FB6F8940F92809141
:105440005A02815080935A0280915A02882311F0A7
:1054500080E052C0809167028823D1F3C0E0D0E0A1
:1054600029E0F22EEE24E39480917B02882351F10F
:10547000E0918002F0918102C681D781CE010C9625
:105480000E94F9208E010E5F1F4FC8010E94F92073
:105490008E8990916402981710F480936402F89EAC
:1054A000C0011124B80186569D4F0E94A020E091B2
:1054B0005802F09159029E8986899817A8F2E092C5
:1054C0006102D2CFCD2B11F00E947604C09162020E
:1054D000CC2351F0D1E00E9463298111D093610265
:1054E000C150C9F71092620280916102882309F4C9
:1054F000AFCF0E94CA2181E00F900FBEDF91CF9104
:105500001F910F91FF90EF9008950F931F93CF93EA
:10551000DF93EC018B010E94432940916502509179
:105520006602E881F9819F01200F311F4E175F0746
:1055300028F42E173F0748F481E004C081E02E17BD
:105540003F0720F04217530708F080E03983288393
:10555000882331F060E0C901841B950B0E9440262E
:105560000E94162A811102C00E94CA21DF91CF91A8
:105570001F910F910895CF93DF9300D0CDB7DEB781
:10558000009719F40E94CA210DC089839A830E9452
:10559000432960E089819A810E9440260E94162A50
:1055A000882381F30F900F90DF91CF910895809120
:1055B0005A02882321F081E08093610208951092BD
:1055C0006102A0915802B0915902E0915802F09105
:1055D00059022D913C918789908D8217930760F035
:1055E000609158027091590280915802909159022D
:1055F000675E7F4F0E9402052091640299E0929FAE
:10560000F0011124E656FD4F8081811102C0215026
:10561000F6CFA181B28112960D90BC91A02DB283DC
:10562000A183CF010396A817B90731F412968D9183
:105630009C911397928381830180F281E02D868172
:1056400097819093590280935802209364020895A1
:105650000F931F93CF93DF93EC010FB6F8940F9243
:10566000009721F4C0915802D09159028E010E5F2B
:105670001F4FC8010E94F9208C899D89892B21F038
:10568000CE010C960E94F920B80188E692E00E94B3
:10569000A0200F900FBE80916302882339F00FB6CF
:1056A000F8940F920E9476040F900FBE80915802DA
:1056B00090915902C817D907C1F4809163028823D9
:1056C00019F00E94CA2111C080916702909168026E
:1056D000981305C0109259021092580206C0DF912B
:1056E000CF911F910F910C94D72ADF91CF911F91E9
:1056F0000F910895CF93DF93EB0160915802709161
:105700005902645F7F4F0E94C12061E0CE01DF91AA
:10571000CF910C944026CF93DF93EA01E091580299
:10572000F091590270687587648760915802709192
:105730005902645F7F4F0E94A02061E0CE01DF919B
:10574000CF910C9440260F931F93CF93DF931F921A
:10575000CDB7DEB78B016091580270915902645F3A
:105760007F4F49830E94A0204981442311F00FEF0D
:105770001FEF642FC8010F90DF91CF911F910F9100
:105780000C9440260F931F93CF93DF93DC01159663
:10579000ED91FC911697C681D7818E01045F1F4F52
:1057A000C8010E94F92080915A02811114C00A5048
:1057B0001109C8010E94F9208E89909164029817FE
:1057C00010F480936402B9E08B9FC0011124B801EA
:1057D00086569D4F03C0B8018BE792E00E94A0203F
:1057E000E0915802F09159029E898689891720F428
:1057F00081E08093610201C080E0DF91CF911F9131
:105800000F9108950F931F93CF93DF937068FC015E
:1058100071836083C681D7810E94F9208E010E5F5B
:105820001F4FC8010E94F9208E8990916402981739
:1058300010F480936402F9E08F9FC0011124B80135
:1058400086569D4F0E94A020E0915802F091590287
:105850009E898689891720F481E08093610201C0C6
:1058600080E0DF91CF911F910F9108952091600208
:10587000FC012083209165023091660232832183EE
:105880000895CF93DF930FB6F8940F92E0916502DD
:10589000F0916602DB014D915C914F3FBFEF5B07DA
:1058A000D1F0B0916002EC01A88129813A81BA1748
:1058B00019F0E217F30788F4DF01A21BB30BA4175A
:1058C000B50758F42E1B3F0B240F351FFB01318306
:1058D00020830E94362C80E001C081E00F900FBE33
:1058E000DF91CF91089581E0809361020895009740
:1058F00021F48091580290915902DC015796ED9164
:10590000FC91589780E090E0DC012191253A21F448
:105910000196A11DB11DF9CF089580915802909173
:105920005902089580916302882331F080915A02D0
:10593000811104C082E0089581E0089580E0089517
:105940000F931F93CF93DF93EC01009709F448C0A6
:105950008E89E0915802F09159029689891708F0D2
:105960003FC02C853D8537FD0BC0E0915802F0917A
:105970005902968926E030E0291B31093D872C87A2
:1059800029E0829FC001112486569D4F2A853B85C0
:1059900028173907F9F48E010E5F1F4FC8010E94C6
:1059A000F920E0915802F091590286898E8B9091EE
:1059B0006402981710F48093640229E0829FC0016A
:1059C0001124B80186569D4FDF91CF911F910F9101
:1059D0000C94A020E0915802F091590286898E8B98
:1059E000DF91CF911F910F9108950F931F93CF9344
:1059F000DF93EC01009711F480E02BC08AA1815065
:105A00008AA32E8999A12917B9F38111F5CF8E01A7
:105A10000E5F1F4FC8010E94F92089A18E8B482F6D
:105A200050E026E030E0241B350B3D872C87909119
:105A30006402981710F48093640229E0249FC00147
:105A4000259F900D1124B80186569D4F0E94A020DD
:105A500081E0DF91CF911F910F910895E09158025D
:105A6000F091590284859585E0915802F091590290
:105A7000A0915802B091590256964C9126E030E020
:105A8000241B31093587248708958091580290910D
:105A90005902892B39F0E0915802F091590282A104
:105AA0008F5F82A3809158029091590208950F93BD
:105AB0001F93182FCB010FB6F8940F92E091580264
:105AC000F091590243A154A165A176A1452B462B23
:105AD000472B69F4E0915802F091590221E027A385
