:100000000C94D7000C94FF000C94FF000C94FF009C
:100010000C94FF000C94FF000C94FF000C94FF0064
:100020000C94FF000C94FF000C94FF000C94FF0054
:100030000C9415210C94FF000C94FF000C94FF000D
:100040000C94FF000C94FF000C94FF000C94FF0034
:100050000C94FF000C94FF000C94FF000C94FF0024
:100060000C94FF000C94FF000C94FF000C94FF0014
:100070000C94FF000C94FF000C94FF000C94FF0004
:100080000C94FF000C94FF000C94FF000C94FF00F4
:100090000C94271C0C94FF000C94FF000C94FF00A0
:1000A0000C94FF000C94FF000C94FF0017301730E5
:1000B0001730DB2F41304F3017301730DB2F4130F6
:1000C000036EDB363D9A9999993DABAAAA2A3E0068
:1000D0000000803F084AD73B3BCE016E84BCBFFD89
:1000E000C12F3D6C74319ABD56833DDA3D00C77F08
:1000F00011BED9E4BB4C3E916BAAAABE00000080A1
:100100003F072C7AA5BA6CC590DA3B9365FC8BBC93
:1001100053F810FD3C5692834DBD879D3AB63DCBBA
:10012000C9BF5BBE73DA0FC93F07634236B79BD8BE
:10013000A71A39685618AEBAAB558C1D3CB7CC57C8
:1001400063BD6DEDFD753EF6177231BF0000008096
:100150003F08000000BE922449123EABAAAA2ABE64
:10016000CDCCCC4C3E00000080BEABAAAAAA3E007B
:10017000000000BF000000803F00000000000841B8
:1001800078D3BB4387D1133D190E3CC3BD4282AD2A
:100190002B3E68EC8276BED98FE1A93E4C80EFFF02
:1001A000BE01C4FF7F3F000000000000771D112446
:1001B0001FBECFEFDAE0DEBFCDBF11E0A0E0B1E0BF
:1001C000E6EBFCE602C005900D92A235B107D9F727
:1001D00023E0A2E5B1E001C01D92A739B207E1F723
:1001E00011E0CEEAD1E004C02297FE010E949930CE
:1001F000CC3AD107C9F70E94541D0C9459360C947F
:10020000000087B1806C87B9579A269AE2ECF0E03B
:10021000808189608083E0ECF0E08081836A808364
:10022000E1ECF0E0808187608083E3ECF0E08081A6
:10023000816080838FEF8093D100E0E9F0E08081DE
:1002400080688083E1E9F0E08081836180838FEFC3
:1002500090E090939700809396000895E0ECF0E092
:100260008081806A8083E2ECF0E080818860808316
:10027000E0E9F0E0808180688083089580915402F5
:10028000909155028093D20080915002909151023A
:100290008093D00080915602909157028093CF00B6
:1002A000809152029091530290939900809398000C
:1002B000089543355105D1F410925502109254021D
:1002C0001092510210925002109257021092560250
:1002D00010925302109252028BB18F7A8BB985B172
:1002E0008F7C85B981B38F7081BB50C081309105FF
:1002F000D9F01CF4892B39F008958230910529F149
:100300000397A1F1089570E0709355026093540231
:100310004234510531F046345105D1F55C9A5E986E
:1003200008955C985E9A089570E07093510260930E
:1003300050024234510531F04634510549F52C9AAA
:100340002D9808952C982D9A089570E07093570277
:10035000609356024234510531F046345105C1F4E0
:100360008C9A8D9808958C988D9A089570E070936A
:100370005302609352024234510531F04634510524
:1003800029F48E9A8F9802C08E988F9A0C943E0111
:100390000895E0ECF0E080818F758083E2ECF0E07E
:1003A0008081877F8083E0E9F0E080818F778083A0
:1003B000609154027091550243E550E080E090E076
:1003C0000E945901609150027091510243E550E042
:1003D00081E090E00E9459016091560270915702AD
:1003E00043E550E082E090E00E94590160915202A2
:1003F0007091530243E550E083E090E00C94590182
:100400000E942E01609154027091550246E450E022
:1004100080E090E00E945901609150027091510279
:1004200046E450E081E090E00E945901609156025C
:100430007091570246E450E082E090E00E9459013A
:10044000609152027091530246E450E083E090E0E4
:100450000C9459010E942E01609154027091550232
:1004600042E450E080E090E00E9459016091500227
:100470007091510242E450E081E090E00E94590105
:10048000609156027091570242E450E082E090E0A1
:100490000E945901609152027091530242E450E06F
:1004A00083E090E00C9459010E942E016091540267
:1004B0007091550242E450E080E090E00E945901C2
:1004C000609150027091510242E450E081E090E06E
:1004D0000E945901609156027091570246E450E023
:1004E00082E090E00E9459016091520270915302A3
:1004F00046E450E083E090E00C9459010E942E0104
:10050000609154027091550246E450E080E090E022
:100510000E945901609150027091510246E450E0EE
:1005200081E090E00E94590160915602709157025B
:1005300042E450E082E090E00E9459016091520252
:100540007091530242E450E083E090E00C94590132
:100550008C3469F034F4823441F0863451F40C94D4
:100560000002823531F40C9454020C942A020C944B
:100570007E020C94C9018AB180658AB984B1806316
:1005800084B980B3806F80BB08958FE790E090932B
:10059000550280935402909351028093500290939D
:1005A00057028093560290935302809352020C9408
:1005B0003E010E9401010E94BB020E94C5020E94EE
:1005C00000028FE190E00E9456290E94C9018FE14C
:1005D00090E00E9456290E94C5020E942A028FE1E3
:1005E00090E00E9456290E94C9018FE190E00E948C
:1005F0005629E3CF08956CE971E088EB91E00E9401
:10060000A8188091860190918701FC01EE0FFF1FD1
:10061000EE0FFF1FE857FE4F4091A0015091A1013E
:100620006091A2017091A30140835183628373831F
:10063000019663E070E00E9483309093870180937D
:10064000860120E030E0A901609188017091890164
:1006500080918A0190918B010E94B23020918C018F
:1006600030918D0140918E0150918F010E94B230E6
:10067000209190013091910140919201509193010C
:100680000E94B23020E030E040E450E40E94933118
:10069000609398017093990180939A0190939B01C4
:1006A00060939401709395018093960190939701C4
:1006B000089588EB91E00E94860F0E94FB02FDCF17
:1006C00008950895E0918602F0918702808181115A
:1006D00003C08FEF9FEF0CC0E0918602F09187027C
:1006E0000580F681E02D0680F781E02D82819381DF
:1006F00090935E0280935D02089580917102882339
:1007000049F10E94DE27C09172020E94B128CC23D9
:10071000A1F30FB6F8940F92E0917702F09178026E
:10072000C681D781CE0102960E948E1F80916702FA
:100730008150809367028091710281508093710291
:100740000F900FBE8F89988D0E94091FCE010E94C5
:10075000091FD3CF80919A02823010F00E945F204F
:100760000E94C703CACF009721F48091580290914C
:1007700059020FB6F8940F92FC0127A1223019F408
:1007800017A281E001C080E00F900FBE089583EFB3
:1007900080937E008FE380937D0080B7877F80BF4A
:1007A00080B7806880BF83B7817F83BF0FB6F8941E
:1007B0000F9283B7816083BF0F900FBE889513BEE1
:1007C00008953F9A479A2FEF80E792E021508040AA
:1007D0009040E1F700C00000379AF5CF3F9A479A62
:1007E0002FEF87EA91E6215080409040E1F700C06A
:1007F0000000379AF5CFFC0181E08083118243EC41
:100800005BEA66E77BE3428353836483758348ED49
:100810005BE666E77BE3468357836087718742EF39
:1008200054EE64E67BE342875387648775870895B7
:100830001F93CF93DF931F92CDB7DEB7162FFC0126
:10084000648975898AED92E049830E94991A612F23
:100850008AED92E00E94B11A4981642F8AED92E0FC
:100860000E94B11A8AED92E00F90DF91CF911F9113
:100870000C94AE1A48E06DE20C941804FC01758BE0
:10088000648B0C943A04AF92BF92CF92DF92EF92B6
:10089000FF920F931F93CF93DF93EC01162F7A01F2
:1008A00069016C897D898AED92E00E94991A612F15
:1008B0008AED92E00E94B11A8AED92E00E94AE1A8F
:1008C0006C897D898AED92E00E94991A6C897D89F4
:1008D000A7018AED92E00E948A1A86015801AC189D
:1008E000BD088AED92E00E94021B892B41F08AED3F
:1008F00092E00E940A1BF80181938F01EFCFAE14A2
:10090000BF0419F0188281E089838AED92E0DF91BB
:10091000CF911F910F91FF90EF90DF90CF90BF90FC
:10092000AF900C94AE1ACF92DF92EF92FF920F939A
:100930001F93CF93DF93EC016B017A0189019C0136
:10094000225F3F4F46E050E062E30E9443048F8500
:1009500090E0982F88272E85822BF6019183808343
:10096000898990E0982F88272889822BF701918325
:1009700080838B8990E0982F88272A89822BF80121
:1009800091838083DF91CF911F910F91FF90EF9022
:10099000DF90CF9008959B012C5F3F4FAB014E5FDE
:1009A0005F4F0C949304AF92BF92CF92DF92EF927D
:1009B000FF920F931F93CF93DF9300D000D000D00E
:1009C000CDB7DEB77C015B01BE016F5F7F4F0E9438
:1009D000CB04CE0101966C01870175015E0197E0A1
:1009E000A90EB11CF601619171916F01882777FD05
:1009F0008095982F0E942E32F80122813381448104
:100A000055810E943A33F7016193719381939193D9
:100A10007F010C5F1F4FCA14DB0421F726960FB627
:100A2000F894DEBF0FBECDBFDF91CF911F910F9124
:100A3000FF90EF90DF90CF90BF90AF9008950F930D
:100A40001F93CF93DF931F92CDB7DEB78B019E012B
:100A50002F5F3F4F41E050E061E30E9443048981F2
:100A60008370F80180830F90DF91CF911F910F91D8
:100A70000895FF920F931F93CF93DF931F92CDB7EB
:100A8000DEB78C01645071096D30710528F4FB01EB
:100A9000EE5DFE4FF08001C0F12C9E012F5F3F4FB5
:100AA00041E050E061E3C8010E94430449814C7E6B
:100AB0004F2961E3C8010E9418040F90DF91CF9184
:100AC0001F910F91FF9008956F3F710534F4AB01B2
:100AD00077FF05C040E050E002C04FEF50E06DE10D
:100AE0000C941804CF93DF931F92CDB7DEB79E010D
:100AF0002F5F3F4F41E050E06DE10E944304898148
:100B000090E00F90DF91CF910895FC01DB014D91B2
:100B10005D916D917C9113974283538364837583B8
:100B200014964D915D916D917C91179746835783F3
:100B30006087718718964D915D916D917C911B979F
:100B400042875387648775870895CF93DF93FC01AD
:100B5000EB014281538164817581488359836A83A3
:100B60007B8346815781608571854C835D836E836D
:100B70007F8382859385A485B58588879987AA8791
:100B8000BB87DF91CF910895EF92FF921F93CF9390
:100B9000DF931F92CDB7DEB77C01142F462F6EE195
:100BA00029830E941804412F6FE1C7010E94180495
:100BB0002981422F60E2C7010F90DF91CF911F91F1
:100BC000FF90EF900C941804AF92BF92CF92DF92F7
:100BD000EF92FF920F931F93CF93DF931F92CDB7A6
:100BE000DEB78C015B016A0179019E012F5F3F4FE7
:100BF00041E050E06EE10E944304898190E0F501FC
:100C0000918380839E012F5F3F4F41E050E06FE171
:100C1000C8010E944304898190E0F601918380839A
:100C20009E012F5F3F4F41E050E060E2C8010E940B
:100C30004304898190E0F701918380830F90DF91D5
:100C4000CF911F910F91FF90EF90DF90CF90BF90C9
:100C5000AF9008956F3F710534F4AB0177FF05C085
:100C600040E050E002C04FEF50E061E20C94180405
:100C7000CF93DF931F92CDB7DEB79E012F5F3F4F1B
:100C800041E050E061E20E944304898190E00F90CE
:100C9000DF91CF910895462F62E20C941804CF9310
:100CA000DF931F92CDB7DEB79E012F5F3F4F41E02C
:100CB00050E062E20E944304898190E00F90DF914E
:100CC000CF9108956F3F710534F4AB0177FF05C0F4
:100CD00040E050E002C04FEF50E063E20C94180493
:100CE000CF93DF931F92CDB7DEB79E012F5F3F4FAB
:100CF00041E050E063E20E944304898190E00F905C
:100D0000DF91CF9108956F3F710534F4AB0177FF08
:100D100005C040E050E002C04FEF50E064E20C94A8
:100D20001804CF93DF931F92CDB7DEB79E012F5FDC
:100D30003F4F41E050E064E20E944304898190E02B
:100D40000F90DF91CF9108956F3F710534F4AB019F
:100D500077FF05C040E050E002C04FEF50E065E291
:100D60000C941804CF93DF931F92CDB7DEB79E018A
:100D70002F5F3F4F41E050E065E20E9443048981CC
:100D800090E00F90DF91CF9108956F3F710534F49B
:100D9000AB0177FF05C040E050E002C04FEF50E0EC
:100DA00066E20C941804CF93DF931F92CDB7DEB7A1
:100DB0009E012F5F3F4F41E050E066E20E944304F6
:100DC000898190E00F90DF91CF9108956F3F710579
:100DD00034F4AB0177FF05C040E050E002C04FEFB4
:100DE00050E068E20C941804CF93DF931F92CDB7C4
:100DF000DEB79E012F5F3F4F41E050E068E20E9466
:100E00004304898190E00F90DF91CF9108956F3F67
:100E1000710534F4AB0177FF05C040E050E002C03B
:100E20004FEF50E069E20C941804CF93DF931F92C8
:100E3000CDB7DEB79E012F5F3F4F41E050E069E242
:100E40000E944304898190E00F90DF91CF91089533
:100E5000CF93DF931F92CDB7DEB79E012F5F3F4F39
:100E600041E050E06CE20E94430469816F7070E0E1
:100E700066507109882777FD8095982F0E942E3241
:100E80009B01AC0160E070E080E090E40E949D3343
:100E900020E030E048EC50E40E943A330F90DF91BC
:100EA000CF910895EF92FF920F931F93CF93DF930B
:100EB0001F92CDB7DEB78C01CB01BA0120E030E044
:100EC00048EC50E40E9493310E94FB31E12CF12C5C
:100ED000759567956115710521F08FEFE81AF80A8D
:100EE000F7CF8AE0E816F10494F49E012F5F3F4F9C
:100EF00041E050E06CE2C8010E94430446E04E0D20
:100F00008981807F482B6CE2C8010E9418040F90F1
:100F1000DF91CF911F910F91FF90EF900895462F91
:100F20002AEF260F2A3028F0FC01108222E02183CC
:100F300008956CE20C941804CF93DF931F92CDB701
:100F4000DEB79E012F5F3F4F41E050E06CE20E9410
:100F5000430489810F90DF91CF910895CF93DF9360
:100F60001F92CDB7DEB79E012F5F3F4F41E050E0AB
:100F700060E30E94430489810F90DF91CF9108952F
:100F8000DF92EF92FF920F931F93CF93DF931F9205
:100F9000CDB7DEB78C01F62EE42ED22E9E012F5F48
:100FA0003F4F41E050E00E944304898121E030E05E
:100FB0000E2C01C0220F0A94EAF7DD2011F0282B35
:100FC00002C020952823298349816F2DC8010E94E2
:100FD00018040F90DF91CF911F910F91FF90EF9028
:100FE000DF900895262F47E050E061E30C94C0079E
:100FF000262F46E050E061E30C94C007262F45E021
:1010000050E061E30C94C007262F43E050E061E319
:101010000C94C007262F42E050E061E30C94C00717
:10102000262F46E050E067E20C94C007262F45E0EB
:1010300050E067E20C94C007262F44E050E067E2DE
:101040000C94C007262F42E050E067E20C94C007E2
:10105000262F41E050E067E20C94C007262F40E0C5
:1010600050E067E20C94C007262F47E050E067E2AB
:101070000C94C007262F43E050E067E20C94C007B1
:10108000262F43E050E06AE20C94C007262F42E08E
:1010900050E06AE20C94C007262F41E050E06AE27B
:1010A0000C94C007262F40E050E06AE20C94C00781
:1010B000262F44E050E06CE20C94C007242F462F0A
:1010C00050E06FE20C94C007242F462F50E06EE2F0
:1010D0000C94C0071F93CF93DF931F92CDB7DEB759
:1010E000142F9E012F5F3F4F41E050E00E944304C8
:1010F000898190E002C0959587951A95E2F78170F5
:101100000F90DF91CF911F91089547E050E061E388
:101110000C946A0846E050E061E30C946A0845E0EC
:1011200050E061E30C946A0843E050E061E30C9402
:101130006A0842E050E061E30C946A0846E050E03F
:1011400067E20C946A0845E050E067E20C946A0894
:1011500044E050E067E20C946A0842E050E067E245
:101160000C946A0841E050E067E20C946A0840E0A1
:1011700050E067E20C946A0847E050E067E20C94A4
:101180006A0843E050E067E20C946A0843E050E0EC
:101190006AE20C946A0842E050E06AE20C946A0841
:1011A00041E050E06AE20C946A0840E050E06AE2F4
:1011B0000C946A0846E050E06BE20C946A0845E043
:1011C00050E06BE20C946A0844E050E06BE20C944F
:1011D0006A0842E050E06BE20C946A0841E050E09B
:1011E0006BE20C946A0840E050E06BE20C946A08F1
:1011F00043E050E06BE20C946A0844E050E06CE29B
:101200000C946A08462F50E060E30C946A08462F5D
:1012100050E06FE20C946A08462F50E06EE20C94A6
:101220006A0808950895FC0140E050E060E87FE31B
:1012300040835183628373834483558366837783BA
:1012400040875187628773871586148617861686AE
:10125000118A108A428B538B648B758B468B578B0C
:10126000608F718F428F538F648F758F0895FC014B
:10127000868D08950F931F93FC01822F662329F01A
:1012800000E010E020E83FEB04C000E010E020E8C0
:101290003FE3028B138B248B358B442329F040E0F2
:1012A00050E060E87FEB04C040E050E060E87FE39E
:1012B000468B578B608F718F882329F040E050E078
:1012C00060E87FEB04C040E050E060E87FE3428FDD
:1012D000538F648F758F1F910F910895CF92DF9276
:1012E000EF92FF920F931F93FC014083518362831F
:1012F00073830483158326833783C086D186E28671
:10130000F3861F910F91FF90EF90DF90CF9008959B
:10131000FC017587648757874687318B208B08953A
:101320001F93CF93DF931F92CDB7DEB7162FFC012B
:10133000668D8AED92E049830E948F1A612F8AEDB3
:1013400092E00E94B11A4981642F8AED92E00E94D6
:10135000B11A8AED92E00F90DF91CF911F910C941A
:10136000AE1A1F93CF93DF93EC01162F462F60E048
:101370000E9490091E8FDF91CF911F910895462FF3
:1013800065E10C94900940E86EE30E94900986E4C0
:1013900090E0EFE9FFE03197F1F700C0000001971E
:1013A0000097B9F70895CF92DF92FF920F931F93A2
:1013B000CF93DF931F92CDB7DEB76C01F62E890174
:1013C000FC01668D8AED92E049830E948F1A6F2D91
:1013D0008AED92E00E94B11A8AED92E00E94AE1A64
:1013E000F601668D8AED92E00E948F1A4981F6011E
:1013F000668D8AED92E00E94871AF12C8AED92E0C8
:101400000E94021B892B59F06801CF0CD11C8AED78
:1014100092E00E940A1BF6018083F394EFCF8AEDDD
:1014200092E00F90DF91CF911F910F91FF90DF908D
:10143000CF900C94AE1ACF93DF93EC019C01215E08
:101440003F4F41E065E10E94D3098F8DDF91CF913D
:101450000895CF93DF93EC019C01215E3F4F41E063
:1014600066E10E94D3098F8D887186958695869551
:10147000DF91CF9108951F93CF93DF93EC01162F47
:101480009C01215E3F4F41E066E10E94D30988E064
:10149000189FB00111244F8D477E462B66E1CE0187
:1014A000DF91CF911F910C949009CF93DF93EC01C2
:1014B0009C01215E3F4F41E066E10E94D3098F8D80
:1014C0008770DF91CF9108951F93CF93DF93EC0145
:1014D000162F9C01215E3F4F41E066E10E94D30937
:1014E0004F8D487F412B66E1CE01DF91CF911F9157
:1014F0000C949009CF93DF93EC019C01215E3F4F48
:1015000041E067E10E94D3099F8D892F881F8827BA
:10151000881FDF91CF9108951F93CF93DF93EC0144
:10152000162F9C01215E3F4F41E067E10E94D309E5
:101530004F8D10FB47F967E1CE01DF91CF911F91ED
:101540000C949009CF93DF93EC019C01215E3F4FF7
:1015500041E067E10E94D3098F8D86FB882780F9DF
:10156000DF91CF9108951F93CF93DF93EC01162F56
:101570009C01215E3F4F41E067E10E94D30980E476
:10158000189FB00111244F8D4F7B462B67E1CE0190
:10159000DF91CF911F910C949009CF93DF93EC01D1
:1015A0009C01215E3F4F41E067E10E94D3098F8D8E
:1015B00085FB882780F9DF91CF9108951F93CF9302
:1015C000DF93EC01162F9C01215E3F4F41E067E164
:1015D0000E94D30980E2189FB00111244F8D4F7DE6
:1015E000462B67E1CE01DF91CF911F910C949009BA
:1015F000CF93DF93EC019C01215E3F4F41E067E117
:101600000E94D3098F8D82958170DF91CF910895CB
:101610001F93CF93DF93EC01162F9C01215E3F4F68
:1016200041E067E10E94D30980E1189FB0011124D5
:101630004F8D4F7E462B67E1CE01DF91CF911F91F9
:101640000C949009CF93DF93EC019C01215E3F4FF6
:1016500041E067E10E94D3098F8D82FB882780F9E2
:10166000DF91CF9108951F93CF93DF93EC01162F55
:101670009C01215E3F4F41E067E10E94D30984E075
:10168000189FB00111244F8D4B7F462B67E1CE018F
:10169000DF91CF911F910C949009CF93DF93EC01D0
:1016A0009C01215E3F4F41E067E10E94D3098F8D8D
:1016B0008170DF91CF9108951F93CF93DF93EC0159
:1016C000162F9C01215E3F4F41E067E10E94D30944
:1016D0004F8D4E7F412B67E1CE01DF91CF911F915E
:1016E0000C949009CF93DF93EC019C01215E3F4F56
:1016F00041E06AE10E94D3098F8D82FB882780F93F
:10170000DF91CF910895CF93DF93EC019C01215E8F
:101710003F4F41E06AE10E94D3098F8D8170DF91D4
:10172000CF9108950F931F93CF93DF938C01EB011B
:101730009C01215E3F4F42E06BE10E94D309F8011A
:10174000678D70E0762F662780A1682B60577C4CF0
:10175000882777FD8095982F0E942E3220E030E078
:101760004CE853E40E94933120E030E04CE052E436
:101770000E94B230688379838A839B83DF91CF9103
:101780001F910F910895CF92DF92EF92FF920F93E6
:101790001F93CF93DF93EC018B016A0179019C01C8
:1017A000215E3F4F46E06DE10E94D3098F8D90E0AE
:1017B000982F882728A1822BF8019183808389A103
:1017C00090E0982F88272AA1822BF60191838083AD
:1017D0008BA190E0982F88272CA1822BF701918371
:1017E0008083DF91CF911F910F91FF90EF90DF9059
:1017F000CF9008959B012C5F3F4FAB014E5F5F4F31
:101800000C94C30B2F923F924F925F926F927F92F4
:101810008F929F92AF92BF92CF92DF92EF92FF9200
:101820000F931F93CF93DF93CDB7DEB72C970FB6EF
:10183000F894DEBF0FBECDBF1C0178876F835C8735
:101840004B87C12CD12C7601460157012601370167
:1018500000E010E08F8198850817190709F448C047
:1018600080E090E02B853C858217930744F4EFE9F4
:10187000FFE03197F1F700C000000196F3CFBE0101
:101880006F5F7F4FC1010E94FA0B69817A818827BF
:1018900077FD8095982F0E942E329B01AC01C301E9
:1018A000B2010E94B2302B013C016B817C81882700
:1018B00077FD8095982F0E942E329B01AC01C501C7
:1018C000B4010E94B2304B015C016D817E8188279A
:1018D00077FD8095982F0E942E329B01AC01C701A5
:1018E000B6010E94B2306B017C010F5F1F4FB2CF77
:1018F000B80180E090E00E942C326F83788789875E
:101900009A87C301B20190582F81388549855A853D
:101910000E9493310E94FB31F10175876487C501F4
:10192000B40190582F81388549855A850E9493319A
:101930000E94FB31F10177876687C701B601905895
:101940002F81388549855A850E9493310E94FB3149
:10195000F101718B608B2C960FB6F894DEBF0FBE31
:10196000CDBFDF91CF911F910F91FF90EF90DF904E
:10197000CF90BF90AF909F908F907F906F905F902F
:101980004F903F902F900895CF92DF92EF92FF9269
:101990000F931F93CF93DF93EC016B017A018901C1
:1019A0000E94C30BF601808191812C853D85820FB9
:1019B000931F91838083F701808191812E853F85DC
:1019C000820F931F91838083F80180819181288900
:1019D0003989820F931F91838083DF91CF911F916B
:1019E0000F91FF90EF90DF90CF9008959B012C5FB7
:1019F0003F4FAB014E5F5F4F0C94C40CAF92BF9250
:101A0000CF92DF92EF92FF920F931F93CF93DF93CA
:101A100000D000D000D0CDB7DEB78C015B016A01E9
:101A200079019E012F5F3F4FAE014D5F5F4FBE01B9
:101A30006B5F7F4F0E94C40C6D817E81882777FD8C
:101A40008095982F0E942E3220E030E046E651E447
:101A50000E949331F80122893389448955890E9473
:101A60003A33F80120813181428153810E943A3317
:101A7000F50160837183828393836B817C818827E6
:101A800077FD8095982F0E942E3220E030E046E6C8
:101A900051E40E949331F80126893789408D518D98
:101AA0000E943A33F80124813581468157810E9492
:101AB0003A33F601608371838283938369817A81EB
:101AC000882777FD8095982F0E942E3220E030E005
:101AD00046E651E40E949331F801228D338D448D06
:101AE000558D0E943A33F801208531854285538512
:101AF0000E943A33F7016083718382839383269631
:101B00000FB6F894DEBF0FBECDBFDF91CF911F910E
:101B10000F91FF90EF90DF90CF90BF90AF9008951E
:101B20009B01285F3F4FAB014C5F5F4F0C94FE0C55
:101B3000CF93DF93EC019C01215E3F4F41E06EE3C8
:101B40000E94D3098F8D86FB882780F9DF91CF9182
:101B500008951F93CF93DF93EC01162F9C01215E14
:101B60003F4F41E06EE30E94D30980E4189FB0012B
:101B700011244F8D4F7B462B6EE3CE01DF91CF9129
:101B80001F910C949009CF93DF93EC019C01215E8F
:101B90003F4F41E06EE30E94D3098F8D85FB88277C
:101BA00080F9DF91CF910895CF93DF93EC019C01F1
:101BB000215E3F4F41E06EE30E94D3098F8D8295F5
:101BC0008170DF91CF910895CF93DF93EC019C0159
:101BD000215E3F4F41E06EE30E94D3098F8D83FB6E
:101BE000882780F9DF91CF9108951F93CF93DF93DA
:101BF000EC01162F9C01215E3F4F41E06EE30E94F5
:101C0000D30980E2189FB00111244F8D4072462BFA
:101C10006EE3CE01DF91CF911F910C9490091F9339
:101C2000CF93DF93EC01162F9C01215E3F4F41E0E3
:101C30006EE30E94D30980E1189FB00111244F8DFB
:101C40004071462B6EE3CE01DF91CF911F910C9432
:101C500090091F93CF93DF93EC01162F9C01215E17
:101C60003F4F41E06EE30E94D30988E0189FB00126
:101C700011244F8D4870462B6EE3CE01DF91CF913A
:101C80001F910C949009CF93DF93EC019C01215E8E
:101C90003F4F41E06EE30E94D3098F8D8770DF9143
:101CA000CF9108951F93CF93DF93EC01162F9C01E2
:101CB000215E3F4F41E06EE30E94D3094F8D487F84
:101CC000412B6EE3CE01DF91CF911F910C949009CF
:101CD0008F929F92AF92CF92EF920F93CF93DF9319
:101CE0001F92CDB7DEB74C01FC01668F642F2983AC
:101CF0000E94BF092981622FC4010E943B0A602F04
:101D0000C4010E94640A6E2DC4010E94520E6C2D03
:101D1000C4010E94330B6A2DC4010E945C0B86E44F
:101D200090E0EFE9FFE03197F1F700C00000019784
:101D30000097B9F70F90DF91CF910F91EF90CF906F
:101D4000AF909F908F900895AF92CF92EF920F93A4
:101D5000AA24A394CC24C394EE24E39400E023E0CB
:101D600040E00E94680E0F91EF90CF90AF900895E1
:101D7000EF92FF920F931F93CF93DF93CDB7DEB710
:101D8000A5970FB6F894DEBF0FBECDBF8C010E94A1
:101D9000FB03780186E1E80EF11CC7010E941309DC
:101DA000CE0101960E94FB0386E1FE013196D80127
:101DB00001900D928A95E1F7CE0101960E941309D8
:101DC00085E2FE013196D70101900D928A95E1F7E7
:101DD000F801EB59FF4F40E050E060E87FE34083BB
:101DE000518362837383349610821182128213822C
:101DF00034961082118212821382349610821182DC
:101E000012821382B097108211821282138234964A
:101E100010821182128213823496108211821282F1
:101E200013823496408351836283738334964DECDE
:101E30005CEC6CE47EE3408351836283738374962D
:101E400010821182128213823496108211821282C1
:101E5000138234961082118212821382A5960FB6D5
:101E6000F894DEBF0FBECDBFDF91CF911F910F91D0
:101E7000FF90EF9008950F931F93CF93DF93EC01A2
:101E80008A018FE99FE00197F1F700C000008FE918
:101E90009FE00197F1F700C000008FE99FE00197F4
:101EA000F1F700C000008FE99FE00197F1F700C053
:101EB00000008FE99FE00197F1F700C000005898FB
:101EC0005998222319F08CE08093B800CE010E942B
:101ED0003E046696B801CE010E94A40E28EE33E0BF
:101EE0008FE99FE00197F1F700C000002150310910
:101EF00021153105A9F745E050E060E870E0CE011A
:101F0000DF91CF911F910F910C94020C20E048E6D5
:101F100050E063E570E00C943B0F262F48E650E05C
:101F200063E570E00C943B0F0F931F93CF93DF9307
:101F30008C01EB019B012C5F3F4FAB014E5F5F4F6C
:101F40000E9493049E01265F3F4FAE01485F5F4FA2
:101F5000BE016A5F7F4FC8014696DF91CF911F9106
:101F60000F910C94C30BEF92FF920F931F93CF939B
:101F7000DF9300D000D000D0CDB7DEB77C018B015D
:101F80009E012B5F3F4FAE014D5F5F4FBE016F5F04
:101F90007F4F0E94930469817A81882777FD80951D
:101FA000982F0E942E32F80160837183828393837D
:101FB0006B817C81882777FD8095982F0E942E3237
:101FC000F80164837583868397836D817E8188277A
:101FD00077FD8095982F0E942E32F80160877187D7
:101FE00082879387B801645F7F4FC70146960E943E
:101FF000900D26960FB6F894DEBF0FBECDBFDF91D1
:10200000CF911F910F91FF90EF9008954F925F92A3
:102010006F927F928F929F92AF92BF92CF92DF92F8
:10202000EF92FF92CF93DF93CDB7DEB760970FB6F5
:10203000F894DEBF0FBECDBF6B017C0180E090E065
:10204000A0ECBFE389839A83AB83BC8320E030E0BC
:1020500040E05FE3C701B6010E943A3369877A879F
:102060008B879C87CD82DE82EF82F8868D819E8170
:10207000AF81B8858D879E87AF87B88B4D855E858C
:102080006F857889759567955795479586E89AE5A0
:10209000A7E3BFE5841B950BA60BB70B8D879E8727
:1020A000AF87B88B8D859E85AF85B8898D839E83DC
:1020B000AF83B887CD80DE80EF80F88489809A80F6
:1020C000AB80BC8069857A858B859C852D813E811E
:1020D0004F8158854D805E806F8078840E943A33AE
:1020E000A30192010E943A339B01AC01C501B401E6
:1020F0000E94B1309B01AC01C701B6010E943A3386
:102100006D837E838F8398876D817E818F81988593
:1021100060960FB6F894DEBF0FBECDBFDF91CF91B2
:10212000FF90EF90DF90CF90BF90AF909F908F90F7
:102130007F906F905F904F9008952F923F924F92B3
:102140005F926F927F928F929F92AF92BF92CF9247
:10215000DF92EF92FF920F931F93CF93DF93CDB750
:10216000DEB7C454D1090FB6F894DEBF0FBECDBFA1
:102170001C014D875E876F87788B098B1A8B2B8BA1
:102180003C8B6D964CAC5DAC6EAC7FAC6D97FC013E
:10219000EB59FF4F208131814281538129873A8752
:1021A0004B875C8740815181628173814D8F5E8F47
:1021B0006F8F78A36081718182819381698F7A8F1B
:1021C0008B8F9C8F810107591F4FD8018D919D9155
:1021D0000D90BC91A02D89A39AA3ABA3BCA3208191
:1021E0003181428153812DA33EA34FA358A7910172
:1021F00023593F4FD9014D915D916D917C9149A734
:102200005AA76BA77CA740815181628173813C965C
:102210004081518162817381D8014D915D916D91B1
:102220007C9113974D915D916D917C9113974D9198
:102230005D916D917C91D9014D915D916D917C91F4
:10224000D8014D915D916D917C914DA75EA76FA7CF
:1022500078AB408151816281738149AB5AAB6BABE2
:102260007CABD9014D915D916D917C9113974D910E
:102270005D916D917C9113974D915D916D917C91E4
:102280004DAB5EAB6FAB78AF208131814281538122
:1022900029AF3AAF4BAF5CAF40815181628173810E
:1022A00021964CAF5DAF6EAF7FAF2197608171819A
:1022B0008281938125966CAF7DAF8EAF9FAF2597BE
:1022C00020E030E0A901C501B4010E948F318823CC
:1022D00009F487C220E030E0A901C301B2010E94E5
:1022E0008F31882309F47DC220E030E0A901A19656
:1022F0006CAD7DAD8EAD9FADA1970E948F318823CF
:1023000009F46FC2A5019401C501B4010E943A33DA
:1023100069837A838B839C83A3019201C301B201F9
:102320000E943A339B01AC0169817A818B819C8147
:102330000E94B23069837A838B839C83A1962CADF3
:102340003DAD4EAD5FADA197CA01B9010E943A33D0
:102350009B01AC0169817A818B819C810E94B230A2
:102360000E94061069837A838B839C839B01AC0156
:10237000C501B4010E943A336D8B7E8B8F8B988F91
:1023800029813A814B815C81C301B2010E943A33B9
:102390002B013C0129813A814B815C81A1966CAD76
:1023A0007DAD8EAD9FADA1970E943A334B015C018C
:1023B00029A93AA94BA95CA96DA57EA58FA598A9C5
:1023C0000E943A336D837E838F83988729A53AA52F
:1023D0004BA55CA56DA17EA18FA198A50E943A3363
:1023E0009B01AC016D817E818F8198850E94B13007
:1023F0006D837E838F83988729A13AA14BA15CA12D
:10240000698D7A8D8B8D9C8D0E943A3369837A8396
:102410008B839C8329AD3AAD4BAD5CAD6DA97EA994
:102420008FA998AD0E943A339B01AC0169817A81F2
:102430008B819C810E94B230698F7A8F8B8F9C8FA9
:102440002D8D3E8D4F8D58A169857A858B859C8514
:102450000E943A3320E030E040E05FE30E94B13078
:1024600069837A838B839C8325962CAD3DAD4EADDD
:102470005FAD259721966CAD7DAD8EAD9FAD21975B
:102480000E943A339B01AC0169817A818B819C81E6
:102490000E94B23069877A878B879C879B01AC0149
:1024A000C301B2010E943A3369837A838B839C8390
:1024B000298D3A8D4B8D5C8DC501B4010E943A3354
:1024C0009B01AC0169817A818B819C810E94B13032
:1024D00020E030E0A9010E94B23069837A838B83C7
:1024E0009C832D813E814F815885C501B4010E9496
:1024F0003A334B015C0129853A854B855C856D89B2
:102500007E898F89988D0E943A339B01AC01C50169
:10251000B4010E94B13020E030E0A9010E94B23045
:1025200069877A878B879C87298D3A8D4B8D5C8D47
:102530006D897E898F89988D0E943A334B015C01A9
:102540002D813E814F815885C301B2010E943A33EB
:102550009B01AC01C501B4010E94B13020E030E024
:10256000A9010E94B2306D8B7E8B8F8B988F20E0FB
:1025700030E0A90169817A818B819C810E948F3131
:10258000882309F42EC120E030E0A90169857A850D
:102590008B859C850E948F31882309F422C120E01D
:1025A00030E0A9016D897E898F89988D0E948F31D5
:1025B000882309F416C108501109D8016D917D9145
:1025C0008D919C9120E030E0A9010E942F33F10110
:1025D000EB58FF4FFE83ED8318160CF0ABC0D8010B
:1025E0004D905D906D907C903C9620813181428130
:1025F000538160E070E080E89FE30E949331698F2F
:102600007A8F8B8F9C8FED81FE8180809180A2805C
:10261000B38029813A814B815C81C301B2010E9460
:102620003A33298D3A8D4B8D5C8D0E943A339B0154
:10263000AC01C501B4010E94B230AD81BE816D9381
:102640007D938D939C931397F801608171818281B2
:1026500093812101F9E74F0E511CD2018D909D907D
:10266000AD90BC9029853A854B855C850E943A33B4
:10267000298D3A8D4B8D5C8D0E943A339B01AC01C4
:10268000C501B4010E94B230F2016083718382837C
:102690009383D8016D917D918D919C913101BDE71E
:1026A0006B0E711CF30180809180A280B3802D8914
:1026B0003E894F89588D0E943A33298D3A8D4B8D32
:1026C0005C8D0E943A339B01AC01C501B4010E94AC
:1026D000B230D3016D937D938D939C931397ED81CD
:1026E000FE8120813181428153816D857E858F8578
:1026F00098890E94B2306D877E878F87988BD20130
:102700002D913D914D915C9169897A898B899C8944
:102710000E94B230698B7A8B8B8B9C8BF30120816A
:10272000318142815381C701B6010E94B2306B01F1
:102730007C0113C0AD81BE811D921D921D921C9221
:102740001397F101E758FF4F108211821282138212
:10275000349610821182128213828101035A1F4F14
:10276000F801608171818281938129813A814B8155
:102770005C810E943A339B01AC016D857E858F851B
:1027800098890E94B2306D877E878F87988BD80199
:102790006D917D918D919C9129853A854B855C85C4
:1027A0000E943A339B01AC0169897A898B899C89A3
:1027B0000E94B230698B7A8B8B8B9C8BF801608185
:1027C0007181828193812D893E894F89588D0E9424
:1027D0003A339B01AC01C701B6010E94B2306B01D4
:1027E0007C01F101EF57FF4F2081318142815381FC
:1027F00060E070E080E89FE30E94933120E030E0E9
:1028000040E05FE30E943A334B015C019B01AC0165
:102810006D857E858F8598890E943A336D837E838E
:102820008F839887A501940169897A898B899C890E
:102830000E943A3369837A838B839C83A501940138
:10284000C701B6010E943A3369877A878B879C87D4
:1028500081010B591F4FD801CD90DD90ED90FC9078
:10286000CD8ADE8AEF8AF88EF101E759FF4FFE87A5
:10287000ED87C080D180E280F380C98EDA8EEB8E46
:10288000FC8E3496FA8BE98BC080D180E280F38095
:10289000CD8EDE8EEF8EF8A2B1E72B0E311CF1014A
:1028A0004080518062807380D801CD90DD90ED90A2
:1028B000FC90698D7A8D8B8D9C8D90582D813E81F9
:1028C0004F8158850E943A334B015C0129813A813E
:1028D0004B815C816D8D7E8D8F8D98A10E943A33E6
:1028E0009B01AC01C501B4010E94B1304B015C01F8
:1028F00029853A854B855C85C301B2010E943A3334
:102900009B01AC01C501B4010E94B1309B01AC0137
:10291000C701B6010E94B230F801608371838283DF
:102920009383D1014D905D906D907C90ED85FE85F7
:10293000C080D180E280F3802D813E814F81588517
:102940006D897E898F89988D0E943A334B015C0195
:1029500029853A854B855C856D8D7E8D8F8D98A1FF
:102960000E943A339B01AC01C501B4010E94B23010
:102970004B015C0129813A814B815C81C301B20129
:102980000E943A339B01AC01C501B4010E94B130F1
:102990009B01AC01C701B6010E94B230AD85BE8576
:1029A0006D937D938D939C931397F101408051809B
:1029B00062807380A989BA89CD90DD90ED90FC90FA
:1029C00029813A814B815C816D897E898F89988DBF
:1029D0000E943A334B015C0129853A854B855C8521
:1029E000698D7A8D8B8D9C8D0E943A339B01AC0151
:1029F000C501B4010E94B1304B015C012D813E81C3
:102A00004F815885C301B2010E943A339B01AC014A
:102A1000C501B4010E94B2309B01AC01C701B601EF
:102A20000E94B230E989FA8960837183828393833B
:102A3000D101CD90DD90ED90FC9029853A854B85B4
:102A40005C856D897E898F89988D0E943A334B0110
:102A50005C0129813A814B815C81698D7A8D8B8DF6
:102A60009C8D0E943A339B01AC01C501B4010E94C8
:102A7000B2304B015C012D813E814F8158856D8DB7
:102A80007E8D8F8D98A10E943A339B01AC01C501C8
:102A9000B4010E94B1309B01AC01C701B6010E9494
:102AA000B230F1016083718382839383D8016D9189
:102AB0007D918D919C9113972D913D914D915C91BC
:102AC000ED85FE8580809180A280B380408051801A
:102AD00062807380A989BA89CD90DD90ED90FC90D9
:102AE0001397CD82DE82EF82F886CD90DD90ED9057
:102AF000FC90C982DA82EB82FC82D101CD90DD901C
:102B0000ED90FC901397C986DA86EB86FC86CD9013
:102B1000DD90ED90FC90CD8ADE8AEF8AF88E0E94DF
:102B20003A336B017C01A3019201C501B4010E94FB
:102B30003A339B01AC01C701B6010E94B2306B0170
:102B40007C0129813A814B815C816D817E818F81FD
:102B500098850E943A339B01AC01C701B6010E94DF
:102B6000B2306B017C012D893E894F89588D698572
:102B70007A858B859C850E943A339B01AC01C70105
:102B8000B6010E94B2300E9406106B017C01F80170
:102B90006081718182819381A70196010E943A33FD
:102BA000D8016D937D938D939C931397ED85FE854E
:102BB0006081718182819381A70196010E943A33DD
:102BC000AD85BE856D937D938D939C931397E98915
:102BD000FA896081718182819381A70196010E94A7
:102BE0003A33A989BA896D937D938D939C931397FA
:102BF000F1016081718182819381A70196010E9418
:102C00003A33D1016D937D938D939C931397CC5B55
:102C1000DF4F0FB6F894DEBF0FBECDBFDF91CF916F
:102C20001F910F91FF90EF90DF90CF90BF90AF90EA
:102C30009F908F907F906F905F904F903F902F90DC
:102C400008952F923F924F925F926F927F928F9250
:102C50009F92AF92BF92CF92DF92EF92FF920F932B
:102C60001F93CF93DF93CDB7DEB7A6970FB6F89437
:102C7000DEBF0FBECDBF1C017EA36DA3BE016F5F83
:102C80007F4F0E94B30F89809A80AB80BC802BED70
:102C90003FE049E450E46D897E898F89988D0E94D8
:102CA0003A3320E030E044E353E40E9493316B0177
:102CB0007C012BED3FE049E450E469897A898B89F6
:102CC0009C890E943A3320E030E044E353E40E94C0
:102CD00093312B013C012BED3FE049E450E46D853D
:102CE0007E858F8598890E943A3320E030E044E366
:102CF00053E40E949331AB01BC011F921F921F92BB
:102D00001F921F921F921F921F921F921F921F923B
:102D10001F928C858F938B858F938A858F9389855E
:102D20008F9388858F938F818F938E818F938D81E1
:102D30008F9393018201C1010E949D10F101EB5913
:102D4000FF4F80819181A281B381EDA1FEA180839B
:102D50009183A283B383F101E759FF4F8081918171
:102D6000A281B381EDA1FEA184839583A683B7835D
:102D7000F101E359FF4F80819181A281B381EDA1DF
:102D8000FEA180879187A287B387F101EF58FF4F9B
:102D900080819181A281B381EDA1FEA18487958775
:102DA000A687B7870FB6F894DEBF0FBECDBFA69635
:102DB0000FB6F894DEBF0FBECDBFDF91CF911F914C
:102DC0000F91FF90EF90DF90CF90BF90AF909F90CA
:102DD0008F907F906F905F904F903F902F900895CD
:102DE0004F925F926F927F928F929F92AF92BF921B
:102DF000CF92DF92EF92FF920F931F93CF93DF93C7
:102E0000CDB7DEB7A4970FB6F894DEBF0FBECDBF27
:102E10008B01BE016F5F7F4F0E94211689809A80CF
:102E2000AB80BC80A5019401C501B4010E94B23001
:102E30006D8B7E8B8F8B988FA50194010E943A3306
:102E4000698F7A8F8B8F9C8F4D805E806F807884A6
:102E5000A3019201C301B2010E94B2304B015C0197
:102E600089859A85AB85BC85898B9A8BAB8BBC8B0E
:102E7000CD84DE84EF84F888A3019201C501B401FA
:102E80000E943A339B01AC01698D7A8D8B8D9C8DAC
:102E90000E94B23020E030E040E85FE30E94B130B1
:102EA0006D8F7E8F8F8F98A329893A894B895C8992
:102EB000C501B4010E943A3369A37AA38BA39CA3F2
:102EC000A70196016D897E898F89988D0E943A337A
:102ED0009B01AC0169A17AA18BA19CA10E94B13098
:102EE0002D8D3E8D4F8D58A10E943C3120E030E069
:102EF00044E353E40E943A332BED3FE049E450E4CD
:102F00000E949331D8016D937D938D939C93139779
:102F1000A7019601C501B4010E943A334B015C013F
:102F200029893A894B895C896D897E898F89988D39
:102F30000E943A339B01AC01C501B4010E94B2303A
:102F40000E941631905820E030E044E353E40E94A0
:102F50003A332BED3FE049E450E40E949331F8010D
:102F60006483758386839783A7019601C701B601A1
:102F70000E94B230A70196010E943A339B01AC0136
:102F8000698D7A8D8B8D9C8D0E94B23020E030E06F
:102F900040E85FE30E94B1304B015C0129893A8926
:102FA0004B895C89CA01B9010E94B230A701960120
:102FB0000E943A336B017C01A30192016D897E89E5
:102FC0008F89988D0E943A339B01AC01C701B601ED
:102FD0000E94B130A50194010E943C3120E030E014
:102FE00044E353E40E943A332BED3FE049E450E4DC
:102FF0000E949331D80118966D937D938D939C9385
:103000001B97A4960FB6F894DEBF0FBECDBFDF911D
:10301000CF911F910F91FF90EF90DF90CF90BF90D5
:10302000AF909F908F907F906F905F904F9008959A
:103030004F925F926F927F928F929F92AF92BF92C8
:10304000CF92DF92EF92FF920F931F93CF93DF9374
:10305000CDB7DEB72C970FB6F894DEBF0FBECDBF4D
:103060008B01BE016F5F7F4F0E94F01649805A802E
:103070006B807C80F80140825182628273828D80F5
:103080009E80AF80B88484829582A682B782C984EC
:10309000DA84EB84FC84C086D186E286F38620E065
:1030A00030E0A901C301B2010E948F3187FF0DC03A
:1030B00020E030E044EB53E4C301B2010E94B2309F
:1030C000F801608371838283938320E030E0A9015B
:1030D000C501B4010E948F3187FF0DC020E030E0B0
:1030E00044EB53E4C501B4010E94B230F80164839B
:1030F00075838683978320E030E0A901C701B6017C
:103100000E948F3187FF0DC020E030E044EB53E494
:10311000C701B6010E94B230F801608771878287CB
:1031200093872C960FB6F894DEBF0FBECDBFDF910C
:10313000CF911F910F91FF90EF90DF90CF90BF90B4
:10314000AF909F908F907F906F905F904F90089579
:103150004F925F926F927F928F929F92AF92BF92A7
:10316000CF92DF92EF92FF920F931F93CF93DF9353
:10317000CDB7DEB7A8970FB6F894DEBF0FBECDBFB0
:103180008B01BE016F5F7F4F0E9421168D809E8054
:10319000AF80B8848D859E85AF85B889898B9A8BE1
:1031A000AB8BBC8B49805A806B807C8089859A85EB
:1031B000AB85BC858D8B9E8BAF8BB88F29893A8967
:1031C0004B895C89C501B4010E943A336B017C01D3
:1031D0002D893E894F89588DC301B2010E943A332F
:1031E0009B01AC01C701B6010E94B1309B01AC014B
:1031F0000E94B230698F7A8F8B8F9C8FA5019401CA
:10320000C301B2010E943A336B017C0129893A89DA
:103210004B895C896D897E898F89988D0E943A33AC
:103220009B01AC01C701B6010E94B2309B01AC0109
:103230000E94B2306D8F7E8F8F8F98A3A301920171
:10324000C301B2010E943A336B017C01A5019401D4
:10325000C501B4010E943A339B01AC01C701B6011C
:103260000E94B1306B017C012D893E894F89588DB8
:10327000CA01B9010E943A339B01AC01C701B601F2
:103280000E94B1306B017C0129893A894B895C89A4
:10329000CA01B9010E943A339B01AC01C701B601D2
:1032A0000E94B23069A37AA38BA39CA3A3019201CD
:1032B000C301B2010E94B2306B017C01A5019401EF
:1032C000C501B4010E94B2306DA37EA38FA398A75D
:1032D000A3019201C701B6010E943A332B013C01C0
:1032E000A50194016DA17EA18FA198A50E943A33FA
:1032F0009B01AC01C301B2010E94B23020E030E07A
:1033000040E85FE30E94B1302B013C012D893E89EA
:103310004F89588D6DA17EA18FA198A50E943A3347
:103320004B015C0129893A894B895C89C701B60147
:103330000E943A339B01AC01C501B4010E94B13037
:10334000A30192010E943C3120E030E044E353E4C9
:103350000E943A332BED3FE049E450E40E94933160
:10336000D8016D937D938D939C93139729A13AA1D6
:103370004BA15CA1CA01B9010E943A336B017C01E7
:103380002D8D3E8D4F8D58A1CA01B9010E943A334F
:10339000A70196010E94B2300E94ED339B01AC015F
:1033A000698D7A8D8B8D9C8D0E9493310E9467313F
:1033B00020E030E044E353E40E943A332BED3FE059
:1033C00049E450E40E949331F80164837583868355
:1033D0009783298D3A8D4B8D5C8DCA01B9010E946E
:1033E0003A33A70196010E94B2300E94ED339B014F
:1033F000AC016D8D7E8D8F8D98A10E9493310E94BE
:10340000673120E030E044E353E40E943A332BED8F
:103410003FE049E450E40E949331D80118966D933F
:103420007D938D939C931B97A8960FB6F894DEBF5F
:103430000FBECDBFDF91CF911F910F91FF90EF9005
:10344000DF90CF90BF90AF909F908F907F906F90C4
:103450005F904F900895E091DB02F091DC0230978D
:10346000E1F030910403209103033217B0F040E003
:10347000242F30E02617370754F4DC01A20FB31FC6
:103480005C91D901AB5FBC4F5C934F5FF1CF109261
:10349000040360930303CB0109940895E091DD02D6
:1034A000F091DE02309729F01092E1021092E002D2
:1034B0000994089508951092040310920303109242
:1034C000E1021092E0020C94371BCF93DF93EC01E2
:1034D000862F0E94511B8EE49AE10E940A1C8BE207
:1034E0009AE10E94051CCE01DF91CF910C945B1AEA
:1034F0000C94651A862F413208F040E265E073E0D3
:103500000E94551B1092040380930303089521E049
:103510000C947A1A21E00C947A1A0C947A1A81E0AD
:103520008093DF02609302031092E1021092E002A6
:1035300008950C948F1A0F93062F21E04091E0021A
:1035400062EE72E0809102030E94991B1092E102E8
:103550001092E0021092DF020F91089561E00C9446
:103560009B1ACF93DF931F92CDB7DEB7698380910B
:10357000DF02882389F08091E0028032A8F48091F4
:10358000E102E82FF0E0EE51FD4F60838F5F809302
:10359000E1028093E00205C061E0CE0101960E9445
:1035A000EC1B81E090E002C080E090E00F90DF91A2
:1035B000CF910895CF92DF92EF92FF920F931F93D6
:1035C000CF93DF937C01CB018A012091DF0222237C
:1035D00061F0EB016B01C40ED51ECC15DD0541F089
:1035E0006991C7010E94B11AF8CF642F0E94EC1BA9
:1035F000C801DF91CF911F910F91FF90EF90DF9065
:10360000CF9008958091030390E020910403821BE2
:10361000910908952091040380910303281750F421
:10362000E22FF0E0EB5FFC4F808190E02F5F209372
:10363000040308958FEF9FEF0895E09104038091B4
:103640000303E81730F4F0E0EB5FFC4F808190E07B
:1036500008958FEF9FEF089508957093DC026093B3
:10366000DB0208957093DE026093DD0208951092EC
:10367000920381E08093900310928F038AB183605C
:103680008AB9599AE9EBF0E080818E7F808380814E
:103690008D7F808388E48093B80085E48093BC00AC
:1036A0000895880F8093BA000895413208F03FC012
:1036B000909192039111FCCF91E09093920320930B
:1036C00090032FEF2093250310926A03240F209379
:1036D00069039093910390919103880F892B8093B4
:1036E000910380918F03813041F410928F03809178
:1036F00091038093BB0085EC01C085EE8093BC00F4
:10370000809192038130E1F380916A03841710F471
:1037100040916A032BE633E0FB01D9018A2F821B1B
:10372000841718F48D918193F9CF842F089580E048
:1037300008950F93413208F046C090919203911181
:10374000FCCF92E090939203009390039FEF9093AD
:10375000250310926A0340936903FB016BE673E053
:10376000DB019A2F961B941718F491919D93F9CF32
:103770001092910390919103880F892B809391036C
:1037800080918F03813041F410928F0380919103D7
:103790008093BB0085EC01C085EE8093BC002223A2
:1037A00021F0809192038230E1F3809125038F3FD5
:1037B00061F080912503803251F0809125038033A0
:1037C00041F483E007C081E005C080E003C082E0EF
:1037D00001C084E00F910895613298F42091920322
:1037E000243089F460934703FC0189E493E0DC0111
:1037F0002A2F281B261718F421912D93F9CF80E04A
:10380000089581E0089582E0089590938C03809359
:103810008B03089590938E0380938D0308958823DE
:1038200011F085EC01C085E88093BC00089585ED1A
:103830008093BC008091BC0084FDFCCF1092920369
:10384000089585EC8093BC001092920308951F9216
:103850000F920FB60F9211242F933F934F935F93C4
:103860006F937F938F939F93AF93BF93EF93FF9348
:103870008091B900887F803609F49CC068F5883251
:1038800009F45BC090F4803109F454C038F4882303
:1038900009F4F5C0883009F44DC0F5C0883109F449
:1038A0004CC0803209F45DC0EEC0803409F468C0B9
:1038B00048F4803309F455C0883309F0E4C080939C
:1038C0002503A8C0803509F44FC0883509F45DC0D0
:1038D000883409F0D8C0D5C0883909F4C6C0A8F426
:1038E000883709F467C038F4883609F463C0803734
:1038F00009F460C0C8C0883809F4B7C0803909F439
:103900005FC0803809F0BFC05BC0803B09F485C050
:1039100038F4803A09F466C0883A09F47EC0B3C02E
:10392000803C09F4A6C0883C09F4A3C0883B09F494
:1039300089C0A9C08091910310C090916A038091C1
:103940006903981770F5E0916A0381E08E0F809308
:103950006A03F0E0E559FC4F80818093BB0085EC61
:1039600085C0809325038DC0E0916A0381E08E0FAE
:1039700080936A038091BB00F0E0E559FC4F80839F
:1039800090916A03809169036DC0E0916A0381E0C0
:103990008E0F80936A038091BB00F0E0E559FC4FE5
:1039A00080838091900381116CC081E080938F03AC
:1039B00084EA60C083E08093920310922603CFCF05
:1039C00080912603803208F050C0E091260381E008
:1039D0008E0F809326038091BB00F0E0E95DFC4FE1
:1039E0008083BDCF80912603803230F4E09126039E
:1039F000F0E0E95DFC4F10820E94171C60912603E5
:103A000070E0E0918B03F0918C0387E293E00995DD
:103A1000109226030E94211C36C084E080939203FA
:103A20001092480310924703E0918D03F0918E03AA
:103A3000099580914703811105C081E08093470378
:103A400010924903E091480381E08E0F8093480370
:103A5000F0E0E75BFC4F80818093BB0090914803CE
:103A600080914703981708F47ACF85E88093BC00CB
:103A70000AC085EC8093BC001092920304C010929F
:103A800025030E94171CFF91EF91BF91AF919F9169
:103A90008F917F916F915F914F913F912F910F90F7
:103AA0000FBE0F901F901895EF92FF920F93E12C8D
:103AB000F12C05E020E030E040E850E06FE271E0FA
:103AC00089ED92E00E943C2502E020E030E040E8F1
:103AD00050E06CE371E089E593E00E943C250E9490
:103AE000A82780E090E00F91FF90EF90089588EB79
:103AF00091E00C94B80ECF93DF938BE090E00E949E
:103B0000EA1EEC01009731F0FC0111921192CF01F5
:103B10000E94231FCE01DF91CF910895AF92BF92F3
:103B2000CF92DF92EF92FF920F931F93CF93DF9389
:103B30007C01EB01B42EA22E0E94DE27F701C0808B
:103B4000D180CE018C219D21A11003C0892B29F4A5
:103B50003CC08C179D0709F038C0BB2041F0CE0156
:103B6000809590958C219D21F7019183808300E0C1
:103B700010E00E94B128012B09F43DC0811102C060
:103B80000E945F200E94C92B91FD1CC00FB6F894C3
:103B90000F92F701808191819E0128233923A11082
:103BA00003C0232B21F40CC02C173D0749F4BB2084
:103BB00039F0C095D095C823D923F701D183C083AC
:103BC0000F900FBE6C01DD2416C00115110589F29E
:103BD000B11003C060E070E002C060E071E0A110CD
:103BE00074606C2B7D2BA801C70102960E94262AC7
:103BF000C12CD12CBECFC601DF91CF911F910F9167
:103C0000FF90EF90DF90CF90BF90AF900895FC01B0
:103C10000FB6F8940F92808191816095709568231A
:103C20007923718360830F900FBE0895FC0180811A
:103C300091810895CF92DF92EF92FF920F931F939D
:103C4000CF93DF93EC018B017C0185E0E80EF11C42
:103C50000E94DE27EF81F88588819981802B912B46
:103C60009983888300E010E068817981EE15FF0573
:103C7000E1F0D280C38020813181C9019927AC0154
:103C80004623572332FD03C0452B21F40BC04817B0
:103C9000590741F430FF02C0082B192B7260CF0185
:103CA0000E949D2AED2DFC2DDFCF00951095062357
:103CB0001723198308830E94B12888819981DF9195
:103CC000CF911F910F91FF90EF90DF90CF900895CB
:103CD000AF92BF92CF92DF92EF92FF920F931F931A
:103CE000CF93DF93EC015B018A0169010E94DE271B
:103CF000E880F980B501CE010E941A1EEA28FB284F
:103D0000C701802391238017910761F488819981ED
:103D10009801209530958223932399838883C12C21
:103D2000D12C0FC0C114D10451F0A601B8017560A7
:103D3000CE0102960E94262AE12CF12C02C0E880D6
:103D4000F9800E94B128CD28E9F0811102C00E94BB
:103D50005F200E94C92B91FD13C00FB6F8940F92FB
:103D6000888199819801282339232017310731F45C
:103D70000095109508231923198308830F900FBE0F
:103D80007C01FF24C701DF91CF911F910F91FF901C
:103D9000EF90DF90CF90BF90AF900895CF93DF93D7
:103DA000EC010E94DE278A81882339F060E072E00E
:103DB0008F8198850E949D2AF6CFCE010E94091F0F
:103DC000DF91CF910C94B128BA010C941A1EBA015C
:103DD0000C94071E0F931F93CF93DF9300D0CDB7A2
:103DE000DEB789839A830E94DE2789819A810E94A7
:103DF00022358C010E94B1280115110511F40E9491
:103E0000E103C8010F900F90DF91CF911F910F91A7
:103E10000895CF93DF9300D0CDB7DEB7009771F050
:103E200089839A830E94DE2789819A810E94BA350C
:103E30000F900F90DF91CF910C94B1280F900F90BD
:103E4000DF91CF910895FC010396928381832FEF38
:103E50003FEF348323839683858390878783108203
:103E60000895FC01118610860895CF93DF939C017D
:103E7000FB01DC011196CD91DC911297D383C283B3
:103E80008C819D81958384838C819D81DC01139637
:103E90007C936E9312977D836C8331872087F90121
:103EA00080818F5F8083DF91CF9108950F931F935F
:103EB000CF93DF938C01FB01208131812F3F8FEF66
:103EC000380721F4E801AF81B8850EC0D8011396F8
:103ED00012968D919C911397EC014881598124177A
:103EE000350710F0DC01F4CF12968D919C91139759
:103EF00093838283EC01FD83EC83B583A4831396C3
:103F0000FC93EE93129711870087F80180818F5FF1
:103F10008083DF91CF911F910F910895CF93DF930D
:103F2000FC01A085B1858281938124813581EC01DA
:103F30003D832C83C481D5819B838A8311968D9187
:103F40009C9112978E179F0721F41296DC93CE93C3
:103F50001197118610868C9181508C93DF91CF91AF
:103F6000089531E1FC013083319722E220833197BB
:103F7000A3E3A083319760833197708331971082D8
:103F8000319760E8608331971082319762E06083F7
:103F9000319763E06083319764E06083319765E037
:103FA0006083319766E06083319767E06083319783
:103FB00068E06083319769E06083319760E16083F6
:103FC00031973083319732E13083319733E1308359
:103FD000319734E13083319735E13083319736E1E1
:103FE0003083319737E13083319738E1308331972F
:103FF00039E13083319730E23083319731E23083D9
:1040000031972083319723E2208331974083319782
:104010005083319726E22083319727E2208331971E
:1040200028E22083319729E22083319720E32083FF
:10403000319721E3208386970895A89520EC88E1A5
:1040400090E00FB6F894A895809360000FBE20937F
:104050006000A0915802B0915902CD91CDBFDD9181
:10406000DEBFFF91EF91DF91CF91BF91AF919F9113
:104070008F917F916F915F914F913F912F911F9100
:104080000F91FF90EF90DF90CF90BF90AF909F90F7
:104090008F907F906F905F904F903F902F901F90E8
:1040A0000F900FBE0F90089581E0089588E10FB63C
:1040B000F89480936000109260000FBE08950F92F4
:1040C0000FB6F8940F921F9211242F923F924F92A5
:1040D0005F926F927F928F929F92AF92BF92CF9298
:1040E000DF92EF92FF920F931F932F933F934F9383
:1040F0005F936F937F938F939F93AF93BF93CF9370
:10410000DF93EF93FF93A0915802B09159020DB63F
:104110000D920EB60D920E947229A0915802B09194
:104120005902CD91CDBFDD91DEBFFF91EF91DF91BF
:10413000CF91BF91AF919F918F917F916F915F913F
:104140004F913F912F911F910F91FF90EF90DF9032
:10415000CF90BF90AF909F908F907F906F905F9027
:104160004F903F902F901F900F900FBE0F9008958B
:104170000F920FB6F8940F921F9211242F923F9234
:104180004F925F926F927F928F929F92AF92BF9267
:10419000CF92DF92EF92FF920F931F932F933F9353
:1041A0004F935F936F937F938F939F93AF93BF933F
:1041B000CF93DF93EF93FF93A0915802B0915902F0
:1041C0000DB60D920EB60D9213BE0E94FE27811100
:1041D0000E947229A0915802B0915902CD91CDBF91
:1041E000DD91DEBFFF91EF91DF91CF91BF91AF9154
:1041F0009F918F917F916F915F914F913F912F91FF
:104200001F910F91FF90EF90DF90CF90BF90AF90F4
:104210009F908F907F906F905F904F903F902F90E6
:104220001F900F900FBE0F9008950E94B820189510
:104230000FB6F8940F92FC01928D0F900FBE81E0A3
:10424000911180E008950F931F93CF93DF93EC01BA
:10425000042F1A8D4C8D41110BC088819981892BB7
:10426000E9F58A819B810E94902B1B821A8237C0BC
:1042700050E0011115C08C819D810E9449362C8D22
:104280008C819D81820F911D9D838C832A813B812E
:104290008217930718F1888199819D838C831EC0B2
:1042A0008E819F810E9449362C8D30E03195219579
:1042B00031098E819F81820F931F9F838E83688136
:1042C00079818617970730F48A819B81820F931F2B
:1042D0009F838E83023011F41111115080E01F5F13
:1042E0001A8FDF91CF911F910F910895FC01CB019F
:1042F000448D4423A1F050E026813781240F351FDF
:1043000037832683628173812617370720F0208147
:10431000318137832683668177810C9449360895ED
:10432000FF920F931F93CF93DF93EC010FB6F89496
:104330000F92FE8C8C010F5E1F4F1F145CF4898955
:10434000882341F0C8010E945D2A81110E940E2B32
:10435000FA94F3CF8FEF8E8F0F900FBE0FB6F894B5
:104360000F92FD8C8E01085F1F4F1F145CF488852F
:10437000882341F0C8010E945D2A81110E940E2B02
:10438000FA94F3CF8FEF8D8F0F900FBEDF91CF9107
:104390001F910F91FF900895CF93DF93EC010FB61B
:1043A000F8940F92288139818B8D7C8D879FC00175
:1043B0001124A901480F591F5B834A831A8E3D833C
:1043C0002C83871B9109820F931F9F838E838FEF0E
:1043D0008D8F8E8F61110CC08885882389F0CE0166
:1043E00008960E945D2A882359F00E945F2008C029
:1043F000CE0108960E94231FCE0141960E94231FE2
:104400000F900FBE81E0DF91CF910895EF92FF9260
:104410001F93CF93DF931F92CDB7DEB7182F66237C
:1044200021F0869FC001112402C080E090E04F96E9
:1044300069830E94EA1E7C016981009799F06111ED
:1044400004C0FC019183808306C09C01215E3F4F24
:10445000FC0131832083F701138F648F61E0C70172
:104460000E94CC21C7010F90DF91CF911F91FF9047
:10447000EF900895CF93C62F42E060E00E9406229D
:10448000009711F0FC01C28FCF910895BF92CF9297
:10449000DF92EF92FF920F931F93CF93DF9300D0A1
:1044A00000D01F92CDB7DEB78C016B015D834C83CA
:1044B000B22E20E07C0188E0E80EF11C0FB6F894E3
:1044C0000F92F801928D838D981718F0F2E0BF12C9
:1044D00014C04B2DB601C8010E942321F801918917
:1044E000992321F0C80141960E945D2A81110E9402
:1044F0005F200F900FBE81E050C08C819D81892B81
:1045000019F40F900FBE48C0211104C0CE010196CE
:104510000E94D12A0F900FBE0E94DE270FB6F8949A
:104520000F92F801858D8F3F09F4158EF801868D65
:104530008F3F09F4168E0F900FBEBE016C5F7F4F48
:10454000CE0101960E94DC2A811121C00FB6F89499
:104550000F92F801928D838D0F900FBE981311C0AA
:104560006C817D81C7010E94152AC8010E9490219B
:104570000E94B128882311F021E0A0CF0E945F2083
:10458000FBCFC8010E9490210E94B128F5CFC8013D
:104590000E9490210E94B12880E00F900F900F9010
:1045A0000F900F90DF91CF911F910F91FF90EF909F
:1045B000DF90CF90BF900895CF93DF93482F60E0B6
:1045C00081E00E940622EC01009761F01B821A82B2
:1045D000198218821E8220E040E050E060E070E026
:1045E0000E944622CE01DF91CF9108950F931F9331
:1045F000CF93DF93EC010A811B810E94282B0817BF
:10460000190771F48E8181508E8381110BC020E0D7
:1046100040E050E060E070E0CE010E94462202C01F
:1046200080E001C081E0DF91CF911F910F9108954B
:10463000FF920F931F93CF93DF93EC018A019A8D22
:104640008B8D981710F02230E1F4FE8C422FCE01B2
:104650000E9423218FEFF81210C08989882379F0F6
:10466000CE0141960E945D2A882349F0011511056B
:1046700031F081E0F801808305C0F394FE8E81E083
:1046800001C080E0DF91CF911F910F91FF900895BD
:10469000CF93DF93FC01EB01928D838D9817B8F4D3
:1046A000868D9F5F928F8F3F71F48189882369F097
:1046B000CF0141960E945D2A882339F0209729F086
:1046C00081E0888305C08F5F868F81E001C080E034
:1046D000DF91CF910895AF92BF92CF92DF92EF9288
:1046E000FF920F931F93CF93DF9300D000D01F92C0
:1046F000CDB7DEB78C016B015D834C83A22E20E029
:104700007C0181E1E80EF11C0FB6F8940F92F801DC
:10471000B28CBB2071F1E680F780B601C8010E941F
:104720007621A11019C0BA94F801B28E80819181CE
:10473000892B29F40E94E02BF80193838283F801EE
:104740008085882391F0C80108960E945D2A8823FD
:1047500061F00E945F2009C0F801F782E68281893A
:10476000882319F0C8014196F0CF0F900FBE81E069
:104770005FC08C819D81892B19F40F900FBE57C0AB
:10478000211104C0CE0101960E94D12A0F900FBEC4
:104790000E94DE270FB6F8940F92F801858D8F3FA7
:1047A00009F4158EF801868D8F3F09F4168E0F904F
:1047B0000FBEBE016C5F7F4FCE0101960E94DC2AC6
:1047C00081112BC0C8010E941821882301F1F80132
:1047D00080819181892B51F40FB6F8940F92F801E2
:1047E000828193810E943B2B0F900FBE6C817D8153
:1047F000C7010E94152AC8010E9490210E94B12879
:10480000882311F021E080CF0E945F20FBCFC801F8
:104810000E9490210E94B128F5CFC8010E949021EA
:104820000E94B128C8010E941821882359F380E012
:104830000F900F900F900F900F90DF91CF911F91DD
:104840000F91FF90EF90DF90CF90BF90AF900895C1
:10485000EF92FF920F931F93CF93DF93EC018B01A5
:10486000EA80FB800E94282BE816F90629F48E8145
:104870008F5F8E8381E00CC020E0A80160E070E0D3
:10488000CE010E946B23882319F09E819F5F9E8337
:10489000DF91CF911F910F91FF90EF900895EF92CC
:1048A000FF920F931F93CF93DF93EC018A01EA8C61
:1048B000EE20E1F0FD8C0E947621EA94EA8E8FEFE3
:1048C000F81210C08885882379F0CE0108960E94DE
:1048D0005D2A882349F00115110531F081E0F801C6
:1048E000808305C0F394FD8E81E001C080E0DF91FC
:1048F000CF911F910F91FF90EF9008950F931F9309
:10490000CF93DF93EC018A8D882349F00E811F81BC
:10491000CE010E9476211F830E8381E001C080E0DA
:10492000DF91CF911F910F9108950FB6F8940F92D8
:10493000FC01828D0F900FBE08950FB6F8940F9270
:10494000FC01228D838D821B0F900FBE0895FC0108
:10495000828D08950C94091FFC01928D81E09111C4
:1049600080E00895FC01228D81E0938D291380E081
:104970000895CF93DF93EC010FB6F8940F928D8DCD
:104980008F3F09F41D8E8E8D8F3F09F41E8E0F9080
:104990000FBE8A8D811104C0CE0141960E943E2A2D
:1049A000CE01DF91CF910C949021EF92FF920F9363
:1049B0001F93CF93DF931F92CDB7DEB77C01009199
:1049C00065021091660280915802909159020296F8
:1049D00069830E948E1F69818FEFE816F80699F4AB
:1049E000662389F060915802709159026E5F7F4F83
:1049F00088E692E00F90DF91CF911F910F91FF9089
:104A0000EF900C94351FE00EF11EE0915802F091EA
:104A10005902F382E2826091580270915902E016C5
:104A2000F10678F480918402909185026E5F7F4F49
:104A30000F90DF91CF911F910F91FF90EF900C9409
:104A4000561F80918602909187026E5F7F4F0E9471
:104A5000561F80915D0290915E02E816F90620F4DF
:104A6000F0925E02E0925D020F90DF91CF911F9174
:104A70000F91FF90EF9008955F926F927F928F92C7
:104A80009F92AF92BF92CF92DF92EF92FF920F93DD
:104A90001F93CF93DF934C01562E172F5A013901E4
:104AA000CA010E94EA1E6C01009709F4DCC088E28A
:104AB00090E00E94EA1EEC010097A1F0D88ECF8A08
:104AC000A50165EA70E0C6010E94523621E0A21AF3
:104AD000B108CF88D88CCA0CDB1CE52DF12F80E003
:104AE00090E008C0C6010E94091FBDC00196883031
:104AF000910561F0BF0141919E01280F391FD90135
:104B000059964C93DB012C912111F0CF18A204305F
:104B100008F003E00E8B09A31AA25E01B2E0AB0E0F
:104B2000B11CC5010E94311FCE010C960E94311F9D
:104B3000D987C88784E090E0801B91099D878C8786
:104B4000DB8BCA8B1BA21CA21DA21EA21FA2A3014B
:104B5000B401C6010E94B11F99838883E114F10456
:104B600019F0F701D183C0830FB6F8940F928091AA
:104B700067028F5F8093670280915802909159027B
:104B8000892BD1F5D0935902C093580280916702C6
:104B9000813009F041C08AE992E00E94231F83EA34
:104BA00092E00E94231F8CEA92E00E94231F85EB73
:104BB00092E00E94231F81E992E00E94231F88E86F
:104BC00092E00E94231F8BE792E00E94231F82E75E
:104BD00092E00E94231F88E692E00E94231F81E951
:104BE00092E0909387028093860288E892E0909307
:104BF00085028093840210C08091630281110CC0F1
:104C0000E0915802F091590296898E89891720F017
:104C1000D0935902C093580280915F028F5F8093B6
:104C20005F028E8990916402981710F48093640259
:104C3000F9E08F9FC0011124B50186569D4F0E9457
:104C4000351F0F900FBE80916302882351F0E091D1
:104C50005802F091590296898E89981710F40E9493
:104C60005F2081E001C08FEFDF91CF911F910F9105
:104C7000FF90EF90DF90CF90BF90AF909F908F907C
:104C80007F906F905F9008950F931F93CF93DF9362
:104C9000EC010FB6F8940F92009721F4C0915802DE
:104CA000D09159028E010E5F1F4FC8010E948E1FC6
:104CB0008C899D89892B21F0CE010C960E948E1F34
:104CC00080915F028F5F80935F0280915802909184
:104CD0005902C817D90759F4B80182E792E00E9437
:104CE000351F809171028F5F809371020EC0809199
:104CF00067028150809367028F89988D0E94091FF7
:104D0000CE010E94091F0E9462030F900FBE809186
:104D10006302882349F08091580290915902C81784
:104D2000D90711F40E945F20DF91CF911F910F915D
:104D300008950FB6F8940F92009721F480915802CD
:104D400090915902FC0186890F900FBE089500973B
:104D500021F48091580290915902FC0186890895AE
:104D6000FF920F931F93CF93DF93EC01643008F011
:104D700063E00FB6F8940F92209721F4C091580287
:104D8000D091590229A1261709F44CC080915802EC
:104D900090915902261768F4C817D90779F0E09165
:104DA0005802F0915902FF24F3948689681738F469
:104DB00005C0FF24F394C817D90709F0F12C8E8998
:104DC000281301C06E8B69A32C853D8537FD06C075
:104DD00024E030E0261B31093D872C8729E0829FA3
:104DE000C001112486569D4F2A853B852817390717
:104DF000B1F48E010E5F1F4FC8010E948E1F8E8975
:104E000090916402981710F48093640229E0829FC5
:104E1000C0011124B80186569D4F0E94351FF11024
:104E20000E945F200F900FBEDF91CF911F910F91D5
:104E3000FF9008950F931F93CF93DF93EC0100979A
:104E400009F439C08091580290915902C817D907C6
:104E500091F10FB6F8940F928A859B8588569240FF
:104E600041F58C899D8922E08B37920711F1892BBE
:104E700001F58E010E5F1F4FC8010E948E1F8E89A3
:104E800090916402981710F48093640229E0829F45
:104E9000C0011124B80186569D4F0E94351FE09134
:104EA0005802F09159029E898689981710F00E9445
:104EB0005F200F900FBEDF91CF911F910F9108954A
:104EC000FF920F931F93CF93DF93EC018A859B850D
:104ED00088569240A9F58C899D8932E08B379307DB
:104EE00079F1892B69F580915A02811122C0E091F4
:104EF0005802F0915902FF24F3949E8986899817ED
:104F000008F4F12C8E010E5F1F4FC8010E948E1F06
:104F10002E8980916402821710F42093640239E094
:104F2000239FC0011124B80186569D4F0E94351F52
:104F300008C0BE01645F7F4F8BE792E00E94351F7F
:104F4000F12C8F2DDF91CF911F910F91FF9008953C
:104F5000EF92FF920F938BE5E82E82E0F82E00E0AF
:104F600020E030E040EC50E064E471E08DE793E055
:104F70000E943C258130B9F40E946E2E813099F454
:104F8000F8948FEF9FEF90935E0280935D0281E033
:104F90008093630210926602109265020F91FF9057
:104FA000EF900C941D200F91FF90EF900895F894CE
:104FB000109263020E9456207894089580915A02BC
:104FC0008F5F80935A0208950FB6F8940F928091E4
:104FD0006502909166020F900FBE08958091650260
:104FE000909166020895809167020895009721F4D8
:104FF000809158029091590249960895CF92DF927C
:10500000EF92FF920F931F93CF93DF9380915A02F9
:10501000811191C0C0916502D09166022196D09312
:105020006602C09365022097B9F480918602909140
:105030008702209184023091850230938702209369
:1050400086029093850280938402809160028F5F34
:10505000809360020E94620380915D0290915E02E3
:10506000D12CC817D90708F455C099E0C92EE09192
:105070008602F09187028081811107C08FEF9FEF38
:1050800090935E0280935D0245C0E0918602F091AC
:1050900087020580F681E02D06811781D8011296DE
:1050A0002D913C911397C217D30728F430935E02D9
:1050B00020935D022FC07801B2E0EB0EF11CC70116
:1050C0000E948E1FF80124893589232B21F0C80105
:1050D0000C960E948E1FD80156962C9180916402E6
:1050E000821710F420936402C29EC0011124B701FC
:1050F00086569D4F0E94351FE0915802F09159024B
:10510000D80156969C918689981708F4B0CFDD2473
:10511000D394ADCFE0915802F0915902E689B9E0FD
:10512000EB9FF0011124E656FD4F8081823048F05C
:10513000DD24D39406C0809162028F5F8093620267
:10514000D12C80916102882311F0DD24D3948D2D20
:10515000DF91CF911F910F91FF90EF90DF90CF9053
:105160000895EF92FF920F931F93CF93DF930FB6A3
:10517000F8940F9280915A02815080935A02809144
:105180005A02882311F080E052C080916702882380
:10519000D1F3C0E0D0E029E0F22EEE24E394809138
:1051A0007B02882351F1E0918002F0918102C68157
:1051B000D781CE010C960E948E1F8E010E5F1F4F6D
:1051C000C8010E948E1F8E8990916402981710F476
:1051D00080936402F89EC0011124B80186569D4F49
:1051E0000E94351FE0915802F09159029E898689EC
:1051F0009817A8F2E0926102D2CFCD2B11F00E9455
:105200006203C0916202CC2351F0D1E00E94FE27DC
:105210008111D0936102C150C9F71092620280914E
:105220006102882309F4AFCF0E945F2081E00F90D4
:105230000FBEDF91CF911F910F91FF90EF900895D6
:105240000F931F93CF93DF93EC018B010E94DE2716
:105250004091650250916602E881F9819F01200F1B
:10526000311F4E175F0728F42E173F0748F481E0DF
:1052700004C081E02E173F0720F04217530708F0C3
:1052800080E039832883882331F060E0C901841BE2
:10529000950B0E94D5240E94B128811102C00E9462
:1052A0005F20DF91CF911F910F910895CF93DF93EE
:1052B00000D0CDB7DEB7009719F40E945F200DC073
:1052C00089839A830E94DE2760E089819A810E9407
:1052D000D5240E94B128882381F30F900F90DF918D
:1052E000CF91089580915A02882321F081E0809324
:1052F0006102089510926102A0915802B091590282
:10530000E0915802F09159022D913C918789908D3E
:105310008217930760F06091580270915902809152
:10532000580290915902675E7F4F0E94EE032091D0
:10533000640299E0929FF0011124E656FD4F8081AE
:10534000811102C02150F6CFA181B28112960D9039
:10535000BC91A02DB283A183CF010396A817B907F2
:1053600031F412968D919C911397928381830180E1
:10537000F281E02D868197819093590280935802A3
:105380002093640208950F931F93CF93DF93EC0152
:105390000FB6F8940F92009721F4C0915802D09163
:1053A00059028E010E5F1F4FC8010E948E1F8C890B
:1053B0009D89892B21F0CE010C960E948E1FB80189
:1053C00088E692E00E94351F0F900FBE8091630225
:1053D000882339F00FB6F8940F920E9462030F9061
:1053E0000FBE8091580290915902C817D907C1F495
:1053F00080916302882319F00E945F2011C0809180
:10540000670290916802981305C010925902109299
:10541000580206C0DF91CF911F910F910C94722911
:10542000DF91CF911F910F910895CF93DF93EB01FF
:105430006091580270915902645F7F4F0E94561F1D
:1054400061E0CE01DF91CF910C94D524CF93DF930F
:10545000EA01E0915802F0915902706875876487FB
:105460006091580270915902645F7F4F0E94351F0E
:1054700061E0CE01DF91CF910C94D5240F931F935F
:10548000CF93DF931F92CDB7DEB78B0160915802A7
:1054900070915902645F7F4F49830E94351F498193
:1054A000442311F00FEF1FEF642FC8010F90DF911D
:1054B000CF911F910F910C94D5240F931F93CF93ED
:1054C000DF93DC011596ED91FC911697C681D7818B
:1054D0008E01045F1F4FC8010E948E1F80915A02E7
:1054E000811114C00A501109C8010E948E1F8E89B3
:1054F00090916402981710F480936402B9E08B9F36
:10550000C0011124B80186569D4F03C0B8018BE736
:1055100092E00E94351FE0915802F09159029E8955
:105520008689891720F481E08093610201C080E0C0
:10553000DF91CF911F910F9108950F931F93CF93F8
:10554000DF937068FC0171836083C681D7810E94FC
:105550008E1F8E010E5F1F4FC8010E948E1F8E8905
:1055600090916402981710F480936402F9E08F9F81
:10557000C0011124B80186569D4F0E94351FE0914D
:105580005802F09159029E898689891720F481E09A
:105590008093610201C080E0DF91CF911F910F9154
:1055A000089520916002FC012083209165023091D2
:1055B0006602328321830895CF93DF930FB6F89468
:1055C0000F92E0916502F0916602DB014D915C91D2
:1055D0004F3FBFEF5B07D1F0B0916002EC01A881B3
:1055E00029813A81BA1719F0E217F30788F4DF012D
:1055F000A21BB30BA417B50758F42E1B3F0B240FA7
:10560000351FFB01318320830E94D12A80E001C035
:1056100081E00F900FBEDF91CF91089581E08093DC
:1056200061020895009721F48091580290915902E7
:10563000DC015796ED91FC91589780E090E0DC01F9
:105640002191253A21F40196A11DB11DF9CF0895AC
:1056500080915802909159020895809163028823A5
:1056600031F080915A02811104C082E0089581E0F6
:10567000089580E008950F931F93CF93DF93EC017B
:10568000009709F448C08E89E0915802F0915902C0
:105690009689891708F03FC02C853D8537FD0BC0E2
:1056A000E0915802F0915902968924E030E0291BDC
:1056B00031093D872C8729E0829FC001112486563D
:1056C0009D4F2A853B8528173907F9F48E010E5F17
:1056D0001F4FC8010E948E1FE0915802F09159029D
:1056E00086898E8B90916402981710F480936402DF
:1056F00029E0829FC0011124B80186569D4FDF9199
:10570000CF911F910F910C94351FE0915802F091A9
:10571000590286898E8BDF91CF911F910F91089549
:105720000F931F93CF93DF93EC01009711F480E068
:105730002BC08AA181508AA32E8999A12917B9F378
:105740008111F5CF8E010E5F1F4FC8010E948E1F81
:1057500089A18E8B482F50E024E030E0241B350BCC
:105760003D872C8790916402981710F4809364020F
:1057700029E0249FC001259F900D1124B801865671
:105780009D4F0E94351F81E0DF91CF911F910F91B6
:105790000895E0915802F091590284859585E09131
:1057A0005802F0915902A0915802B09159025696B0
:1057B0004C9124E030E0241B31093587248708957B
:1057C0008091580290915902892B39F0E09158024A
:1057D000F091590282A18F5F82A38091580290912B
:1057E000590208950F931F93182FCB010FB6F89409
:1057F0000F92E0915802F091590243A154A165A182
:1058000076A1452B462B472B69F4E0915802F09185
:10581000590221E027A3009729F061E00E94D524D6
:105820000E945F200F900FBE0FB6F8940F92E09188
:105830005802F091590263A174A185A196A1611546
:10584000710581059105A9F0E0915802F091590286
:10585000112329F013A214A215A216A20AC08B01CB
:105860009C01015011092109310903A314A325A3A7
:1058700036A3E0915802F091590217A20F900FBE83
:105880001F910F9108958F929F92AF92BF92CF92E6
:10589000DF92EF92FF920F931F93CF93DF9300D08D
:1058A00000D0CDB7DEB7D7010FB6F8940F92E091D4
:1058B0005802F0915902E7A1E23061F1E0915802FB
:1058C000F0915902C3A0D4A0E5A0F6A04B015C0161
:1058D00080949094A094B0948C209D20AE20BF2002
:1058E00083A294A2A5A2B6A2E0915802F091590217
:1058F00081E087A3109771F061E0CD0129833A839D
:105900004B835C830E94D5240E945F205C814B8185
:105910003A8129810F900FBE0FB6F8940F920115AE
:10592000110569F0E0915802F091590283A194A108
:10593000A5A1B6A1F80180839183A283B383E091EE
:105940005802F091590287A18130C1F0E0915802CC
:10595000F0915902C3A0D4A0E5A0F6A0DA01C901D4
:1059600080959095A095B0958C219D21AE21BF2169
:1059700083A394A3A5A3B6A381E001C080E0E09136
:105980005802F091590217A20F900FBE0F900F907E
:105990000F900F90DF91CF911F910F91FF90EF909B
:1059A000DF90CF90BF90AF909F908F900895CF924F
:1059B000DF92EF92FF920F931F93CF93DF93EC014F
:1059C0000FB6F8940F920115110549F0CBA0DCA099
:1059D000EDA0FEA0F801C082D182E282F3828FA105
:1059E00092E09FA322303105C1F080F421303105CF
:1059F00019F50BA11CA12DA13EA1042B152B262BC3
:105A0000372B0BA31CA32DA33EA316C023303105B7
:105A100079F02430310551F00FC04BA15CA16DA18C
:105A20007EA14F5F5F4F6F4F7F4F02C0823041F1C9
:105A30004BA35CA36DA37EA3813001F58E010E5FA5
:105A40001F4FC8010E948E1F8E8990916402981783
:105A500010F480936402F9E08F9FC0011124B80113
:105A600086569D4F0E94351FE0915802F0915902D1
:105A70009E898689891710F40E945F2081E001C009
:105A800080E00F900FBEDF91CF911F910F91FF909B
:105A9000EF90DF90CF900895EF92FF920F931F93B6
:105AA000CF93DF93EC010115110549F08BA19CA167
:105AB000ADA1BEA1F80180839183A283B383EFA13E
:105AC00082E08FA322303105A1F060F4213031054E
:105AD00011F58BA19CA1ADA1BEA1842B952BA62B6A
