:100000000C9460000C947D000C947D000C947D0099
:100010000C947D000C947D000C947D000C947D006C
:100020000C947D000C947D000C947D000C947D005C
:100030000C9411050C947D000C947D000C947D00B3
:100040000C947D000C947D000C947D000C947D003C
:100050000C947D000C947D000C947D000C947D002C
:100060000C947D000C947D000C947D000C947D001C
:100070000C947D000C947D000C947D000C947D000C
:100080000C947D000C947D000C947D000C947D00FC
:100090000C947D000C947D000C947D000C947D00EC
:1000A0000C947D000C947D000C947D0013141314AB
:1000B0001314D7133D144B1413141314D7133D14F6
:1000C00011241FBECFEFDAE0DEBFCDBF11E0A0E00C
:1000D000B1E0ECE7FBE202C005900D92A033B1075E
:1000E000D9F721E0A0E3B1E001C01D92AF3CB20717
:1000F000E1F70E945F010C94BC150C94000087B1DD
:10010000806C87B98AB181688AB9269A89E0809320
:10011000C20083EA8093C00087E08093C10081E041
:100120008093C3008FEF8093D10080E8809390008C
:1001300083E1809391008FEF90E0909397008093FC
:100140009600CFE7D0E01FE701E0D0939900C0937D
:1001500098001093CF001093D0001093D20086E047
:1001600090E00E94520D8BB180278BB9EECF81E0D9
:100170008AB9C1E086E090E00E94520D8BB18C27D5
:100180008BB9F8CF0895089508950895E09170010E
:10019000F09171018081811103C08FEF9FEF0CC03E
:1001A000E0917001F09171010580F681E02D0680EB
:1001B000F781E02D828193819093480180934701DC
:1001C000089580915B01882349F10E94DA0BC09168
:1001D0005C010E94AD0CCC23A1F30FB6F8940F92F2
:1001E000E0916101F0916201C681D781CE01029652
:1001F0000E948A0380915101815080935101809126
:100200005B01815080935B010F900FBE8F89988DA9
:100210000E940503CE010E940503D3CF8091840183
:10022000823010F00E945B040E942B01CACF00971D
:1002300021F480914201909143010FB6F8940F92FE
:10024000FC0127A1223019F417A281E001C080E04F
:100250000F900FBE089583EF80937E008FE380930D
:100260007D0080B7877F80BF80B7806880BF83B7FD
:10027000817F83BF0FB6F8940F9283B7816083BFED
:100280000F900FBE889513BE08953F9A479A2FEF9F
:1002900080E792E0215080409040E1F700C00000EC
:1002A000379AF5CF3F9A479A2FEF87EA91E6215088
:1002B00080409040E1F700C00000379AF5CFEF9200
:1002C000FF920F93E12CF12C05E020E030E040E8B4
:1002D00050E069E171E08FE790E00E9438090E94E8
:1002E000A40B80E090E00F91FF90EF900895CF93E2
:1002F000DF938BE090E00E94E602EC01009731F082
:10030000FC0111921192CF010E941F03CE01DF91D7
:10031000CF910895AF92BF92CF92DF92EF92FF926A
:100320000F931F93CF93DF937C01EB01B42EA22E8A
:100330000E94DA0BF701C080D180CE018C219D2173
:10034000A11003C0892B29F43CC08C179D0709F02C
:1003500038C0BB2041F0CE01809590958C219D2125
:10036000F7019183808300E010E00E94AD0C012B27
:1003700009F43DC0811102C00E945B040E94C50FB8
:1003800091FD1CC00FB6F8940F92F7018081918106
:100390009E0128233923A11003C0232B21F40CC074
:1003A0002C173D0749F4BB2039F0C095D095C823E0
:1003B000D923F701D183C0830F900FBE6C01DD24D8
:1003C00016C00115110589F2B11003C060E070E09C
:1003D00002C060E071E0A11074606C2B7D2BA8015D
:1003E000C70102960E94220EC12CD12CBECFC6019D
:1003F000DF91CF911F910F91FF90EF90DF90CF9001
:10040000BF90AF900895FC010FB6F8940F928081D1
:1004100091816095709568237923718360830F9033
:100420000FBE0895FC01808191810895CF92DF92E3
:10043000EF92FF920F931F93CF93DF93EC018B0109
:100440007C0185E0E80EF11C0E94DA0BEF81F88553
:1004500088819981802B912B9983888300E010E01B
:1004600068817981EE15FF05E1F0D280C38020819B
:100470003181C9019927AC014623572332FD03C0BE
:10048000452B21F40BC04817590741F430FF02C037
:10049000082B192B7260CF010E94990EED2DFC2DB7
:1004A000DFCF0095109506231723198308830E9438
:1004B000AD0C88819981DF91CF911F910F91FF90B1
:1004C000EF90DF90CF900895AF92BF92CF92DF92DE
:1004D000EF92FF920F931F93CF93DF93EC015B0199
:1004E0008A0169010E94DA0BE880F980B501CE012A
:1004F0000E941602EA28FB28C70180239123801757
:10050000910761F488819981980120953095822323
:10051000932399838883C12CD12C0FC0C114D1049B
:1005200051F0A601B8017560CE0102960E94220E1C
:10053000E12CF12C02C0E880F9800E94AD0CCD289E
:10054000E9F0811102C00E945B040E94C50F91FD79
:1005500013C00FB6F8940F928881998198012823CF
:1005600039232017310731F40095109508231923FA
:10057000198308830F900FBE7C01FF24C701DF9110
:10058000CF911F910F91FF90EF90DF90CF90BF9090
:10059000AF900895CF93DF93EC010E94DA0B8A812C
:1005A000882339F060E072E08F8198850E94990E6F
:1005B000F6CFCE010E940503DF91CF910C94AD0CD4
:1005C000BA010C941602BA010C9403020F931F9304
:1005D000CF93DF9300D0CDB7DEB789839A830E9493
:1005E000DA0B89819A810E9485148C010E94AD0CDE
:1005F0000115110511F40E944501C8010F900F90DB
:10060000DF91CF911F910F910895CF93DF9300D089
:10061000CDB7DEB7009771F089839A830E94DA0B19
:1006200089819A810E941D150F900F90DF91CF91C3
:100630000C94AD0C0F900F90DF91CF910895FC01B9
:100640000396928381832FEF3FEF34832383968336
:1006500085839087878310820895FC011186108618
:100660000895CF93DF939C01FB01DC011196CD919E
:10067000DC911297D383C2838C819D81958384837F
:100680008C819D81DC0113967C936E9312977D8300
:100690006C8331872087F90180818F5F8083DF91B0
:1006A000CF9108950F931F93CF93DF938C01FB019C
:1006B000208131812F3F8FEF380721F4E801AF818E
:1006C000B8850EC0D801139612968D919C91139700
:1006D000EC01488159812417350710F0DC01F4CF73
:1006E00012968D919C91139793838283EC01FD83E5
:1006F000EC83B583A4831396FC93EE931297118732
:100700000087F80180818F5F8083DF91CF911F91F7
:100710000F910895CF93DF93FC01A085B18582816D
:10072000938124813581EC013D832C83C481D58163
:100730009B838A8311968D919C9112978E179F07A8
:1007400021F41296DC93CE931197118610868C912A
:1007500081508C93DF91CF91089531E1FC0130837A
:10076000319722E220833197A3E3A08331976083FE
:100770003197708331971082319760E860833197A9
:100780001082319762E06083319763E06083319734
:1007900064E06083319765E06083319766E0608351
:1007A000319767E06083319768E06083319769E053
:1007B0006083319760E1608331973083319732E114
:1007C0003083319733E13083319734E1308331978F
:1007D00035E13083319736E13083319737E130832B
:1007E000319738E13083319739E13083319730E206
:1007F0003083319731E2308331972083319723E280
:1008000020833197408331975083319726E22083AC
:10081000319727E22083319728E22083319729E21C
:100820002083319720E32083319721E3208386972B
:100830000895A89520EC88E190E00FB6F894A8956B
:10084000809360000FBE20936000A0914201B091A0
:100850004301CD91CDBFDD91DEBFFF91EF91DF91DF
:10086000CF91BF91AF919F918F917F916F915F9148
:100870004F913F912F911F910F91FF90EF90DF903B
:10088000CF90BF90AF909F908F907F906F905F9030
:100890004F903F902F901F900F900FBE0F90089594
:1008A00081E0089588E10FB6F8948093600010927B
:1008B00060000FBE08950F920FB6F8940F921F922A
:1008C00011242F923F924F925F926F927F928F925C
:1008D0009F92AF92BF92CF92DF92EF92FF920F93CF
:1008E0001F932F933F934F935F936F937F938F93B8
:1008F0009F93AF93BF93CF93DF93EF93FF93A09119
:100900004201B09143010DB60D920EB60D920E94B8
:100910006E0DA0914201B0914301CD91CDBFDD910B
:10092000DEBFFF91EF91DF91CF91BF91AF919F918A
:100930008F917F916F915F914F913F912F911F9177
:100940000F91FF90EF90DF90CF90BF90AF909F906E
:100950008F907F906F905F904F903F902F901F905F
:100960000F900FBE0F9008950F920FB6F8940F924C
:100970001F9211242F923F924F925F926F927F921B
:100980008F929F92AF92BF92CF92DF92EF92FF929F
:100990000F931F932F933F934F935F936F937F9387
:1009A0008F939F93AF93BF93CF93DF93EF93FF9377
:1009B000A0914201B09143010DB60D920EB60D9279
:1009C00013BE0E94FA0B81110E946E0DA09142018C
:1009D000B0914301CD91CDBFDD91DEBFFF91EF918D
:1009E000DF91CF91BF91AF919F918F917F916F9147
:1009F0005F914F913F912F911F910F91FF90EF9039
:100A0000DF90CF90BF90AF909F908F907F906F902E
:100A10005F904F903F902F901F900F900FBE0F90C0
:100A200008950E94B40418950FB6F8940F92FC0133
:100A3000928D0F900FBE81E0911180E008950F9389
:100A40001F93CF93DF93EC01042F1A8D4C8D41112E
:100A50000BC088819981892BE9F58A819B810E944D
:100A60008C0F1B821A8237C050E0011115C08C8197
:100A70009D810E94AC152C8D8C819D81820F911DD2
:100A80009D838C832A813B818217930718F188818B
:100A900099819D838C831EC08E819F810E94AC159D
:100AA0002C8D30E03195219531098E819F81820F07
:100AB000931F9F838E83688179818617970730F40F
:100AC0008A819B81820F931F9F838E83023011F452
:100AD0001111115080E01F5F1A8FDF91CF911F918C
:100AE0000F910895FC01CB01448D4423A1F050E007
:100AF00026813781240F351F3783268362817381D6
:100B00002617370720F020813181378326836681BD
:100B100077810C94AC150895FF920F931F93CF9398
:100B2000DF93EC010FB6F8940F92FE8C8C010F5EF0
:100B30001F4F1F145CF48989882341F0C8010E946B
:100B4000590E81110E940A0FFA94F3CF8FEF8E8F06
:100B50000F900FBE0FB6F8940F92FD8C8E01085FB8
:100B60001F4F1F145CF48885882341F0C8010E9440
:100B7000590E81110E940A0FFA94F3CF8FEF8D8FD7
:100B80000F900FBEDF91CF911F910F91FF900895AD
:100B9000CF93DF93EC010FB6F8940F92288139813F
:100BA0008B8D7C8D879FC0011124A901480F591F8F
:100BB0005B834A831A8E3D832C83871B9109820FA6
:100BC000931F9F838E838FEF8D8F8E8F61110CC04B
:100BD0008885882389F0CE0108960E94590E8823C3
:100BE00059F00E945B0408C0CE0108960E941F03C2
:100BF000CE0141960E941F030F900FBE81E0DF914E
:100C0000CF910895EF92FF921F93CF93DF931F929E
:100C1000CDB7DEB7182F662321F0869FC0011124BF
:100C200002C080E090E04F9669830E94E6027C015A
:100C30006981009799F0611104C0FC019183808360
:100C400006C09C01215E3F4FFC0131832083F701E8
:100C5000138F648F61E0C7010E94C805C7010F9020
:100C6000DF91CF911F91FF90EF900895CF93C62F02
:100C700042E060E00E940206009711F0FC01C28F82
:100C8000CF910895BF92CF92DF92EF92FF920F9390
:100C90001F93CF93DF9300D000D01F92CDB7DEB764
:100CA0008C016B015D834C83B22E20E07C0188E0D7
:100CB000E80EF11C0FB6F8940F92F801928D838D17
:100CC000981718F0F2E0BF1214C04B2DB601C801FE
:100CD0000E941F05F8019189992321F0C8014196CE
:100CE0000E94590E81110E945B040F900FBE81E09B
:100CF00050C08C819D81892B19F40F900FBE48C084
:100D0000211104C0CE0101960E94CD0E0F900FBE9E
:100D10000E94DA0B0FB6F8940F92F801858D8F3F81
:100D200009F4158EF801868D8F3F09F4168E0F9009
:100D30000FBEBE016C5F7F4FCE0101960E94D80EA0
:100D4000811121C00FB6F8940F92F801928D838D16
:100D50000F900FBE981311C06C817D81C7010E9456
:100D6000110EC8010E948C050E94AD0C882311F061
:100D700021E0A0CF0E945B04FBCFC8010E948C053C
:100D80000E94AD0CF5CFC8010E948C050E94AD0CED
:100D900080E00F900F900F900F900F90DF91CF9108
:100DA0001F910F91FF90EF90DF90CF90BF9008952B
:100DB000CF93DF93482F60E081E00E940206EC01B0
:100DC000009761F01B821A82198218821E8220E02D
:100DD00040E050E060E070E00E944206CE01DF910A
:100DE000CF9108950F931F93CF93DF93EC010A8166
:100DF0001B810E94240F0817190771F48E818150FE
:100E00008E8381110BC020E040E050E060E070E094
:100E1000CE010E94420602C080E001C081E0DF9165
:100E2000CF911F910F910895FF920F931F93CF932E
:100E3000DF93EC018A019A8D8B8D981710F0223088
:100E4000E1F4FE8C422FCE010E941F058FEFF812B5
:100E500010C08989882379F0CE0141960E94590EED
:100E6000882349F00115110531F081E0F8018083F4
:100E700005C0F394FE8E81E001C080E0DF91CF9148
:100E80001F910F91FF900895CF93DF93FC01EB0129
:100E9000928D838D9817B8F4868D9F5F928F8F3FC8
:100EA00071F48189882369F0CF0141960E94590E1F
:100EB000882339F0209729F081E0888305C08F5F6F
:100EC000868F81E001C080E0DF91CF910895AF92DD
:100ED000BF92CF92DF92EF92FF920F931F93CF9327
:100EE000DF9300D000D01F92CDB7DEB78C016B012D
:100EF0005D834C83A22E20E07C0181E1E80EF11C91
:100F00000FB6F8940F92F801B28CBB2071F1E68015
:100F1000F780B601C8010E947205A11019C0BA94E9
:100F2000F801B28E80819181892B29F40E94DC0F17
:100F3000F80193838283F8018085882391F0C801AA
:100F400008960E94590E882361F00E945B0409C034
:100F5000F801F782E6828189882319F0C801419659
:100F6000F0CF0F900FBE81E05FC08C819D81892BF7
:100F700019F40F900FBE57C0211104C0CE01019685
:100F80000E94CD0E0F900FBE0E94DA0B0FB6F894A0
:100F90000F92F801858D8F3F09F4158EF801868D2B
:100FA0008F3F09F4168E0F900FBEBE016C5F7F4F0E
:100FB000CE0101960E94D80E81112BC0C8010E945B
:100FC0001405882301F1F80180819181892B51F466
:100FD0000FB6F8940F92F801828193810E94370F27
:100FE0000F900FBE6C817D81C7010E94110EC80158
:100FF0000E948C050E94AD0C882311F021E080CF67
:101000000E945B04FBCFC8010E948C050E94AD0CBE
:10101000F5CFC8010E948C050E94AD0CC8010E944A
:101020001405882359F380E00F900F900F900F90D4
:101030000F90DF91CF911F910F91FF90EF90DF9074
:10104000CF90BF90AF900895EF92FF920F931F93B0
:10105000CF93DF93EC018B01EA80FB800E94240F89
:10106000E816F90629F48E818F5F8E8381E00CC02B
:1010700020E0A80160E070E0CE010E9467078823AD
:1010800019F09E819F5F9E83DF91CF911F910F91F9
:10109000FF90EF900895EF92FF920F931F93CF93DD
:1010A000DF93EC018A01EA8CEE20E1F0FD8C0E94D6
:1010B0007205EA94EA8E8FEFF81210C088858823B3
:1010C00079F0CE0108960E94590E882349F0011547
:1010D000110531F081E0F801808305C0F394FD8EA5
:1010E00081E001C080E0DF91CF911F910F91FF90CF
:1010F000EF9008950F931F93CF93DF93EC018A8DA8
:10110000882349F00E811F81CE010E9472051F8342
:101110000E8381E001C080E0DF91CF911F910F919C
:1011200008950FB6F8940F92FC01828D0F900FBEB8
:1011300008950FB6F8940F92FC01228D838D821BC7
:101140000F900FBE0895FC01828D08950C94050345
:10115000FC01928D81E0911180E00895FC01228DC7
:1011600081E0938D291380E00895CF93DF93EC0104
:101170000FB6F8940F928D8D8F3F09F41D8E8E8DD2
:101180008F3F09F41E8E0F900FBE8A8D811104C00F
:10119000CE0141960E943A0ECE01DF91CF910C9480
:1011A0008C05EF92FF920F931F93CF93DF931F92C3
:1011B000CDB7DEB77C0100914F01109150018091B5
:1011C000420190914301029669830E948A036981DA
:1011D0008FEFE816F80699F4662389F060914201D2
:1011E000709143016E5F7F4F82E591E00F90DF9138
:1011F000CF911F910F91FF90EF900C943103E00E6F
:10120000F11EE0914201F0914301F382E28260918C
:10121000420170914301E016F10678F480916E016D
:1012200090916F016E5F7F4F0F90DF91CF911F9173
:101230000F91FF90EF900C94520380917001909168
:1012400071016E5F7F4F0E94520380914701909120
:101250004801E816F90620F4F0924801E0924701AF
:101260000F90DF91CF911F910F91FF90EF90089514
:101270005F926F927F928F929F92AF92BF92CF9226
:10128000DF92EF92FF920F931F93CF93DF934C0166
:10129000562E172F5A013901CA010E94E6026C012D
:1012A000009709F4DCC088E290E00E94E602EC01BD
:1012B0000097A1F0D88ECF8AA50165EA70E0C6013B
:1012C0000E94B51521E0A21AB108CF88D88CCA0CAB
:1012D000DB1CE52DF12F80E090E008C0C6010E94E4
:1012E0000503BDC001968830910561F0BF014191B1
:1012F0009E01280F391FD90159964C93DB012C917F
:101300002111F0CF18A2043008F003E00E8B09A3DE
:101310001AA25E01B2E0AB0EB11CC5010E942D0302
:10132000CE010C960E942D03D987C88784E090E0F7
:10133000801B91099D878C87DB8BCA8B1BA21CA20B
:101340001DA21EA21FA2A301B401C6010E94AD03EB
:1013500099838883E114F10419F0F701D183C083E4
:101360000FB6F8940F92809151018F5F80935101D5
:101370008091420190914301892BD1F5D093430193
:10138000C093420180915101813009F041C084E84D
:1013900091E00E941F038DE891E00E941F0386E9FF
:1013A00091E00E941F038FE991E00E941F038BE7E9
:1013B00091E00E941F0382E791E00E941F0385E6EF
:1013C00091E00E941F038CE591E00E941F0382E5DB
:1013D00091E00E941F038BE791E09093710180934D
:1013E000700182E791E090936F0180936E0110C0CD
:1013F00080914D0181110CC0E0914201F0914301B7
:1014000096898E89891720F0D0934301C0934201B9
:10141000809149018F5F809349018E8990914E019F
:10142000981710F480934E01F9E08F9FC0011124AA
:10143000B5018C579E4F0E9431030F900FBE8091D3
:101440004D01882351F0E0914201F09143019689CA
:101450008E89981710F40E945B0481E001C08FEF21
:10146000DF91CF911F910F91FF90EF90DF90CF9080
:10147000BF90AF909F908F907F906F905F900895F6
:101480000F931F93CF93DF93EC010FB6F8940F9255
:10149000009721F4C0914201D09143018E010E5F6B
:1014A0001F4FC8010E948A038C899D89892B21F0D6
:1014B000CE010C960E948A03809149018F5F809330
:1014C00049018091420190914301C817D90759F40D
:1014D000B8018CE591E00E94310380915B018F5F40
:1014E00080935B010EC08091510181508093510126
:1014F0008F89988D0E940503CE010E9405030E94EA
:10150000C6000F900FBE80914D01882349F0809155
:10151000420190914301C817D90711F40E945B045E
:10152000DF91CF911F910F9108950FB6F8940F920C
:10153000009721F48091420190914301FC0186893A
:101540000F900FBE0895009721F480914201909171
:101550004301FC0186890895FF920F931F93CF9357
:10156000DF93EC01643008F063E00FB6F8940F925B
:10157000209721F4C0914201D091430129A126175F
:1015800009F44CC08091420190914301261768F400
:10159000C817D90779F0E0914201F0914301FF2487
:1015A000F3948689681738F405C0FF24F394C817AC
:1015B000D90709F0F12C8E89281301C06E8B69A31D
:1015C0002C853D8537FD06C024E030E0261B31091F
:1015D0003D872C8729E0829FC00111248C579E4FA4
:1015E0002A853B8528173907B1F48E010E5F1F4FFE
:1015F000C8010E948A038E8990914E01981710F4B9
:1016000080934E0129E0829FC0011124B8018C57BC
:101610009E4F0E943103F1100E945B040F900FBE99
:10162000DF91CF911F910F91FF9008950F931F931A
:10163000CF93DF93EC01009709F439C08091420108
:1016400090914301C817D90791F10FB6F8940F9202
:101650008A859B858255914041F58C899D8921E041
:101660008536920711F1892B01F58E010E5F1F4F10
:10167000C8010E948A038E8990914E01981710F438
:1016800080934E0129E0829FC0011124B8018C573C
:101690009E4F0E943103E0914201F09143019E89E7
:1016A0008689981710F00E945B040F900FBEDF919F
:1016B000CF911F910F910895FF920F931F93CF9396
:1016C000DF93EC018A859B8582559140A9F58C8931
:1016D0009D8931E08536930779F1892B69F58091F1
:1016E0004401811122C0E0914201F0914301FF24A5
:1016F000F3949E898689981708F4F12C8E010E5F69
:101700001F4FC8010E948A032E8980914E018217C3
:1017100010F420934E0139E0239FC0011124B80139
:101720008C579E4F0E94310308C0BE01645F7F4FFB
:1017300085E691E00E943103F12C8F2DDF91CF914E
:101740001F910F91FF900895EF92FF920F9385E400
:10175000E82E81E0F82E00E020E030E040EC50E0A0
:1017600063E271E081EE90E00E9438098130B9F4C3
:101770000E946A12813099F4F8948FEF9FEF909352
:1017800048018093470181E080934D011092500100
:1017900010924F010F91FF90EF900C9419040F914C
:1017A000FF90EF900895F89410924D010E9452041A
:1017B00078940895809144018F5F80934401089547
:1017C0000FB6F8940F9280914F01909150010F90B5
:1017D0000FBE089580914F0190915001089580911E
:1017E00051010895009721F48091420190914301A5
:1017F00049960895CF92DF92EF92FF920F931F9335
:10180000CF93DF9380914401811191C0C0914F012A
:10181000D09150012196D0935001C0934F01209751
:10182000B9F4809170019091710120916E01309115
:101830006F01309371012093700190936F01809339
:101840006E0180914A018F5F80934A010E94C60019
:101850008091470190914801D12CC817D90708F40D
:1018600055C099E0C92EE0917001F091710180811D
:10187000811107C08FEF9FEF90934801809347013C
:1018800045C0E0917001F09171010580F681E02D75
:1018900006811781D80112962D913C911397C2179A
:1018A000D30728F430934801209347012FC07801D3
:1018B000B2E0EB0EF11CC7010E948A03F8012489F3
:1018C0003589232B21F0C8010C960E948A03D80188
:1018D00056962C9180914E01821710F420934E0160
:1018E000C29EC0011124B7018C579E4F0E94310344
:1018F000E0914201F0914301D80156969C9186896E
:10190000981708F4B0CFDD24D394ADCFE091420115
:10191000F0914301E689B9E0EB9FF0011124EC5707
:10192000FE4F8081823048F0DD24D39406C0809140
:101930004C018F5F80934C01D12C80914B01882307
:1019400011F0DD24D3948D2DDF91CF911F910F9154
:10195000FF90EF90DF90CF900895EF92FF920F935A
:101960001F93CF93DF930FB6F8940F9280914401A9
:1019700081508093440180914401882311F080E0DC
:1019800052C0809151018823D1F3C0E0D0E029E01A
:10199000F22EEE24E39480916501882351F1E091C9
:1019A0006A01F0916B01C681D781CE010C960E942D
:1019B0008A038E010E5F1F4FC8010E948A038E8921
:1019C00090914E01981710F480934E01F89EC0013B
:1019D0001124B8018C579E4F0E943103E0914201BF
:1019E000F09143019E8986899817A8F2E0924B01F5
:1019F000D2CFCD2B11F00E94C600C0914C01CC2358
:101A000051F0D1E00E94FA0B8111D0934B01C150EB
:101A1000C9F710924C0180914B01882309F4AFCF94
:101A20000E945B0481E00F900FBEDF91CF911F9168
:101A30000F91FF90EF9008950F931F93CF93DF9333
:101A4000EC018B010E94DA0B40914F015091500143
:101A5000E881F9819F01200F311F4E175F0728F49D
:101A60002E173F0748F481E004C081E02E173F079E
:101A700020F04217530708F080E039832883882339
:101A800031F060E0C901841B950B0E94D1080E94CF
:101A9000AD0C811102C00E945B04DF91CF911F91B8
:101AA0000F910895CF93DF9300D0CDB7DEB70097A5
:101AB00019F40E945B040DC089839A830E94DA0B9B
:101AC00060E089819A810E94D1080E94AD0C882330
:101AD00081F30F900F90DF91CF9108958091440191
:101AE000882321F081E080934B01089510924B01EF
:101AF000A0914201B0914301E0914201F091430174
:101B00002D913C918789908D8217930760F06091A9
:101B10004201709143018091420190914301675EBF
:101B20007F4F0E94520120914E0199E0929FF00157
:101B30001124EC57FE4F8081811102C02150F6CF55
:101B4000A181B28112960D90BC91A02DB283A18388
:101B5000CF010396A817B90731F412968D919C9185
:101B60001397928381830180F281E02D8681978192
:101B7000909343018093420120934E0108950F9367
:101B80001F93CF93DF93EC010FB6F8940F92009759
:101B900021F4C0914201D09143018E010E5F1F4F8D
:101BA000C8010E948A038C899D89892B21F0CE016E
:101BB0000C960E948A03B80182E591E00E943103ED
:101BC0000F900FBE80914D01882339F00FB6F89425
:101BD0000F920E94C6000F900FBE8091420190911B
:101BE0004301C817D907C1F480914D01882319F02A
:101BF0000E945B0411C08091510190915201981391
:101C000005C0109243011092420106C0DF91CF91AE
:101C10001F910F910C946E0DDF91CF911F910F9139
:101C20000895CF93DF93EB016091420170914301DE
:101C3000645F7F4F0E94520361E0CE01DF91CF913C
:101C40000C94D108CF93DF93EA01E0914201F09127
:101C50004301706875876487609142017091430108
:101C6000645F7F4F0E94310361E0CE01DF91CF912D
:101C70000C94D1080F931F93CF93DF931F92CDB78E
:101C8000DEB78B016091420170914301645F7F4F29
:101C900049830E9431034981442311F00FEF1FEF64
:101CA000642FC8010F90DF91CF911F910F910C9479
:101CB000D1080F931F93CF93DF93DC011596ED911D
:101CC000FC911697C681D7818E01045F1F4FC80112
:101CD0000E948A0380914401811114C00A501109A5
:101CE000C8010E948A038E8990914E01981710F4C2
:101CF00080934E01B9E08B9FC0011124B8018C572D
:101D00009E4F03C0B80185E691E00E943103E09147
:101D10004201F09143019E898689891720F481E070
:101D200080934B0101C080E0DF91CF911F910F9113
:101D300008950F931F93CF93DF937068FC01718315
:101D40006083C681D7810E948A038E010E5F1F4F78
:101D5000C8010E948A038E8990914E01981710F451
:101D600080934E01F9E08F9FC0011124B8018C5778
:101D70009E4F0E943103E0914201F09143019E8900
:101D80008689891720F481E080934B0101C080E0AF
:101D9000DF91CF911F910F91089520914A01FC018D
:101DA000208320914F013091500132832183089587
:101DB000CF93DF930FB6F8940F92E0914F01F0911B
:101DC0005001DB014D915C914F3FBFEF5B07D1F0BC
:101DD000B0914A01EC01A88129813A81BA1719F022
:101DE000E217F30788F4DF01A21BB30BA417B507B2
:101DF00058F42E1B3F0B240F351FFB01318320832A
:101E00000E94CD0E80E001C081E00F900FBEDF91F7
:101E1000CF91089581E080934B010895009721F4BC
:101E20008091420190914301DC015796ED91FC9124
:101E3000589780E090E0DC012191253A21F4019649
:101E4000A11DB11DF9CF08958091420190914301E8
:101E5000089580914D01882331F0809144018111D2
:101E600004C082E0089581E0089580E008950F9312
:101E70001F93CF93DF93EC01009709F448C08E893C
:101E8000E0914201F09143019689891708F03FC023
:101E90002C853D8537FD0BC0E0914201F091430157
:101EA000968924E030E0291B31093D872C8729E001
:101EB000829FC00111248C579E4F2A853B8528178D
:101EC0003907F9F48E010E5F1F4FC8010E948A0383
:101ED000E0914201F091430186898E8B90914E01F1
:101EE000981710F480934E0129E0829FC0011124BD
:101EF000B8018C579E4FDF91CF911F910F910C9499
:101F00003103E0914201F091430186898E8BDF918C
:101F1000CF911F910F9108950F931F93CF93DF934C
:101F2000EC01009711F480E02BC08AA181508AA3B4
:101F30002E8999A12917B9F38111F5CF8E010E5F72
:101F40001F4FC8010E948A0389A18E8B482F50E041
:101F500024E030E0241B350B3D872C8790914E0107
:101F6000981710F480934E0129E0249FC001259F0B
:101F7000900D1124B8018C579E4F0E94310381E0CF
:101F8000DF91CF911F910F910895E0914201F0915F
:101F9000430184859585E0914201F0914301A09130
:101FA0004201B091430156964C9124E030E0241B4D
:101FB000310935872487089580914201909143012A
:101FC000892B39F0E0914201F091430182A18F5FAA
:101FD00082A3809142019091430108950F931F9332
:101FE000182FCB010FB6F8940F92E0914201F091B7
:101FF000430143A154A165A176A1452B462B472B54
:1020000069F4E0914201F091430121E027A3009798
:1020100029F061E00E94D1080E945B040F900FBE7E
:102020000FB6F8940F92E0914201F091430163A141
:1020300074A185A196A16115710581059105A9F08D
:10204000E0914201F0914301112329F013A214A25F
:1020500015A216A20AC08B019C0101501109210989
:10206000310903A314A325A336A3E0914201F09103
:10207000430117A20F900FBE1F910F9108958F92E9
:102080009F92AF92BF92CF92DF92EF92FF920F9307
:102090001F93CF93DF9300D000D0CDB7DEB7D70129
:1020A0000FB6F8940F92E0914201F0914301E7A13D
:1020B000E23061F1E0914201F0914301C3A0D4A06C
:1020C000E5A0F6A04B015C0180949094A094B0949C
:1020D0008C209D20AE20BF2083A294A2A5A2B6A2F0
:1020E000E0914201F091430181E087A3109771F0E4
:1020F00061E0CD0129833A834B835C830E94D10840
:102100000E945B045C814B813A8129810F900FBE54
:102110000FB6F8940F920115110569F0E091420194
:10212000F091430183A194A1A5A1B6A1F8018083F8
:102130009183A283B383E0914201F091430187A18F
:102140008130C1F0E0914201F0914301C3A0D4A0DD
:10215000E5A0F6A0DA01C90180959095A095B0950B
:102160008C219D21AE21BF2183A394A3A5A3B6A357
:1021700081E001C080E0E0914201F091430117A2AB
:102180000F900FBE0F900F900F900F90DF91CF9197
:102190001F910F91FF90EF90DF90CF90BF90AF9085
:1021A0009F908F900895CF92DF92EF92FF920F93BE
:1021B0001F93CF93DF93EC010FB6F8940F920115A4
:1021C000110549F0CBA0DCA0EDA0FEA0F801C08273
:1021D000D182E282F3828FA192E09FA32230310567
:1021E000C1F080F42130310519F50BA11CA12DA1FE
:1021F0003EA1042B152B262B372B0BA31CA32DA3A1
:102200003EA316C02330310579F02430310551F05A
:102210000FC04BA15CA16DA17EA14F5F5F4F6F4FBF
:102220007F4F02C0823041F14BA35CA36DA37EA31C
:10223000813001F58E010E5F1F4FC8010E948A0395
:102240008E8990914E01981710F480934E01F9E019
:102250008F9FC0011124B8018C579E4F0E943103FB
:10226000E0914201F09143019E898689891710F41B
:102270000E945B0481E001C080E00F900FBEDF91FF
:10228000CF911F910F91FF90EF90DF90CF90089525
:10229000EF92FF920F931F93CF93DF93EC01011501
:1022A000110549F08BA19CA1ADA1BEA1F8018083CD
:1022B0009183A283B383EFA182E08FA32230310503
:1022C000A1F060F42130310511F58BA19CA1ADA1E5
:1022D000BEA1842B952BA62BB72B0EC02330310526
:1022E00091F02430310569F012C08BA19CA1ADA101
:1022F000BEA10196A11DB11D8BA39CA3ADA3BEA33E
:1023000006C0E230D1F14BA35CA36DA37EA3E13004
:1023100011F081E033C080914401811115C08E011C
:102320000E5F1F4FC8010E948A038E8990914E0153
:10233000981710F480934E01F9E08F9FC00111248B
:10234000B8018C579E4F05C0BE01645F7F4F85E684
:1023500091E00E943103E0914201F09143019E8996
:1023600086898917B0F681E0E114F10419F0F701CC
:10237000808304C080934B0101C080E0DF91CF9146
:102380001F910F91FF90EF900895EF92FF920F939E
:102390001F93CF93DF93EC018B018FA192E09FA35A
:1023A0004BA15CA16DA17EA14F5F5F4F6F4F7F4F2F
:1023B0004BA35CA36DA37EA3813091F58091440172
:1023C000811116C07E0122E0E20EF11CC7010E94BD
:1023D0008A038E8990914E01981710F480934E01D4
:1023E000E9E08E9FC0011124B7018C579E4F05C0B4
:1023F000BE01645F7F4F85E691E00E943103E0916A
:102400004201F09143019E898689891748F481E051
:102410000115110519F0F801808302C080934B016A
:10242000DF91CF911F910F91FF90EF9008950FB61C
:10243000F8940F928091AC019091AD01892BE9F451
:102440008BEB91E00E941F0382EB91E00E941F033F
:102450008BEB91E09093B1018093B00182EB91E01E
:102460009093AF018093AE0140E065E08AE00E9466
:1024700002069093AD018093AC010F900FBE0895BA
:10248000FC0173836283918780874617570778F032
:10249000421B530B8485958548175907C8F4BF0123
:1024A0006E5F7F4F8091AE019091AF010DC04217DA
:1024B000530718F46217730758F4BF016E5F7F4F1C
:1024C0008091B0019091B1010E94520380E0089583
:1024D00081E00895EF92FF920F930E94171280916E
:1024E000AC019091AD01892B81F08AEAE82E81E060
:1024F000F82E03E020E030E045E550E068E271E0CE
:102500008CE493E10E94380901C080E00F91FF90B4
:10251000EF9008959F92AF92BF92CF92DF92EF9289
:10252000FF920F931F93CF93DF935C016B01942E67
:10253000790183E190E00E94E602EC01009779F0D6
:102540000E941712B982A882DD86CC869E86F88A00
:10255000EF861A8B098BCE0102960E942D03CE01C5
:10256000DF91CF911F910F91FF90EF90DF90CF906F
:10257000BF90AF909F9008950F931F93CF93DF93D9
:1025800000D000D01F92CDB7DEB7FC01D9018091F9
:10259000AC019091AD01009719F169835B834A8387
:1025A000FD83EC836630A4F40E94290FE091AC0116
:1025B000F091AD0120E0823011F4A80102C040E0AA
:1025C00050E0BE016F5F7F4FCF010E94420609C0FD
:1025D00020E0AD01BE016F5F7F4F0E94140701C074
:1025E00080E00F900F900F900F900F90DF91CF91A0
:1025F0001F910F910895EF92FF920F931F93CF9326
:10260000DF93E091B001F091B1018081882389F1DD
:102610000580F681E02DE080F180C681D7818E01B2
:102620000E5F1F4FC8010E948A03E989FA89CE0113
:1026300009958E85813029F72C853D852E0D3F1D0E
:10264000E216F30660F43B832A83D987C887B80172
:102650008091B0019091B1010E945203D2CF00E06D
:1026600010E020E030E0A70160E0CE010E94BC1243
:10267000C8CF8091AE019091AF019093B10180934A
:10268000B001F093AF01E093AE01DF91CF911F91C4
:102690000F91FF90EF900895CF93DF93CDB7DEB702
:1026A00027970FB6F894DEBF0FBECDBFE091B00103
:1026B000F091B10141E08081882339F040E005804C
:1026C000F681E02DC080D18002C0C12CD12C4F8377
:1026D0000E94DA0B0E94E00B8C018091A80190917E
:1026E000A9014F810817190728F40E94FB1281E005
:1026F0004F8101C080E01093A9010093A8018111CE
:1027000050C0411136C00C151D05D8F10E94AD0C0A
:10271000E091B001F091B1010580F681E02DE680F5
:10272000F780C70102960E948A03D7011E968C91FA
:102730001E978130B1F41C966D917C911D976C0DA4
:102740007D1D9601A801C7010E944012882349F00F
:1027500000E010E020E030E0A60160E0C7010E9448
:10276000BC12D7015196ED91FC915297C701099582
:102770001EC0E091AE01F091AF0141E08081811176
:1027800040E0B601601B710B8091AC019091AD01EE
:102790000E94B5080E94AD0C811109C00E945B0423
:1027A00006C00E94AD0C03C0898187FF0FC020E0E6
:1027B00040E050E0BE016F5F7F4F8091AC0190918F
:1027C000AD010E9467078111EFCF70CFEC80FD80D3
:1027D000F70182859385892B21F0C70102960E941B
:1027E0008A030E94E00BAC018091A8019091A9019D
:1027F0004817590730F44F835E830E94FB125E81B5
:102800004F815093A9014093A8010981112707FD29
:102810001095212F312F0A30110548F6F801EA5A98
:10282000FF4F0C947F142A813B81D7011C966D9138
:102830007C911D97620F731FC7010E94401288236D
:1028400009F4B5CFD7015196ED91FC915297C7018C
:102850000995F7018685813009F0A9CF4485558512
:102860008A819B81480F591F00E010E020E030E092
:1028700060E0C7010E94BC129ACF6A817B81D701B8
:102880001D967C936E931C97640F751F9A01C70168
:102890000E9440128CCFC7010E94050388CF80910F
:1028A000AA019091AB010895FC0184859585089556
:1028B000FC01828193810895FC01808191810895BA
:1028C000FC010FB6F8940F9281E022853385232B0B
:1028D00009F480E00F900FBE08950FB6F8940F92A0
:1028E000FC01878590890F900FBE08950FB6F8946C
:1028F0000F92FC01708B67870F900FBE0895EE0F4B
:10290000FF1F0590F491E02D0994CF93DF9382305F
:10291000910510F482E090E0E091CD01F091CE01BC
:1029200020E030E0A0E0B0E0309739F14081518103
:1029300048175907B8F04817590771F482819381F5
:10294000109729F013969C938E9312972CC0909316
:10295000CE018093CD0127C02115310531F04217FA
:10296000530718F0A901DB0101C0EF019A01BD0175
:10297000DF010280F381E02DD7CF21153105F9F079
:10298000281B390B2430310580F48A819B81611525
:10299000710521F0FB019383828304C09093CE01E3
:1029A0008093CD01FE01329644C0FE01E20FF31F79
:1029B0008193919322503109398328833AC0209121
:1029C000CB013091CC01232B41F4209112013091A5
:1029D00013013093CC012093CB0120911001309151
:1029E00011012115310541F42DB73EB74091140175
:1029F00050911501241B350BE091CB01F091CC01D6
:102A0000E217F307A0F42E1B3F0B2817390778F0C5
:102A1000AC014E5F5F4F2417350748F04E0F5F1F24
:102A20005093CC014093CB018193919302C0E0E09D
:102A3000F0E0CF01DF91CF910895CF93DF9300971E
:102A400009F487C0FC01329713821282C091CD0134
:102A5000D091CE01209781F420813181280F391F38
:102A60008091CB019091CC018217930779F5F09377
:102A7000CC01E093CB016DC0DE0120E030E0AE1769
:102A8000BF0750F412964D915C9113979D0141152B
:102A9000510509F1DA01F3CFB383A283408151815B
:102AA000840F951F8A179B0771F48D919C91119744
:102AB000840F951F02969183808312968D919C912D
:102AC0001397938382832115310529F4F093CE0166
:102AD000E093CD013EC0D9011396FC93EE9312977B
:102AE0004D915D91A40FB51FEA17FB0779F4808122
:102AF0009181840F951F0296D90111969C938E9314
:102B00008281938113969C938E931297E0E0F0E07C
:102B10008A819B81009719F0FE01EC01F9CFCE016B
:102B2000029628813981820F931F2091CB01309129
:102B3000CC012817390769F4309729F41092CE0197
:102B40001092CD0102C013821282D093CC01C093A7
:102B5000CB01DF91CF910895FB01DC0102C0019010
:102B60000D9241505040D8F70895DC0101C06D939B
:0C2B700041505040E0F70895F894FFCF6A
:102B7C000400050006000700080009000A000B000D
:102B8C000000CF01200000454354696D6572546507
:102B9C0073740049444C4500546D722053766300A5
:00000001FF
