:100000000C9460000C947D000C947D000C947D0099
:100010000C947D000C947D000C947D000C947D006C
:100020000C947D000C947D000C947D000C947D005C
:100030000C94D5040C947D000C947D000C947D00F0
:100040000C947D000C947D000C947D000C947D003C
:100050000C947D000C947D000C947D000C947D002C
:100060000C947D000C947D000C947D000C947D001C
:100070000C947D000C947D000C947D000C947D000C
:100080000C947D000C947D000C947D000C947D00FC
:100090000C947D000C947D000C947D000C947D00EC
:1000A0000C947D000C947D000C947D00D713D71325
:1000B000D7139B1301140F14D713D7139B130114D9
:1000C00011241FBECFEFDAE0DEBFCDBF11E0A0E00C
:1000D000B1E0E4E0FBE202C005900D92A032B1076E
:1000E000D9F721E0A0E2B1E001C01D92A63AB20723
:1000F000E1F70E9423010C9480150C94000081E02C
:100100008AB9C1E086E090E00E94160D8BB18C2781
:100110008BB9F8CFE0914E01F0914F0180818111B0
:1001200003C08FEF9FEF0CC0E0914E01F0914F01A3
:100130000580F681E02D0680F781E02D8281938194
:100140009093260180932501089580913901882399
:1001500049F10E949E0BC0913A010E94710CCC2380
:10016000A1F30FB6F8940F92E0913F01F091400196
:10017000C681D781CE0102960E944E0380912F0145
:10018000815080932F0180913901815080933901F2
:100190000F900FBE8F89988D0E94C902CE010E94D8
:1001A000C902D3CF80916201823010F00E941F04F7
:1001B0000E94EF00CACF009721F480912001909116
:1001C00021010FB6F8940F92FC0127A1223019F4F7
:1001D00017A281E001C080E00F900FBE089583EF69
:1001E00080937E008FE380937D0080B7877F80BF00
:1001F00080B7806880BF83B7817F83BF0FB6F894D4
:100200000F9283B7816083BF0F900FBE889513BE96
:1002100008953F9A479A2FEF80E792E0215080405F
:100220009040E1F700C00000379AF5CF3F9A479A17
:100230002FEF87EA91E6215080409040E1F700C01F
:100240000000379AF5CFEF92FF920F93E12CF12C3B
:1002500001E020E030E040E850E066E071E08FE748
:1002600090E00E94FC080E94680B80E090E00F91F3
:10027000FF90EF900895CF93DF938BE090E00E9482
:10028000AA02EC01009731F0FC0111921192CF010A
:100290000E94E302CE01DF91CF910895AF92BF9209
:1002A000CF92DF92EF92FF920F931F93CF93DF9342
:1002B0007C01EB01B42EA22E0E949E0BF701C080A0
:1002C000D180CE018C219D21A11003C0892B29F45E
:1002D0003CC08C179D0709F038C0BB2041F0CE010F
:1002E000809590958C219D21F7019183808300E07A
:1002F00010E00E94710C012B09F43DC0811102C075
:100300000E941F040E94890F91FD1CC00FB6F89433
:100310000F92F701808191819E0128233923A1103A
:1003200003C0232B21F40CC02C173D0749F4BB203C
:1003300039F0C095D095C823D923F701D183C08364
:100340000F900FBE6C01DD2416C00115110589F256
:10035000B11003C060E070E002C060E071E0A11085
:1003600074606C2B7D2BA801C70102960E94E60DDC
:10037000C12CD12CBECFC601DF91CF911F910F911F
:10038000FF90EF90DF90CF90BF90AF900895FC0169
:100390000FB6F8940F9280819181609570956823D3
:1003A0007923718360830F900FBE0895FC018081D3
:1003B00091810895CF92DF92EF92FF920F931F9356
:1003C000CF93DF93EC018B017C0185E0E80EF11CFB
:1003D0000E949E0BEF81F88588819981802B912B5B
:1003E0009983888300E010E068817981EE15FF052C
:1003F000E1F0D280C38020813181C9019927AC010D
:100400004623572332FD03C0452B21F40BC0481768
:10041000590741F430FF02C0082B192B7260CF013D
:100420000E945D0EED2DFC2DDFCF0095109506236B
:100430001723198308830E94710C88819981DF91A9
:10044000CF911F910F91FF90EF90DF90CF90089583
:10045000AF92BF92CF92DF92EF92FF920F931F93D2
:10046000CF93DF93EC015B018A0169010E949E0B2F
:10047000E880F980B501CE010E94DA01EA28FB2864
:10048000C701802391238017910761F488819981A6
:100490009801209530958223932399838883C12CDA
:1004A000D12C0FC0C114D10451F0A601B801756060
:1004B000CE0102960E94E60DE12CF12C02C0E880EC
:1004C000F9800E94710CCD28E9F0811102C00E94D0
:1004D0001F040E94890F91FD13C00FB6F8940F926C
:1004E000888199819801282339232017310731F415
:1004F0000095109508231923198308830F900FBEC8
:100500007C01FF24C701DF91CF911F910F91FF90D4
:10051000EF90DF90CF90BF90AF900895CF93DF938F
:10052000EC010E949E0B8A81882339F060E072E022
:100530008F8198850E945D0EF6CFCE010E94C90280
:10054000DF91CF910C94710CBA010C94DA01BA01CD
:100550000C94C7010F931F93CF93DF9300D0CDB7B7
:10056000DEB789839A830E949E0B89819A810E94BB
:1005700049148C010E94710C0115110511F40E949F
:100580000901C8010F900F90DF91CF911F910F913A
:100590000895CF93DF9300D0CDB7DEB7009771F009
:1005A00089839A830E949E0B89819A810E94E1141B
:1005B0000F900F90DF91CF910C94710C0F900F90D2
:1005C000DF91CF910895FC010396928381832FEFF1
:1005D0003FEF3483238396838583908787831082BC
:1005E0000895FC01118610860895CF93DF939C0136
:1005F000FB01DC011196CD91DC911297D383C2836C
:100600008C819D81958384838C819D81DC011396EF
:100610007C936E9312977D836C8331872087F901D9
:1006200080818F5F8083DF91CF9108950F931F9317
:10063000CF93DF938C01FB01208131812F3F8FEF1E
:10064000380721F4E801AF81B8850EC0D8011396B0
:1006500012968D919C911397EC0148815981241732
:10066000350710F0DC01F4CF12968D919C91139711
:1006700093838283EC01FD83EC83B583A48313967B
:10068000FC93EE93129711870087F80180818F5FAA
:100690008083DF91CF911F910F910895CF93DF93C6
:1006A000FC01A085B1858281938124813581EC0193
:1006B0003D832C83C481D5819B838A8311968D9140
:1006C0009C9112978E179F0721F41296DC93CE937C
:1006D0001197118610868C9181508C93DF91CF9168
:1006E000089531E1FC013083319722E22083319774
:1006F000A3E3A08331976083319770833197108291
:10070000319760E8608331971082319762E06083AF
:10071000319763E06083319764E06083319765E0EF
:100720006083319766E06083319767E0608331973B
:1007300068E06083319769E06083319760E16083AE
:1007400031973083319732E13083319733E1308311
:10075000319734E13083319735E13083319736E199
:100760003083319737E13083319738E130833197E7
:1007700039E13083319730E23083319731E2308391
:1007800031972083319723E220833197408331973B
:100790005083319726E22083319727E220833197D7
:1007A00028E22083319729E22083319720E32083B8
:1007B000319721E3208386970895A89520EC88E15E
:1007C00090E00FB6F894A895809360000FBE209338
:1007D0006000A0912001B0912101CD91CDBFDD91AC
:1007E000DEBFFF91EF91DF91CF91BF91AF919F91CC
:1007F0008F917F916F915F914F913F912F911F91B9
:100800000F91FF90EF90DF90CF90BF90AF909F90AF
:100810008F907F906F905F904F903F902F901F90A0
:100820000F900FBE0F90089581E0089588E10FB6F4
:10083000F89480936000109260000FBE08950F92AC
:100840000FB6F8940F921F9211242F923F924F925D
:100850005F926F927F928F929F92AF92BF92CF9250
:10086000DF92EF92FF920F931F932F933F934F933B
:100870005F936F937F938F939F93AF93BF93CF9328
:10088000DF93EF93FF93A0912001B09121010DB66A
:100890000D920EB60D920E94320DA0912001B091E2
:1008A0002101CD91CDBFDD91DEBFFF91EF91DF91B1
:1008B000CF91BF91AF919F918F917F916F915F91F8
:1008C0004F913F912F911F910F91FF90EF90DF90EB
:1008D000CF90BF90AF909F908F907F906F905F90E0
:1008E0004F903F902F901F900F900FBE0F90089544
:1008F0000F920FB6F8940F921F9211242F923F92ED
:100900004F925F926F927F928F929F92AF92BF921F
:10091000CF92DF92EF92FF920F931F932F933F930B
:100920004F935F936F937F938F939F93AF93BF93F7
:10093000CF93DF93EF93FF93A0912001B09121011A
:100940000DB60D920EB60D9213BE0E94BE0B811114
:100950000E94320DA0912001B0912101CD91CDBF17
:10096000DD91DEBFFF91EF91DF91CF91BF91AF910C
:100970009F918F917F916F915F914F913F912F91B7
:100980001F910F91FF90EF90DF90CF90BF90AF90AD
:100990009F908F907F906F905F904F903F902F909F
:1009A0001F900F900FBE0F9008950E947804189525
:1009B0000FB6F8940F92FC01928D0F900FBE81E05C
:1009C000911180E008950F931F93CF93DF93EC0173
:1009D000042F1A8D4C8D41110BC088819981892B70
:1009E000E9F58A819B810E94500F1B821A8237C0D1
:1009F00050E0011115C08C819D810E9470152C8DD5
:100A00008C819D81820F911D9D838C832A813B81E6
:100A10008217930718F1888199819D838C831EC06A
:100A20008E819F810E9470152C8D30E0319521952B
:100A300031098E819F81820F931F9F838E836881EE
:100A400079818617970730F48A819B81820F931FE3
:100A50009F838E83023011F41111115080E01F5FCB
:100A60001A8FDF91CF911F910F910895FC01CB0157
:100A7000448D4423A1F050E026813781240F351F97
:100A800037832683628173812617370720F0208100
:100A9000318137832683668177810C9470150895A0
:100AA000FF920F931F93CF93DF93EC010FB6F8944F
:100AB0000F92FE8C8C010F5E1F4F1F145CF489890E
:100AC000882341F0C8010E941D0E81110E94CE0EA4
:100AD000FA94F3CF8FEF8E8F0F900FBE0FB6F8946E
:100AE0000F92FD8C8E01085F1F4F1F145CF48885E8
:100AF000882341F0C8010E941D0E81110E94CE0E74
:100B0000FA94F3CF8FEF8D8F0F900FBEDF91CF91BF
:100B10001F910F91FF900895CF93DF93EC010FB6D3
:100B2000F8940F92288139818B8D7C8D879FC0012D
:100B30001124A901480F591F5B834A831A8E3D83F4
:100B40002C83871B9109820F931F9F838E838FEFC6
:100B50008D8F8E8F61110CC08885882389F0CE011E
:100B600008960E941D0E882359F00E941F0408C099
:100B7000CE0108960E94E302CE0141960E94E30254
:100B80000F900FBE81E0DF91CF910895EF92FF9219
:100B90001F93CF93DF931F92CDB7DEB7182F662335
:100BA00021F0869FC001112402C080E090E04F96A2
:100BB00069830E94AA027C016981009799F0611102
:100BC00004C0FC019183808306C09C01215E3F4FDD
:100BD000FC0131832083F701138F648F61E0C7012B
:100BE0000E948C05C7010F90DF91CF911F91FF905C
:100BF000EF900895CF93C62F42E060E00E94C605B3
:100C0000009711F0FC01C28FCF910895BF92CF924F
:100C1000DF92EF92FF920F931F93CF93DF9300D059
:100C200000D01F92CDB7DEB78C016B015D834C8382
:100C3000B22E20E07C0188E0E80EF11C0FB6F8949B
:100C40000F92F801928D838D981718F0F2E0BF1281
:100C500014C04B2DB601C8010E94E304F80191892C
:100C6000992321F0C80141960E941D0E81110E9416
:100C70001F040F900FBE81E050C08C819D81892B95
:100C800019F40F900FBE48C0211104C0CE01019687
:100C90000E94910E0F900FBE0E949E0B0FB6F8940B
:100CA0000F92F801858D8F3F09F4158EF801868D1E
:100CB0008F3F09F4168E0F900FBEBE016C5F7F4F01
:100CC000CE0101960E949C0E811121C00FB6F894AE
:100CD0000F92F801928D838D0F900FBE981311C063
:100CE0006C817D81C7010E94D50DC8010E9450050D
:100CF0000E94710C882311F021E0A0CF0E941F04F4
:100D0000FBCFC8010E9450050E94710CF5CFC801AD
:100D10000E9450050E94710C80E00F900F900F9080
:100D20000F900F90DF91CF911F910F91FF90EF9057
:100D3000DF90CF90BF900895CF93DF93482F60E06E
:100D400081E00E94C605EC01009761F01B821A82C7
:100D5000198218821E8220E040E050E060E070E0DE
:100D60000E940606CE01DF91CF9108950F931F9345
:100D7000CF93DF93EC010A811B810E94E80E0817D4
:100D8000190771F48E8181508E8381110BC020E090
:100D900040E050E060E070E0CE010E94060602C034
:100DA00080E001C081E0DF91CF911F910F91089504
:100DB000FF920F931F93CF93DF93EC018A019A8DDB
:100DC0008B8D981710F02230E1F4FE8C422FCE016B
:100DD0000E94E3048FEFF81210C08989882379F00C
:100DE000CE0141960E941D0E882349F00115110580
:100DF00031F081E0F801808305C0F394FE8E81E03C
:100E000001C080E0DF91CF911F910F91FF90089575
:100E1000CF93DF93FC01EB01928D838D9817B8F48B
:100E2000868D9F5F928F8F3F71F48189882369F04F
:100E3000CF0141960E941D0E882339F0209729F09A
:100E400081E0888305C08F5F868F81E001C080E0EC
:100E5000DF91CF910895AF92BF92CF92DF92EF9240
:100E6000FF920F931F93CF93DF9300D000D01F9278
:100E7000CDB7DEB78C016B015D834C83A22E20E0E1
:100E80007C0181E1E80EF11C0FB6F8940F92F80195
:100E9000B28CBB2071F1E680F780B601C8010E94D8
:100EA0003605A11019C0BA94F801B28E80819181E3
:100EB000892B29F40E94A00FF80193838283F80103
:100EC0008085882391F0C80108960E941D0E882312
:100ED00061F00E941F0409C0F801F782E68281894F
:100EE000882319F0C8014196F0CF0F900FBE81E022
:100EF0005FC08C819D81892B19F40F900FBE57C064
:100F0000211104C0CE0101960E94910E0F900FBED8
:100F10000E949E0B0FB6F8940F92F801858D8F3FBB
:100F200009F4158EF801868D8F3F09F4168E0F9007
:100F30000FBEBE016C5F7F4FCE0101960E949C0EDA
:100F400081112BC0C8010E94D804882301F1F80147
:100F500080819181892B51F40FB6F8940F92F8019A
:100F6000828193810E94FB0E0F900FBE6C817D8168
:100F7000C7010E94D50DC8010E9450050E94710C46
:100F8000882311F021E080CF0E941F04FBCFC8010D
:100F90000E9450050E94710CF5CFC8010E945005B7
:100FA0000E94710CC8010E94D804882359F380E084
:100FB0000F900F900F900F900F90DF91CF911F9196
:100FC0000F91FF90EF90DF90CF90BF90AF9008957A
:100FD000EF92FF920F931F93CF93DF93EC018B015E
:100FE000EA80FB800E94E80EE816F90629F48E815B
:100FF0008F5F8E8381E00CC020E0A80160E070E08C
:10100000CE010E942B07882319F09E819F5F9E834B
:10101000DF91CF911F910F91FF90EF900895EF9284
:10102000FF920F931F93CF93DF93EC018A01EA8C19
:10103000EE20E1F0FD8C0E943605EA94EA8E8FEFF7
:10104000F81210C08885882379F0CE0108960E9496
:101050001D0E882349F00115110531F081E0F801DA
:10106000808305C0F394FD8E81E001C080E0DF91B4
:10107000CF911F910F91FF90EF9008950F931F93C1
:10108000CF93DF93EC018A8D882349F00E811F8175
:10109000CE010E9436051F830E8381E001C080E0EF
:1010A000DF91CF911F910F9108950FB6F8940F9291
:1010B000FC01828D0F900FBE08950FB6F8940F9229
:1010C000FC01228D838D821B0F900FBE0895FC01C1
:1010D000828D08950C94C902FC01928D81E09111DA
:1010E00080E00895FC01228D81E0938D291380E03A
:1010F0000895CF93DF93EC010FB6F8940F928D8D86
:101100008F3F09F41D8E8E8D8F3F09F41E8E0F9038
:101110000FBE8A8D811104C0CE0141960E94FE0D42
:10112000CE01DF91CF910C945005EF92FF920F9377
:101130001F93CF93DF931F92CDB7DEB77C01009151
:101140002D0110912E018091200190912101029694
:1011500069830E944E0369818FEFE816F80699F4BF
:10116000662389F060912001709121016E5F7F4FAD
:1011700080E391E00F90DF91CF911F910F91FF904D
:10118000EF900C94F502E00EF11EE0912001F09139
:101190002101F382E2826091200170912101E01629
:1011A000F10678F480914C0190914D016E5F7F4F74
:1011B0000F90DF91CF911F910F91FF90EF900C94C2
:1011C000160380914E0190914F016E5F7F4F0E94F8
:1011D00016038091250190912601E816F90620F466
:1011E000F0922601E09225010F90DF91CF911F919F
:1011F0000F91FF90EF9008955F926F927F928F9280
:101200009F92AF92BF92CF92DF92EF92FF920F9395
:101210001F93CF93DF934C01562E172F5A0139019C
:10122000CA010E94AA026C01009709F4DCC088E29E
:1012300090E00E94AA02EC010097A1F0D88ECF8A1C
:10124000A50165EA70E0C6010E94791521E0A21AA5
:10125000B108CF88D88CCA0CDB1CE52DF12F80E0BB
:1012600090E008C0C6010E94C902BDC00196883046
:10127000910561F0BF0141919E01280F391FD901ED
:1012800059964C93DB012C912111F0CF18A2043018
:1012900008F003E00E8B09A31AA25E01B2E0AB0EC8
:1012A000B11CC5010E94F102CE010C960E94F10210
:1012B000D987C88784E090E0801B91099D878C873F
:1012C000DB8BCA8B1BA21CA21DA21EA21FA2A30104
:1012D000B401C6010E94710399838883E114F1046B
:1012E00019F0F701D183C0830FB6F8940F92809163
:1012F0002F018F5F80932F01809120019091210118
:10130000892BD1F5D0932101C093200180912F0129
:10131000813009F041C082E691E00E94E3028BE651
:1013200091E00E94E30284E791E00E94E3028DE7EE
:1013300091E00E94E30289E591E00E94E30280E5EA
:1013400091E00E94E30283E491E00E94E3028AE3D9
:1013500091E00E94E30280E391E00E94E30289E5CC
:1013600091E090934F0180934E0180E591E090933E
:101370004D0180934C0110C080912B0181110CC054
:10138000E0912001F091210196898E89891720F042
:10139000D0932101C0932001809127018F5F80931A
:1013A00027018E8990912C01981710F480932C01BD
:1013B000F9E08F9FC0011124B5018E599E4F0E9404
:1013C000F5020F900FBE80912B01882351F0E09120
:1013D0002001F091210196898E89981710F40E94BE
:1013E0001F0481E001C08FEFDF91CF911F910F911A
:1013F000FF90EF90DF90CF90BF90AF909F908F9035
:101400007F906F905F9008950F931F93CF93DF931A
:10141000EC010FB6F8940F92009721F4C0912001CF
:10142000D09121018E010E5F1F4FC8010E944E0313
:101430008C899D89892B21F0CE010C960E944E0348
:10144000809127018F5F80932701809120019091E7
:101450002101C817D90759F4B8018AE391E00E9425
:10146000F502809139018F5F809339010EC0809120
:101470002F01815080932F018F89988D0E94C9027E
:10148000CE010E94C9020E948A000F900FBE809177
:101490002B01882349F08091200190912101C817E8
:1014A000D90711F40E941F04DF91CF911F910F9172
:1014B00008950FB6F8940F92009721F480912001BF
:1014C00090912101FC0186890F900FBE089500972D
:1014D00021F48091200190912101FC0186890895D9
:1014E000FF920F931F93CF93DF93EC01643008F0CA
:1014F00063E00FB6F8940F92209721F4C091200179
:10150000D091210129A1261709F44CC08091200116
:1015100090912101261768F4C817D90779F0E09156
:101520002001F0912101FF24F3948689681738F493
:1015300005C0FF24F394C817D90709F0F12C8E8950
:10154000281301C06E8B69A32C853D8537FD06C02D
:1015500024E030E0261B31093D872C8729E0829F5B
:10156000C00111248E599E4F2A853B8528173907C3
:10157000B1F48E010E5F1F4FC8010E944E038E8989
:1015800090912C01981710F480932C0129E0829FF0
:10159000C0011124B8018E599E4F0E94F502F1102E
:1015A0000E941F040F900FBEDF91CF911F910F91EA
:1015B000FF9008950F931F93CF93DF93EC01009753
:1015C00009F439C08091200190912101C817D907F1
:1015D00091F10FB6F8940F928A859B8580539140C4
:1015E00041F58C899D8921E08334920711F1892B83
:1015F00001F58E010E5F1F4FC8010E944E038E89B8
:1016000090912C01981710F480932C0129E0829F6F
:10161000C0011124B8018E599E4F0E94F502E0913D
:101620002001F09121019E898689981710F00E946F
:101630001F040F900FBEDF91CF911F910F9108955E
:10164000FF920F931F93CF93DF93EC018A859B85C5
:1016500080539140A9F58C899D8931E083349307AB
:1016600079F1892B69F580912201811122C0E091E5
:101670002001F0912101FF24F3949E898689981717
:1016800008F4F12C8E010E5F1F4FC8010E944E031B
:101690002E8980912C01821710F420932C0139E0BF
:1016A000239FC0011124B8018E599E4F0E94F5025C
:1016B00008C0BE01645F7F4F83E491E00E94F502A1
:1016C000F12C8F2DDF91CF911F910F91FF900895F5
:1016D000EF92FF920F9383E2E82E81E0F82E00E074
:1016E00020E030E040EC50E063E171E085EA90E01A
:1016F0000E94FC088130B9F40E942E12813099F4C6
:10170000F8948FEF9FEF909326018093250181E05D
:1017100080932B0110922E0110922D010F91FF90BA
:10172000EF900C94DD030F91FF90EF900895F894E3
:1017300010922B010E941604789408958091220142
:101740008F5F8093220108950FB6F8940F928091D5
:101750002D0190912E010F900FBE089580912D01C3
:1017600090912E01089580912F010895009721F402
:10177000809120019091210149960895CF92DF92A6
:10178000EF92FF920F931F93CF93DF9380912201EB
:10179000811191C0C0912D01D0912E012196D0933D
:1017A0002E01C0932D012097B9F480914E019091A4
:1017B0004F0120914C0130914D0130934F01209306
:1017C0004E0190934D0180934C01809128018F5FD1
:1017D000809328010E948A00809125019091260122
:1017E000D12CC817D90708F455C099E0C92EE0914B
:1017F0004E01F0914F018081811107C08FEF9FEF63
:10180000909326018093250145C0E0914E01F0910F
:101810004F010580F681E02D06811781D8011296CF
:101820002D913C911397C217D30728F430932601CA
:10183000209325012FC07801B2E0EB0EF11CC70107
:101840000E944E03F80124893589232B21F0C80119
:101850000C960E944E03D80156962C9180912C0133
:10186000821710F420932C01C29EC0011124B701ED
:101870008E599E4F0E94F502E0912001F0912101C6
:10188000D80156969C918689981708F4B0CFDD242C
:10189000D394ADCFE0912001F0912101E689B9E028
:1018A000EB9FF0011124EE59FE4F8081823048F009
:1018B000DD24D39406C080912A018F5F80932A0192
:1018C000D12C80912901882311F0DD24D3948D2D12
:1018D000DF91CF911F910F91FF90EF90DF90CF900C
:1018E0000895EF92FF920F931F93CF93DF930FB65C
:1018F000F8940F928091220181508093220180916F
:101900002201882311F080E052C080912F018823AA
:10191000D1F3C0E0D0E029E0F22EEE24E3948091F0
:101920004301882351F1E0914801F0914901C681BA
:10193000D781CE010C960E944E038E010E5F1F4F81
:10194000C8010E944E038E8990912C01981710F4C3
:1019500080932C01F89EC0011124B8018E599E4F2E
:101960000E94F502E0912001F09121019E89868973
:101970009817A8F2E0922901D2CFCD2B11F00E9446
:101980008A00C0912A01CC2351F0D1E00E94BE0B05
:101990008111D0932901C150C9F710922A01809179
:1019A0002901882309F4AFCF0E941F0481E00F9022
:1019B0000FBEDF91CF911F910F91FF90EF9008958F
:1019C0000F931F93CF93DF93EC018B010E949E0B2B
:1019D00040912D0150912E01E881F9819F01200F46
:1019E000311F4E175F0728F42E173F0748F481E098
:1019F00004C081E02E173F0720F04217530708F07C
:101A000080E039832883882331F060E0C901841B9A
:101A1000950B0E9495080E94710C811102C00E94D2
:101A20001F04DF91CF911F910F910895CF93DF9302
:101A300000D0CDB7DEB7009719F40E941F040DC087
:101A400089839A830E949E0B60E089819A810E941B
:101A500095080E94710C882381F30F900F90DF91FD
:101A6000CF91089580912201882321F081E0809315
:101A70002901089510922901A0912001B09121011E
:101A8000E0912001F09121012D913C918789908D69
:101A90008217930760F0609120017091210180917D
:101AA000200190912101675E7F4F0E9416012091D5
:101AB0002C0199E0929FF0011124EE59FE4F808194
:101AC000811102C02150F6CFA181B28112960D90F2
:101AD000BC91A02DB283A183CF010396A817B907AB
:101AE00031F412968D919C9113979283818301809A
:101AF000F281E02D868197819093210180932001CE
:101B000020932C0108950F931F93CF93DF93EC0143
:101B10000FB6F8940F92009721F4C0912001D09154
:101B200021018E010E5F1F4FC8010E944E038C8958
:101B30009D89892B21F0CE010C960E944E03B8019D
:101B400080E391E00E94F5020F900FBE80912B017F
:101B5000882339F00FB6F8940F920E948A000F90F4
:101B60000FBE8091200190912101C817D907C1F4BF
:101B700080912B01882319F00E941F0411C08091CD
:101B80002F0190913001981305C0109221011092FD
:101B9000200106C0DF91CF911F910F910C94320D5F
:101BA000DF91CF911F910F910895CF93DF93EB01B8
:101BB0006091200170912101645F7F4F0E941603A4
:101BC00061E0CE01DF91CF910C949508CF93DF9324
:101BD000EA01E0912001F091210170687587648726
:101BE0006091200170912101645F7F4F0E94F50296
:101BF00061E0CE01DF91CF910C9495080F931F9374
:101C0000CF93DF931F92CDB7DEB78B016091200198
:101C100070912101645F7F4F49830E94F5024981E1
:101C2000442311F00FEF1FEF642FC8010F90DF91D5
:101C3000CF911F910F910C9495080F931F93CF9301
:101C4000DF93DC011596ED91FC911697C681D78143
:101C50008E01045F1F4FC8010E944E038091220134
:101C6000811114C00A501109C8010E944E038E89C7
:101C700090912C01981710F480932C01B9E08B9F60
:101C8000C0011124B8018E599E4F03C0B80183E4EE
:101C900091E00E94F502E0912001F09121019E89DE
:101CA0008689891720F481E08093290101C080E0B2
:101CB000DF91CF911F910F9108950F931F93CF93B1
:101CC000DF937068FC0171836083C681D7810E94B5
:101CD0004E038E010E5F1F4FC8010E944E038E8976
:101CE00090912C01981710F480932C01F9E08F9FAC
:101CF000C0011124B8018E599E4F0E94F502E09157
:101D00002001F09121019E898689891720F481E0C4
:101D10008093290101C080E0DF91CF911F910F9145
:101D2000089520912801FC01208320912D013091FC
:101D30002E01328321830895CF93DF930FB6F89459
:101D40000F92E0912D01F0912E01DB014D915C91FC
:101D50004F3FBFEF5B07D1F0B0912801EC01A881A4
:101D600029813A81BA1719F0E217F30788F4DF01E5
:101D7000A21BB30BA417B50758F42E1B3F0B240F5F
:101D8000351FFB01318320830E94910E80E001C04A
:101D900081E00F900FBEDF91CF91089581E0809395
:101DA00029010895009721F480912001909121014B
:101DB000DC015796ED91FC91589780E090E0DC01B2
:101DC0002191253A21F40196A11DB11DF9CF089565
:101DD0008091200190912101089580912B01882309
:101DE00031F080912201811104C082E0089581E0E8
:101DF000089580E008950F931F93CF93DF93EC0134
:101E0000009709F448C08E89E0912001F0912101EA
:101E10009689891708F03FC02C853D8537FD0BC09A
:101E2000E0912001F0912101968924E030E0291B06
:101E300031093D872C8729E0829FC00111248E59EA
:101E40009E4F2A853B8528173907F9F48E010E5FCE
:101E50001F4FC8010E944E03E0912001F091210123
:101E600086898E8B90912C01981710F480932C0109
:101E700029E0829FC0011124B8018E599E4FDF9145
:101E8000CF911F910F910C94F502E0912001F091F8
:101E9000210186898E8BDF91CF911F910F9108953B
:101EA0000F931F93CF93DF93EC01009711F480E021
:101EB0002BC08AA181508AA32E8999A12917B9F331
:101EC0008111F5CF8E010E5F1F4FC8010E944E0396
:101ED00089A18E8B482F50E024E030E0241B350B85
:101EE0003D872C8790912C01981710F480932C013A
:101EF00029E0249FC001259F900D1124B8018E591F
:101F00009E4F0E94F50281E0DF91CF911F910F91CA
:101F10000895E0912001F091210184859585E0915B
:101F20002001F0912101A0912001B091210156964C
:101F30004C9124E030E0241B310935872487089533
:101F40008091200190912101892B39F0E0912001AD
:101F5000F091210182A18F5F82A380912001909155
:101F6000210108950F931F93182FCB010FB6F894FA
:101F70000F92E0912001F091210143A154A165A1AC
:101F800076A1452B462B472B69F4E0912001F09177
:101F9000210121E027A3009729F061E00E94950824
:101FA0000E941F040F900FBE0FB6F8940F92E0919D
:101FB0002001F091210163A174A185A196A1611571
:101FC000710581059105A9F0E0912001F0912101B1
:101FD000112329F013A214A215A216A20AC08B0184
:101FE0009C01015011092109310903A314A325A360
:101FF00036A3E0912001F091210117A20F900FBEAE
:102000001F910F9108958F929F92AF92BF92CF929E
:10201000DF92EF92FF920F931F93CF93DF9300D045
:1020200000D0CDB7DEB7D7010FB6F8940F92E0918C
:102030002001F0912101E7A1E23061F1E09120015E
:10204000F0912101C3A0D4A0E5A0F6A04B015C0152
:1020500080949094A094B0948C209D20AE20BF20BA
:1020600083A294A2A5A2B6A2E0912001F091210141
:1020700081E087A3109771F061E0CD0129833A8355
:102080004B835C830E9495080E941F045C814B81F6
:102090003A8129810F900FBE0FB6F8940F92011567
:1020A000110569F0E0912001F091210183A194A133
:1020B000A5A1B6A1F80180839183A283B383E091A7
:1020C0002001F091210187A18130C1F0E091200130
:1020D000F0912101C3A0D4A0E5A0F6A0DA01C901C6
:1020E00080959095A095B0958C219D21AE21BF2122
:1020F00083A394A3A5A3B6A381E001C080E0E091EF
:102100002001F091210117A20F900FBE0F900F90A8
:102110000F900F90DF91CF911F910F91FF90EF9053
:10212000DF90CF90BF90AF909F908F900895CF9207
:10213000DF92EF92FF920F931F93CF93DF93EC0107
:102140000FB6F8940F920115110549F0CBA0DCA051
:10215000EDA0FEA0F801C082D182E282F3828FA1BD
:1021600092E09FA322303105C1F080F42130310587
:1021700019F50BA11CA12DA13EA1042B152B262B7B
:10218000372B0BA31CA32DA33EA316C02330310570
:1021900079F02430310551F00FC04BA15CA16DA145
:1021A0007EA14F5F5F4F6F4F7F4F02C0823041F182
:1021B0004BA35CA36DA37EA3813001F58E010E5F5E
:1021C0001F4FC8010E944E038E8990912C019817D1
:1021D00010F480932C01F9E08F9FC0011124B80105
:1021E0008E599E4F0E94F502E0912001F09121014D
:1021F0009E898689891710F40E941F0481E001C01E
:1022000080E00F900FBEDF91CF911F910F91FF9053
:10221000EF90DF90CF900895EF92FF920F931F936E
:10222000CF93DF93EC010115110549F08BA19CA11F
:10223000ADA1BEA1F80180839183A283B383EFA1F6
:1022400082E08FA322303105A1F060F42130310506
:1022500011F58BA19CA1ADA1BEA1842B952BA62B22
:10226000B72B0EC02330310591F02430310569F0D1
:1022700012C08BA19CA1ADA1BEA10196A11DB11D53
:102280008BA39CA3ADA3BEA306C0E230D1F14BA3A8
:102290005CA36DA37EA3E13011F081E033C0809197
:1022A0002201811115C08E010E5F1F4FC8010E94CF
:1022B0004E038E8990912C01981710F480932C0175
:1022C000F9E08F9FC0011124B8018E599E4F05C0BF
:1022D000BE01645F7F4F83E491E00E94F502E091CC
:1022E0002001F09121019E8986898917B0F681E04D
:1022F000E114F10419F0F701808304C080932901EF
:1023000001C080E0DF91CF911F910F91FF90EF907E
:102310000895EF92FF920F931F93CF93DF93EC01F9
:102320008B018FA192E09FA34BA15CA16DA17EA127
:102330004F5F5F4F6F4F7F4F4BA35CA36DA37EA397
:10234000813091F580912201811116C07E0122E039
:10235000E20EF11CC7010E944E038E8990912C0160
:10236000981710F480932C01E9E08E9FC00111248E
:10237000B7018E599E4F05C0BE01645F7F4F83E455
:1023800091E00E94F502E0912001F09121019E89E7
:102390008689891748F481E00115110519F0F801C3
:1023A000808302C080932901DF91CF911F910F910B
:1023B000FF90EF9008950FB6F8940F9280918A01E4
:1023C00090918B01892BE9F489E991E00E94E30265
:1023D00080E991E00E94E30289E991E090938F0106
:1023E00080938E0180E991E090938D0180938C0120
:1023F00040E065E08AE00E94C60590938B018093DF
:102400008A010F900FBE0895FC0173836283918748
:1024100080874617570778F0421B530B84859585B4
:1024200048175907C8F4BF016E5F7F4F80918C0138
:1024300090918D010DC04217530718F4621773076E
:1024400058F4BF016E5F7F4F80918E0190918F0194
:102450000E94160380E0089581E00895EF92FF92B4
:102460000F930E94DB1180918A0190918B01892B3F
:1024700081F088E8E82E81E0F82E03E020E030E0EB
:1024800045E550E068E171E080E193E10E94FC08DD
:1024900001C080E00F91FF90EF9008959F92AF925E
:1024A000BF92CF92DF92EF92FF920F931F93CF9341
:1024B000DF935C016B01942E790183E190E00E942F
:1024C000AA02EC01009779F00E94DB11B982A88280
:1024D000DD86CC869E86F88AEF861A8B098BCE0124
:1024E00002960E94F102CE01DF91CF911F910F91D0
:1024F000FF90EF90DF90CF90BF90AF909F900895A6
:102500000F931F93CF93DF9300D000D01F92CDB7CE
:10251000DEB7FC01D90180918A0190918B0100976F
:1025200019F169835B834A83FD83EC836630A4F4ED
:102530000E94ED0EE0918A01F0918B0120E0823043
:1025400011F4A80102C040E050E0BE016F5F7F4F70
:10255000CF010E94060609C020E0AD01BE016F5FF9
:102560007F4F0E94D80601C080E00F900F900F901F
:102570000F900F90DF91CF911F910F910895EF92DF
:10258000FF920F931F93CF93DF93E0918E01F09111
:102590008F018081882389F10580F681E02DE0801C
:1025A000F180C681D7818E010E5F1F4FC8010E9446
:1025B0004E03E989FA89CE0109958E85813029F784
:1025C0002C853D852E0D3F1DE216F30660F43B83FE
:1025D0002A83D987C887B80180918E0190918F0195
:1025E0000E941603D2CF00E010E020E030E0A70107
:1025F00060E0CE010E948012C8CF80918C01909142
:102600008D0190938F0180938E01F0938D01E09363
:102610008C01DF91CF911F910F91FF90EF90089562
:10262000CF93DF93CDB7DEB727970FB6F894DEBF11
:102630000FBECDBFE0918E01F0918F0141E080810E
:10264000882339F040E00580F681E02DC080D180FC
:1026500002C0C12CD12C4F830E949E0B0E94A40B60
:102660008C0180918601909187014F81081719078D
:1026700028F40E94BF1281E04F8101C080E01093D6
:10268000870100938601811150C0411136C00C159D
:102690001D05D8F10E94710CE0918E01F0918F011F
:1026A0000580F681E02DE680F780C70102960E9442
:1026B0004E03D7011E968C911E978130B1F41C9663
:1026C0006D917C911D976C0D7D1D9601A801C70130
:1026D0000E940412882349F000E010E020E030E07E
:1026E000A60160E0C7010E948012D7015196ED91CA
:1026F000FC915297C70109951EC0E0918C01F091A1
:102700008D0141E08081811140E0B601601B710BB9
:1027100080918A0190918B010E9479080E94710C2E
:10272000811109C00E941F0406C00E94710C03C0E1
:10273000898187FF0FC020E040E050E0BE016F5F5D
:102740007F4F80918A0190918B010E942B0781110C
:10275000EFCF70CFEC80FD80F70182859385892BC8
:1027600021F0C70102960E944E030E94A40BAC0107
:1027700080918601909187014817590730F44F8363
:102780005E830E94BF125E814F8150938701409308
:1027900086010981112707FD1095212F312F0A305D
:1027A000110548F6F801EA5AFF4F0C9443142A81A8
:1027B0003B81D7011C966D917C911D97620F731F11
:1027C000C7010E940412882309F4B5CFD70151969E
:1027D000ED91FC915297C7010995F70186858130EB
:1027E00009F0A9CF448555858A819B81480F591FDF
:1027F00000E010E020E030E060E0C7010E948012BD
:102800009ACF6A817B81D7011D967C936E931C972A
:10281000640F751F9A01C7010E9404128CCFC70173
:102820000E94C90288CF8091880190918901089502
:10283000FC01848595850895FC018281938108952A
:10284000FC01808191810895FC010FB6F8940F92EC
:1028500081E022853385232B09F480E00F900FBEA1
:1028600008950FB6F8940F92FC01878590890F9018
:102870000FBE08950FB6F8940F92FC01708B678716
:102880000F900FBE0895EE0FFF1F0590F491E02DFD
:102890000994CF93DF938230910510F482E090E0A9
:1028A000E091A401F091A50120E030E0A0E0B0E0CB
:1028B000309739F14081518148175907B8F04817CE
:1028C000590771F482819381109729F013969C9394
:1028D0008E9312972CC09093A5018093A40127C0DA
:1028E0002115310531F04217530718F0A901DB011A
:1028F00001C0EF019A01BD01DF010280F381E02DEB
:10290000D7CF21153105F9F0281B390B24303105BB
:1029100080F48A819B816115710521F0FB0193830D
:10292000828304C09093A5018093A401FE01329696
:1029300044C0FE01E20FF31F8193919322503109AD
:10294000398328833AC02091A2013091A301232B1F
:1029500041F420910201309103013093A3012093AF
:10296000A20120910001309101012115310541F4AE
:102970002DB73EB74091040150910501241B350B42
:10298000E091A201F091A301E217F307A0F42E1B3E
:102990003F0B2817390778F0AC014E5F5F4F2417C3
:1029A000350748F04E0F5F1F5093A3014093A201DB
:1029B0008193919302C0E0E0F0E0CF01DF91CF91ED
:1029C0000895CF93DF93009709F487C0FC013297F5
:1029D00013821282C091A401D091A501209781F4A5
:1029E00020813181280F391F8091A2019091A3018C
:1029F0008217930779F5F093A301E093A2016DC0CC
:102A0000DE0120E030E0AE17BF0750F412964D9182
:102A10005C9113979D014115510509F1DA01F3CF3E
:102A2000B383A28340815181840F951F8A179B072E
:102A300071F48D919C911197840F951F029691834B
:102A4000808312968D919C91139793838283211595
:102A5000310529F4F093A501E093A4013EC0D9010A
:102A60001396FC93EE9312974D915D91A40FB51FB1
:102A7000EA17FB0779F480819181840F951F0296F4
:102A8000D90111969C938E938281938113969C9386
:102A90008E931297E0E0F0E08A819B81009719F015
:102AA000FE01EC01F9CFCE01029628813981820F17
:102AB000931F2091A2013091A3012817390769F4CF
:102AC000309729F41092A5011092A40102C013823C
:102AD0001282D093A301C093A201DF91CF910895F8
:102AE000FB01DC0102C001900D9241505040D8F72B
:102AF0000895DC0101C06D9341505040E0F7089506
:042B0000F894FFCF77
:102B04000000A60120004469676974616C5772690A
:102B140074650049444C4500546D7220537663003B
:00000001FF
